{
  "_format": "hh-sol-artifact-1",
  "contractName": "KwikTrustNFT",
  "sourceName": "src/backend/contracts/KwikTrustNFT.sol",
  "abi": [
    {
      "inputs": [
        {
          "internalType": "string",
          "name": "_name",
          "type": "string"
        },
        {
          "internalType": "string",
          "name": "_symbol",
          "type": "string"
        },
        {
          "internalType": "address",
          "name": "_roleAddress",
          "type": "address"
        },
        {
          "internalType": "address",
          "name": "_validator",
          "type": "address"
        }
      ],
      "stateMutability": "nonpayable",
      "type": "constructor"
    },
    {
      "anonymous": false,
      "inputs": [
        {
          "indexed": true,
          "internalType": "address",
          "name": "owner",
          "type": "address"
        },
        {
          "indexed": true,
          "internalType": "address",
          "name": "approved",
          "type": "address"
        },
        {
          "indexed": true,
          "internalType": "uint256",
          "name": "tokenId",
          "type": "uint256"
        }
      ],
      "name": "Approval",
      "type": "event"
    },
    {
      "anonymous": false,
      "inputs": [
        {
          "indexed": true,
          "internalType": "address",
          "name": "owner",
          "type": "address"
        },
        {
          "indexed": true,
          "internalType": "address",
          "name": "operator",
          "type": "address"
        },
        {
          "indexed": false,
          "internalType": "bool",
          "name": "approved",
          "type": "bool"
        }
      ],
      "name": "ApprovalForAll",
      "type": "event"
    },
    {
      "anonymous": false,
      "inputs": [
        {
          "indexed": true,
          "internalType": "bytes32",
          "name": "role",
          "type": "bytes32"
        },
        {
          "indexed": true,
          "internalType": "bytes32",
          "name": "previousAdminRole",
          "type": "bytes32"
        },
        {
          "indexed": true,
          "internalType": "bytes32",
          "name": "newAdminRole",
          "type": "bytes32"
        }
      ],
      "name": "RoleAdminChanged",
      "type": "event"
    },
    {
      "anonymous": false,
      "inputs": [
        {
          "indexed": true,
          "internalType": "bytes32",
          "name": "role",
          "type": "bytes32"
        },
        {
          "indexed": true,
          "internalType": "address",
          "name": "account",
          "type": "address"
        },
        {
          "indexed": true,
          "internalType": "address",
          "name": "sender",
          "type": "address"
        }
      ],
      "name": "RoleGranted",
      "type": "event"
    },
    {
      "anonymous": false,
      "inputs": [
        {
          "indexed": true,
          "internalType": "bytes32",
          "name": "role",
          "type": "bytes32"
        },
        {
          "indexed": true,
          "internalType": "address",
          "name": "account",
          "type": "address"
        },
        {
          "indexed": true,
          "internalType": "address",
          "name": "sender",
          "type": "address"
        }
      ],
      "name": "RoleRevoked",
      "type": "event"
    },
    {
      "anonymous": false,
      "inputs": [
        {
          "indexed": true,
          "internalType": "address",
          "name": "from",
          "type": "address"
        },
        {
          "indexed": true,
          "internalType": "address",
          "name": "to",
          "type": "address"
        },
        {
          "indexed": true,
          "internalType": "uint256",
          "name": "tokenId",
          "type": "uint256"
        }
      ],
      "name": "Transfer",
      "type": "event"
    },
    {
      "anonymous": false,
      "inputs": [
        {
          "indexed": false,
          "internalType": "address",
          "name": "_minter",
          "type": "address"
        }
      ],
      "name": "checkRole",
      "type": "event"
    },
    {
      "anonymous": false,
      "inputs": [
        {
          "indexed": false,
          "internalType": "address",
          "name": "_minter",
          "type": "address"
        },
        {
          "indexed": false,
          "internalType": "uint256",
          "name": "id",
          "type": "uint256"
        }
      ],
      "name": "handleBulkMint",
      "type": "event"
    },
    {
      "anonymous": false,
      "inputs": [
        {
          "indexed": false,
          "internalType": "address",
          "name": "signer",
          "type": "address"
        },
        {
          "indexed": false,
          "internalType": "address",
          "name": "minter",
          "type": "address"
        },
        {
          "indexed": false,
          "internalType": "string",
          "name": "uri",
          "type": "string"
        },
        {
          "indexed": false,
          "internalType": "uint256",
          "name": "tokenId",
          "type": "uint256"
        }
      ],
      "name": "handleLazyMint",
      "type": "event"
    },
    {
      "anonymous": false,
      "inputs": [
        {
          "indexed": false,
          "internalType": "address",
          "name": "_minter",
          "type": "address"
        },
        {
          "indexed": false,
          "internalType": "uint256",
          "name": "id",
          "type": "uint256"
        }
      ],
      "name": "handleMint",
      "type": "event"
    },
    {
      "inputs": [],
      "name": "DEFAULT_ADMIN_ROLE",
      "outputs": [
        {
          "internalType": "bytes32",
          "name": "",
          "type": "bytes32"
        }
      ],
      "stateMutability": "view",
      "type": "function"
    },
    {
      "inputs": [],
      "name": "MINTER_ROLE",
      "outputs": [
        {
          "internalType": "bytes32",
          "name": "",
          "type": "bytes32"
        }
      ],
      "stateMutability": "view",
      "type": "function"
    },
    {
      "inputs": [],
      "name": "VALIDATOR_ROLE",
      "outputs": [
        {
          "internalType": "bytes32",
          "name": "",
          "type": "bytes32"
        }
      ],
      "stateMutability": "view",
      "type": "function"
    },
    {
      "inputs": [
        {
          "internalType": "address",
          "name": "to",
          "type": "address"
        },
        {
          "internalType": "uint256",
          "name": "tokenId",
          "type": "uint256"
        }
      ],
      "name": "approve",
      "outputs": [],
      "stateMutability": "nonpayable",
      "type": "function"
    },
    {
      "inputs": [
        {
          "internalType": "address",
          "name": "owner",
          "type": "address"
        }
      ],
      "name": "balanceOf",
      "outputs": [
        {
          "internalType": "uint256",
          "name": "",
          "type": "uint256"
        }
      ],
      "stateMutability": "view",
      "type": "function"
    },
    {
      "inputs": [
        {
          "internalType": "string[]",
          "name": "_tokenURI",
          "type": "string[]"
        },
        {
          "internalType": "address",
          "name": "marketplace",
          "type": "address"
        }
      ],
      "name": "bulkMint",
      "outputs": [
        {
          "internalType": "uint256",
          "name": "",
          "type": "uint256"
        }
      ],
      "stateMutability": "nonpayable",
      "type": "function"
    },
    {
      "inputs": [
        {
          "internalType": "uint256",
          "name": "tokenId",
          "type": "uint256"
        }
      ],
      "name": "getApproved",
      "outputs": [
        {
          "internalType": "address",
          "name": "",
          "type": "address"
        }
      ],
      "stateMutability": "view",
      "type": "function"
    },
    {
      "inputs": [
        {
          "internalType": "bytes32",
          "name": "role",
          "type": "bytes32"
        }
      ],
      "name": "getRoleAdmin",
      "outputs": [
        {
          "internalType": "bytes32",
          "name": "",
          "type": "bytes32"
        }
      ],
      "stateMutability": "view",
      "type": "function"
    },
    {
      "inputs": [
        {
          "internalType": "bytes32",
          "name": "role",
          "type": "bytes32"
        },
        {
          "internalType": "address",
          "name": "account",
          "type": "address"
        }
      ],
      "name": "grantRole",
      "outputs": [],
      "stateMutability": "nonpayable",
      "type": "function"
    },
    {
      "inputs": [
        {
          "internalType": "bytes32",
          "name": "_role",
          "type": "bytes32"
        },
        {
          "internalType": "address",
          "name": "_admin",
          "type": "address"
        },
        {
          "internalType": "address",
          "name": "_account",
          "type": "address"
        }
      ],
      "name": "grantRole",
      "outputs": [],
      "stateMutability": "nonpayable",
      "type": "function"
    },
    {
      "inputs": [
        {
          "internalType": "bytes32",
          "name": "role",
          "type": "bytes32"
        },
        {
          "internalType": "address",
          "name": "account",
          "type": "address"
        }
      ],
      "name": "hasRole",
      "outputs": [
        {
          "internalType": "bool",
          "name": "",
          "type": "bool"
        }
      ],
      "stateMutability": "view",
      "type": "function"
    },
    {
      "inputs": [
        {
          "internalType": "address",
          "name": "_account",
          "type": "address"
        }
      ],
      "name": "isAdmin",
      "outputs": [
        {
          "internalType": "bool",
          "name": "",
          "type": "bool"
        }
      ],
      "stateMutability": "view",
      "type": "function"
    },
    {
      "inputs": [
        {
          "internalType": "address",
          "name": "owner",
          "type": "address"
        },
        {
          "internalType": "address",
          "name": "operator",
          "type": "address"
        }
      ],
      "name": "isApprovedForAll",
      "outputs": [
        {
          "internalType": "bool",
          "name": "",
          "type": "bool"
        }
      ],
      "stateMutability": "view",
      "type": "function"
    },
    {
      "inputs": [
        {
          "internalType": "address payable",
          "name": "signer",
          "type": "address"
        },
        {
          "internalType": "address",
          "name": "minter",
          "type": "address"
        },
        {
          "components": [
            {
              "internalType": "string",
              "name": "uri",
              "type": "string"
            },
            {
              "internalType": "uint256",
              "name": "price",
              "type": "uint256"
            },
            {
              "internalType": "bytes",
              "name": "signature",
              "type": "bytes"
            },
            {
              "internalType": "contract IERC20",
              "name": "token",
              "type": "address"
            }
          ],
          "internalType": "struct KwikTrustNFT.NFTVoucher",
          "name": "voucher",
          "type": "tuple"
        },
        {
          "internalType": "address",
          "name": "marketplace",
          "type": "address"
        }
      ],
      "name": "lazyMint",
      "outputs": [
        {
          "internalType": "uint256",
          "name": "",
          "type": "uint256"
        }
      ],
      "stateMutability": "payable",
      "type": "function"
    },
    {
      "inputs": [
        {
          "internalType": "string",
          "name": "_tokenURI",
          "type": "string"
        },
        {
          "internalType": "address",
          "name": "marketplace",
          "type": "address"
        }
      ],
      "name": "mint",
      "outputs": [
        {
          "internalType": "uint256",
          "name": "",
          "type": "uint256"
        }
      ],
      "stateMutability": "nonpayable",
      "type": "function"
    },
    {
      "inputs": [],
      "name": "name",
      "outputs": [
        {
          "internalType": "string",
          "name": "",
          "type": "string"
        }
      ],
      "stateMutability": "view",
      "type": "function"
    },
    {
      "inputs": [
        {
          "internalType": "uint256",
          "name": "tokenId",
          "type": "uint256"
        }
      ],
      "name": "ownerOf",
      "outputs": [
        {
          "internalType": "address",
          "name": "",
          "type": "address"
        }
      ],
      "stateMutability": "view",
      "type": "function"
    },
    {
      "inputs": [
        {
          "internalType": "bytes32",
          "name": "role",
          "type": "bytes32"
        },
        {
          "internalType": "address",
          "name": "account",
          "type": "address"
        }
      ],
      "name": "renounceRole",
      "outputs": [],
      "stateMutability": "nonpayable",
      "type": "function"
    },
    {
      "inputs": [
        {
          "internalType": "bytes32",
          "name": "_role",
          "type": "bytes32"
        },
        {
          "internalType": "address",
          "name": "_account",
          "type": "address"
        }
      ],
      "name": "revokeRole",
      "outputs": [],
      "stateMutability": "nonpayable",
      "type": "function"
    },
    {
      "inputs": [
        {
          "internalType": "address",
          "name": "from",
          "type": "address"
        },
        {
          "internalType": "address",
          "name": "to",
          "type": "address"
        },
        {
          "internalType": "uint256",
          "name": "tokenId",
          "type": "uint256"
        }
      ],
      "name": "safeTransferFrom",
      "outputs": [],
      "stateMutability": "nonpayable",
      "type": "function"
    },
    {
      "inputs": [
        {
          "internalType": "address",
          "name": "from",
          "type": "address"
        },
        {
          "internalType": "address",
          "name": "to",
          "type": "address"
        },
        {
          "internalType": "uint256",
          "name": "tokenId",
          "type": "uint256"
        },
        {
          "internalType": "bytes",
          "name": "data",
          "type": "bytes"
        }
      ],
      "name": "safeTransferFrom",
      "outputs": [],
      "stateMutability": "nonpayable",
      "type": "function"
    },
    {
      "inputs": [
        {
          "internalType": "address",
          "name": "operator",
          "type": "address"
        },
        {
          "internalType": "bool",
          "name": "approved",
          "type": "bool"
        }
      ],
      "name": "setApprovalForAll",
      "outputs": [],
      "stateMutability": "nonpayable",
      "type": "function"
    },
    {
      "inputs": [
        {
          "internalType": "bytes4",
          "name": "interfaceId",
          "type": "bytes4"
        }
      ],
      "name": "supportsInterface",
      "outputs": [
        {
          "internalType": "bool",
          "name": "",
          "type": "bool"
        }
      ],
      "stateMutability": "view",
      "type": "function"
    },
    {
      "inputs": [],
      "name": "symbol",
      "outputs": [
        {
          "internalType": "string",
          "name": "",
          "type": "string"
        }
      ],
      "stateMutability": "view",
      "type": "function"
    },
    {
      "inputs": [
        {
          "internalType": "uint256",
          "name": "tokenId",
          "type": "uint256"
        }
      ],
      "name": "tokenURI",
      "outputs": [
        {
          "internalType": "string",
          "name": "",
          "type": "string"
        }
      ],
      "stateMutability": "view",
      "type": "function"
    },
    {
      "inputs": [],
      "name": "totalSupply",
      "outputs": [
        {
          "internalType": "uint256",
          "name": "",
          "type": "uint256"
        }
      ],
      "stateMutability": "view",
      "type": "function"
    },
    {
      "inputs": [
        {
          "internalType": "address",
          "name": "from",
          "type": "address"
        },
        {
          "internalType": "address",
          "name": "to",
          "type": "address"
        },
        {
          "internalType": "uint256",
          "name": "tokenId",
          "type": "uint256"
        }
      ],
      "name": "transferFrom",
      "outputs": [],
      "stateMutability": "nonpayable",
      "type": "function"
    }
  ],
  "bytecode": "0x6101406040523480156200001257600080fd5b5060405162002fd738038062002fd7833981016040819052620000359162000475565b6040518060400160405280601181526020017025bbb4b5aa393ab9ba16ab37bab1b432b960791b815250604051806040016040528060018152602001603160f81b8152508585816000908051906020019062000093929190620002ff565b508051620000a9906001906020840190620002ff565b5050825160208085019190912083518483012060e08290526101008190524660a0818152604080517f8b73c3c69bb8fe3d512ecc4cf759cc79239f7b179b0ffacaa9a75d522b39400f81880181905281830187905260608201869052608082019490945230818401528151808203909301835260c0019052805194019390932091935091906080523060601b60c052610120525062000150925060009150849050620001b4565b6200017d7f9f2df0fed2c77648de5860a4cc508cd0818c85b8b8a1ab4ceeef8d981c8956a68380620001c4565b620001aa7f21702c8af46127c7fa207f89d0b0a8441bb32959a0ac7df790e9ab1a25c989268383620001c4565b5050505062000554565b620001c082826200025b565b5050565b6001600160a01b03821660009081527f6d5257204ebe7d88fd91ae87941cb2dd9d8062b64ae5a2bd2d28ec40b9fbf6df602052604090205460ff166200023f5760405162461bcd60e51b815260040162000236906020808252600490820152633078303160e01b604082015260600190565b60405180910390fd5b6200025683826200025b60201b62000eca1760201c565b505050565b60008281526007602090815260408083206001600160a01b038516845290915290205460ff16620001c05760008281526007602090815260408083206001600160a01b03851684529091529020805460ff19166001179055620002bb3390565b6001600160a01b0316816001600160a01b0316837f2f8788117e7eff1d82e926ec794901d17c78024a50270940304540a733656f0d60405160405180910390a45050565b8280546200030d9062000501565b90600052602060002090601f0160209004810192826200033157600085556200037c565b82601f106200034c57805160ff19168380011785556200037c565b828001600101855582156200037c579182015b828111156200037c5782518255916020019190600101906200035f565b506200038a9291506200038e565b5090565b5b808211156200038a57600081556001016200038f565b80516001600160a01b0381168114620003bd57600080fd5b919050565b600082601f830112620003d3578081fd5b81516001600160401b0380821115620003f057620003f06200053e565b604051601f8301601f19908116603f011681019082821181831017156200041b576200041b6200053e565b8160405283815260209250868385880101111562000437578485fd5b8491505b838210156200045a57858201830151818301840152908201906200043b565b838211156200046b57848385830101525b9695505050505050565b600080600080608085870312156200048b578384fd5b84516001600160401b0380821115620004a2578586fd5b620004b088838901620003c2565b95506020870151915080821115620004c6578485fd5b50620004d587828801620003c2565b935050620004e660408601620003a5565b9150620004f660608601620003a5565b905092959194509250565b600181811c908216806200051657607f821691505b602082108114156200053857634e487b7160e01b600052602260045260246000fd5b50919050565b634e487b7160e01b600052604160045260246000fd5b60805160a05160c05160601c60e0516101005161012051612a30620005a76000396000611f6401526000611fb301526000611f8e01526000611ee701526000611f1101526000611f3b0152612a306000f3fe60806040526004361061019c5760003560e01c80636352211e116100ec578063c49baebe1161008a578063d547741f11610064578063d547741f146104d3578063d657e514146104f3578063e985e9c514610506578063feebcf191461054f57600080fd5b8063c49baebe1461044b578063c87b56dd1461047f578063d53913931461049f57600080fd5b806395d89b41116100c657806395d89b41146103e1578063a217fddf146103f6578063a22cb4651461040b578063b88d4fde1461042b57600080fd5b80636352211e1461038157806370a08231146103a157806391d14854146103c157600080fd5b80631c351a9d1161015957806324d7806c1161013357806324d7806c146103015780632f2ff15d1461032157806336568abe1461034157806342842e0e1461036157600080fd5b80631c351a9d1461029157806323b872dd146102b1578063248a9ca3146102d157600080fd5b806301ffc9a7146101a157806306fdde03146101d6578063081812fc146101f8578063095ea7b31461023057806318160ddd146102525780631a8f1a7814610271575b600080fd5b3480156101ad57600080fd5b506101c16101bc36600461255b565b61056f565b60405190151581526020015b60405180910390f35b3480156101e257600080fd5b506101eb61058f565b6040516101cd9190612747565b34801561020457600080fd5b506102186102133660046124de565b610621565b6040516001600160a01b0390911681526020016101cd565b34801561023c57600080fd5b5061025061024b3660046123c3565b610648565b005b34801561025e57600080fd5b506008545b6040519081526020016101cd565b34801561027d57600080fd5b5061026361028c3660046123ee565b610763565b34801561029d57600080fd5b506102636102ac366004612593565b610856565b3480156102bd57600080fd5b506102506102cc3660046122d9565b6108f4565b3480156102dd57600080fd5b506102636102ec3660046124de565b60009081526007602052604090206001015490565b34801561030d57600080fd5b506101c161031c36600461220e565b610925565b34801561032d57600080fd5b5061025061033c3660046124f6565b610931565b34801561034d57600080fd5b5061025061035c3660046124f6565b610956565b34801561036d57600080fd5b5061025061037c3660046122d9565b6109d4565b34801561038d57600080fd5b5061021861039c3660046124de565b6109ef565b3480156103ad57600080fd5b506102636103bc36600461220e565b610a4f565b3480156103cd57600080fd5b506101c16103dc3660046124f6565b610ad5565b3480156103ed57600080fd5b506101eb610b00565b34801561040257600080fd5b50610263600081565b34801561041757600080fd5b50610250610426366004612396565b610b0f565b34801561043757600080fd5b50610250610446366004612319565b610b1a565b34801561045757600080fd5b506102637f21702c8af46127c7fa207f89d0b0a8441bb32959a0ac7df790e9ab1a25c9892681565b34801561048b57600080fd5b506101eb61049a3660046124de565b610b52565b3480156104ab57600080fd5b506102637f9f2df0fed2c77648de5860a4cc508cd0818c85b8b8a1ab4ceeef8d981c8956a681565b3480156104df57600080fd5b506102506104ee3660046124f6565b610c63565b61026361050136600461222a565b610ca1565b34801561051257600080fd5b506101c16105213660046122a1565b6001600160a01b03918216600090815260056020908152604080832093909416825291909152205460ff1690565b34801561055b57600080fd5b5061025061056a36600461251a565b610e86565b600061057a82610f50565b80610589575061058982610fa0565b92915050565b60606000805461059e90612915565b80601f01602080910402602001604051908101604052809291908181526020018280546105ca90612915565b80156106175780601f106105ec57610100808354040283529160200191610617565b820191906000526020600020905b8154815290600101906020018083116105fa57829003601f168201915b5050505050905090565b600061062c82610fc5565b506000908152600460205260409020546001600160a01b031690565b6000610653826109ef565b9050806001600160a01b0316836001600160a01b031614156106c65760405162461bcd60e51b815260206004820152602160248201527f4552433732313a20617070726f76616c20746f2063757272656e74206f776e656044820152603960f91b60648201526084015b60405180910390fd5b336001600160a01b03821614806106e257506106e28133610521565b6107545760405162461bcd60e51b815260206004820152603e60248201527f4552433732313a20617070726f76652063616c6c6572206973206e6f7420746f60448201527f6b656e206f776e6572206e6f7220617070726f76656420666f7220616c6c000060648201526084016106bd565b61075e8383611027565b505050565b60007f9f2df0fed2c77648de5860a4cc508cd0818c85b8b8a1ab4ceeef8d981c8956a661078f81611095565b60005b845181101561080c57600880549060006107ab83612950565b91905055506107bc3360085461109f565b6107ef6008548683815181106107e257634e487b7160e01b600052603260045260246000fd5b60200260200101516110b9565b6107fa846001610b0f565b8061080481612950565b915050610792565b506008546040805133815260208101929092527ffc9e97ab93ce3c28458f5472e547c5d05f7d89b0b5327929413dd8fd4fae0a3791015b60405180910390a1505060085492915050565b60007f9f2df0fed2c77648de5860a4cc508cd0818c85b8b8a1ab4ceeef8d981c8956a661088281611095565b6008805490600061089283612950565b91905055506108a33360085461109f565b6108af600854856110b9565b6108ba836001610b0f565b6008546040805133815260208101929092527ff19110224b531fe78a74ab0635c2c22b945f4c83b9d48d2c2240f765fe3de3679101610843565b6108fe3382611153565b61091a5760405162461bcd60e51b81526004016106bd906127ac565b61075e8383836111d1565b60006105898183610ad5565b60008281526007602052604090206001015461094c81611095565b61075e8383610eca565b6001600160a01b03811633146109c65760405162461bcd60e51b815260206004820152602f60248201527f416363657373436f6e74726f6c3a2063616e206f6e6c792072656e6f756e636560448201526e103937b632b9903337b91039b2b63360891b60648201526084016106bd565b6109d0828261136d565b5050565b61075e83838360405180602001604052806000815250610b1a565b6000818152600260205260408120546001600160a01b0316806105895760405162461bcd60e51b8152602060048201526018602482015277115490cdcc8c4e881a5b9d985b1a59081d1bdad95b88125160421b60448201526064016106bd565b60006001600160a01b038216610ab95760405162461bcd60e51b815260206004820152602960248201527f4552433732313a2061646472657373207a65726f206973206e6f7420612076616044820152683634b21037bbb732b960b91b60648201526084016106bd565b506001600160a01b031660009081526003602052604090205490565b60009182526007602090815260408084206001600160a01b0393909316845291905290205460ff1690565b60606001805461059e90612915565b6109d03383836113d4565b610b243383611153565b610b405760405162461bcd60e51b81526004016106bd906127ac565b610b4c848484846114a3565b50505050565b6060610b5d82610fc5565b60008281526006602052604081208054610b7690612915565b80601f0160208091040260200160405190810160405280929190818152602001828054610ba290612915565b8015610bef5780601f10610bc457610100808354040283529160200191610bef565b820191906000526020600020905b815481529060010190602001808311610bd257829003601f168201915b505050505090506000610c0d60408051602081019091526000815290565b9050805160001415610c20575092915050565b815115610c52578082604051602001610c3a929190612614565b60405160208183030381529060405292505050919050565b610c5b846114d6565b949350505050565b610c6c33610925565b6109c65760405162461bcd60e51b81526004016106bd90602080825260049082015263183c181960e11b604082015260600190565b600080610cad8461154a565b9050610cd97f21702c8af46127c7fa207f89d0b0a8441bb32959a0ac7df790e9ab1a25c9892682610ad5565b610d0e5760405162461bcd60e51b81526004016106bd906020808252600490820152633078303360e01b604082015260600190565b60088054906000610d1e83612950565b9190505550610d2f8660085461109f565b600854610d7a90610d4086806127fa565b8080601f0160208091040260200160405190810160405280939291908181526020018383808284376000920191909152506110b992505050565b610d8786866008546111d1565b610d97608085016060860161220e565b6040516323b872dd60e01b81523360048201526001600160a01b0388811660248301526020870135604483015291909116906323b872dd90606401602060405180830381600087803b158015610dec57600080fd5b505af1158015610e00573d6000803e3d6000fd5b505050506040513d601f19601f82011682018060405250810190610e2491906124c2565b50610e30836001610b0f565b7f22a703ecacac15a8221e7c517c83bb6fc160ec72b6303d7031d51aaaec517af68686610e5d87806127fa565b600854604051610e719594939291906126b8565b60405180910390a15050600854949350505050565b610e8f82610925565b610ec45760405162461bcd60e51b81526004016106bd906020808252600490820152633078303160e01b604082015260600190565b61075e83825b610ed48282610ad5565b6109d05760008281526007602090815260408083206001600160a01b03851684529091529020805460ff19166001179055610f0c3390565b6001600160a01b0316816001600160a01b0316837f2f8788117e7eff1d82e926ec794901d17c78024a50270940304540a733656f0d60405160405180910390a45050565b60006001600160e01b031982166380ac58cd60e01b1480610f8157506001600160e01b03198216635b5e139f60e01b145b8061058957506301ffc9a760e01b6001600160e01b0319831614610589565b60006001600160e01b03198216637965db0b60e01b1480610589575061058982610f50565b6000818152600260205260409020546001600160a01b03166110245760405162461bcd60e51b8152602060048201526018602482015277115490cdcc8c4e881a5b9d985b1a59081d1bdad95b88125160421b60448201526064016106bd565b50565b600081815260046020526040902080546001600160a01b0319166001600160a01b038416908117909155819061105c826109ef565b6001600160a01b03167f8c5be1e5ebec7d5bd14f71427d1e84f3dd0314c0f7b2291e5b200ac8c7c3b92560405160405180910390a45050565b61102481336115a3565b6109d0828260405180602001604052806000815250611607565b6000828152600260205260409020546001600160a01b03166111345760405162461bcd60e51b815260206004820152602e60248201527f45524337323155524953746f726167653a2055524920736574206f66206e6f6e60448201526d32bc34b9ba32b73a103a37b5b2b760911b60648201526084016106bd565b6000828152600660209081526040909120825161075e928401906120ee565b60008061115f836109ef565b9050806001600160a01b0316846001600160a01b031614806111a657506001600160a01b0380821660009081526005602090815260408083209388168352929052205460ff165b80610c5b5750836001600160a01b03166111bf84610621565b6001600160a01b031614949350505050565b826001600160a01b03166111e4826109ef565b6001600160a01b0316146112485760405162461bcd60e51b815260206004820152602560248201527f4552433732313a207472616e736665722066726f6d20696e636f72726563742060448201526437bbb732b960d91b60648201526084016106bd565b6001600160a01b0382166112aa5760405162461bcd60e51b8152602060048201526024808201527f4552433732313a207472616e7366657220746f20746865207a65726f206164646044820152637265737360e01b60648201526084016106bd565b6112b5600082611027565b6001600160a01b03831660009081526003602052604081208054600192906112de9084906128bb565b90915550506001600160a01b038216600090815260036020526040812080546001929061130c908490612870565b909155505060008181526002602052604080822080546001600160a01b0319166001600160a01b0386811691821790925591518493918716917fddf252ad1be2c89b69c2b068fc378daa952ba7f163c4a11628f55a4df523b3ef91a4505050565b6113778282610ad5565b156109d05760008281526007602090815260408083206001600160a01b0385168085529252808320805460ff1916905551339285917ff6391f5c32d9c69d2a47ea670b442974b53935d1edc7fd64eb21e047a839171b9190a45050565b816001600160a01b0316836001600160a01b031614156114365760405162461bcd60e51b815260206004820152601960248201527f4552433732313a20617070726f766520746f2063616c6c65720000000000000060448201526064016106bd565b6001600160a01b03838116600081815260056020908152604080832094871680845294825291829020805460ff191686151590811790915591519182527f17307eab39ab6107e8899845ad3d59bd9653f200f220920489ca2b5937696c31910160405180910390a3505050565b6114ae8484846111d1565b6114ba8484848461163a565b610b4c5760405162461bcd60e51b81526004016106bd9061275a565b60606114e182610fc5565b60006114f860408051602081019091526000815290565b905060008151116115185760405180602001604052806000815250611543565b8061152284611744565b604051602001611533929190612614565b6040516020818303038152906040525b9392505050565b6000806115568361185e565b90506115438161156960408601866127fa565b8080601f0160208091040260200160405190810160405280939291908181526020018383808284376000920191909152506118fd92505050565b6115ad8282610ad5565b6109d0576115c5816001600160a01b03166014611921565b6115d0836020611921565b6040516020016115e1929190612643565b60408051601f198184030181529082905262461bcd60e51b82526106bd91600401612747565b6116118383611b03565b61161e600084848461163a565b61075e5760405162461bcd60e51b81526004016106bd9061275a565b60006001600160a01b0384163b1561173c57604051630a85bd0160e11b81526001600160a01b0385169063150b7a029061167e90339089908890889060040161270a565b602060405180830381600087803b15801561169857600080fd5b505af19250505080156116c8575060408051601f3d908101601f191682019092526116c591810190612577565b60015b611722573d8080156116f6576040519150601f19603f3d011682016040523d82523d6000602084013e6116fb565b606091505b50805161171a5760405162461bcd60e51b81526004016106bd9061275a565b805181602001fd5b6001600160e01b031916630a85bd0160e11b149050610c5b565b506001610c5b565b6060816117685750506040805180820190915260018152600360fc1b602082015290565b8160005b8115611792578061177c81612950565b915061178b9050600a83612888565b915061176c565b60008167ffffffffffffffff8111156117bb57634e487b7160e01b600052604160045260246000fd5b6040519080825280601f01601f1916602001820160405280156117e5576020820181803683370190505b5090505b8415610c5b576117fa6001836128bb565b9150611807600a8661296b565b611812906030612870565b60f81b81838151811061183557634e487b7160e01b600052603260045260246000fd5b60200101906001600160f81b031916908160001a905350611857600a86612888565b94506117e9565b60006105897fafd4a0a9e0726134058040d66abdbb2c67e151cbbd93c73466f53a5a9ae029b361188e84806127fa565b60405161189c929190612604565b60405190819003902060208501356118ba608087016060880161220e565b60408051602081019590955284019290925260608301526001600160a01b0316608082015260a00160405160208183030381529060405280519060200120611c45565b600080600061190c8585611c93565b9150915061191981611cd9565b509392505050565b6060600061193083600261289c565b61193b906002612870565b67ffffffffffffffff81111561196157634e487b7160e01b600052604160045260246000fd5b6040519080825280601f01601f19166020018201604052801561198b576020820181803683370190505b509050600360fc1b816000815181106119b457634e487b7160e01b600052603260045260246000fd5b60200101906001600160f81b031916908160001a905350600f60fb1b816001815181106119f157634e487b7160e01b600052603260045260246000fd5b60200101906001600160f81b031916908160001a9053506000611a1584600261289c565b611a20906001612870565b90505b6001811115611ab4576f181899199a1a9b1b9c1cb0b131b232b360811b85600f1660108110611a6257634e487b7160e01b600052603260045260246000fd5b1a60f81b828281518110611a8657634e487b7160e01b600052603260045260246000fd5b60200101906001600160f81b031916908160001a90535060049490941c93611aad816128fe565b9050611a23565b5083156115435760405162461bcd60e51b815260206004820181905260248201527f537472696e67733a20686578206c656e67746820696e73756666696369656e7460448201526064016106bd565b6001600160a01b038216611b595760405162461bcd60e51b815260206004820181905260248201527f4552433732313a206d696e7420746f20746865207a65726f206164647265737360448201526064016106bd565b6000818152600260205260409020546001600160a01b031615611bbe5760405162461bcd60e51b815260206004820152601c60248201527f4552433732313a20746f6b656e20616c7265616479206d696e7465640000000060448201526064016106bd565b6001600160a01b0382166000908152600360205260408120805460019290611be7908490612870565b909155505060008181526002602052604080822080546001600160a01b0319166001600160a01b03861690811790915590518392907fddf252ad1be2c89b69c2b068fc378daa952ba7f163c4a11628f55a4df523b3ef908290a45050565b6000610589611c52611eda565b8360405161190160f01b6020820152602281018390526042810182905260009060620160405160208183030381529060405280519060200120905092915050565b600080825160411415611cca5760208301516040840151606085015160001a611cbe87828585612001565b94509450505050611cd2565b506000905060025b9250929050565b6000816004811115611cfb57634e487b7160e01b600052602160045260246000fd5b1415611d045750565b6001816004811115611d2657634e487b7160e01b600052602160045260246000fd5b1415611d745760405162461bcd60e51b815260206004820152601860248201527f45434453413a20696e76616c6964207369676e6174757265000000000000000060448201526064016106bd565b6002816004811115611d9657634e487b7160e01b600052602160045260246000fd5b1415611de45760405162461bcd60e51b815260206004820152601f60248201527f45434453413a20696e76616c6964207369676e6174757265206c656e6774680060448201526064016106bd565b6003816004811115611e0657634e487b7160e01b600052602160045260246000fd5b1415611e5f5760405162461bcd60e51b815260206004820152602260248201527f45434453413a20696e76616c6964207369676e6174757265202773272076616c604482015261756560f01b60648201526084016106bd565b6004816004811115611e8157634e487b7160e01b600052602160045260246000fd5b14156110245760405162461bcd60e51b815260206004820152602260248201527f45434453413a20696e76616c6964207369676e6174757265202776272076616c604482015261756560f01b60648201526084016106bd565b6000306001600160a01b037f000000000000000000000000000000000000000000000000000000000000000016148015611f3357507f000000000000000000000000000000000000000000000000000000000000000046145b15611f5d57507f000000000000000000000000000000000000000000000000000000000000000090565b50604080517f00000000000000000000000000000000000000000000000000000000000000006020808301919091527f0000000000000000000000000000000000000000000000000000000000000000828401527f000000000000000000000000000000000000000000000000000000000000000060608301524660808301523060a0808401919091528351808403909101815260c0909201909252805191012090565b6000807f7fffffffffffffffffffffffffffffff5d576e7357a4501ddfe92f46681b20a083111561203857506000905060036120e5565b8460ff16601b1415801561205057508460ff16601c14155b1561206157506000905060046120e5565b6040805160008082526020820180845289905260ff881692820192909252606081018690526080810185905260019060a0016020604051602081039080840390855afa1580156120b5573d6000803e3d6000fd5b5050604051601f1901519150506001600160a01b0381166120de576000600192509250506120e5565b9150600090505b94509492505050565b8280546120fa90612915565b90600052602060002090601f01602090048101928261211c5760008555612162565b82601f1061213557805160ff1916838001178555612162565b82800160010185558215612162579182015b82811115612162578251825591602001919060010190612147565b5061216e929150612172565b5090565b5b8082111561216e5760008155600101612173565b600067ffffffffffffffff8311156121a1576121a16129ab565b6121b4601f8401601f191660200161283f565b90508281528383830111156121c857600080fd5b828260208301376000602084830101529392505050565b80356121ea816129c1565b919050565b600082601f8301126121ff578081fd5b61154383833560208501612187565b60006020828403121561221f578081fd5b8135611543816129c1565b6000806000806080858703121561223f578283fd5b843561224a816129c1565b9350602085013561225a816129c1565b9250604085013567ffffffffffffffff811115612275578283fd5b850160808188031215612286578283fd5b91506060850135612296816129c1565b939692955090935050565b600080604083850312156122b3578182fd5b82356122be816129c1565b915060208301356122ce816129c1565b809150509250929050565b6000806000606084860312156122ed578283fd5b83356122f8816129c1565b92506020840135612308816129c1565b929592945050506040919091013590565b6000806000806080858703121561232e578384fd5b8435612339816129c1565b93506020850135612349816129c1565b925060408501359150606085013567ffffffffffffffff81111561236b578182fd5b8501601f8101871361237b578182fd5b61238a87823560208401612187565b91505092959194509250565b600080604083850312156123a8578182fd5b82356123b3816129c1565b915060208301356122ce816129d6565b600080604083850312156123d5578182fd5b82356123e0816129c1565b946020939093013593505050565b60008060408385031215612400578182fd5b823567ffffffffffffffff80821115612417578384fd5b818501915085601f83011261242a578384fd5b813560208282111561243e5761243e6129ab565b8160051b61244d82820161283f565b8381528281019086840183880185018c101561246757898afd5b8993505b858410156124a457803587811115612481578a8bfd5b61248f8d87838c01016121ef565b8452506001939093019291840191840161246b565b5097506124b59150508782016121df565b9450505050509250929050565b6000602082840312156124d3578081fd5b8151611543816129d6565b6000602082840312156124ef578081fd5b5035919050565b60008060408385031215612508578182fd5b8235915060208301356122ce816129c1565b60008060006060848603121561252e578081fd5b833592506020840135612540816129c1565b91506040840135612550816129c1565b809150509250925092565b60006020828403121561256c578081fd5b8135611543816129e4565b600060208284031215612588578081fd5b8151611543816129e4565b600080604083850312156125a5578182fd5b823567ffffffffffffffff8111156125bb578283fd5b6125c7858286016121ef565b92505060208301356122ce816129c1565b600081518084526125f08160208601602086016128d2565b601f01601f19169290920160200192915050565b8183823760009101908152919050565b600083516126268184602088016128d2565b83519083019061263a8183602088016128d2565b01949350505050565b7f416363657373436f6e74726f6c3a206163636f756e742000000000000000000081526000835161267b8160178501602088016128d2565b7001034b99036b4b9b9b4b733903937b6329607d1b60179184019182015283516126ac8160288401602088016128d2565b01602801949350505050565b6001600160a01b0386811682528516602082015260806040820181905281018390526000838560a08401378060a0858401015260a0601f19601f86011683010190508260608301529695505050505050565b6001600160a01b038581168252841660208201526040810183905260806060820181905260009061273d908301846125d8565b9695505050505050565b60208152600061154360208301846125d8565b60208082526032908201527f4552433732313a207472616e7366657220746f206e6f6e20455243373231526560408201527131b2b4bb32b91034b6b83632b6b2b73a32b960711b606082015260800190565b6020808252602e908201527f4552433732313a2063616c6c6572206973206e6f7420746f6b656e206f776e6560408201526d1c881b9bdc88185c1c1c9bdd995960921b606082015260800190565b6000808335601e19843603018112612810578283fd5b83018035915067ffffffffffffffff82111561282a578283fd5b602001915036819003821315611cd257600080fd5b604051601f8201601f1916810167ffffffffffffffff81118282101715612868576128686129ab565b604052919050565b600082198211156128835761288361297f565b500190565b60008261289757612897612995565b500490565b60008160001904831182151516156128b6576128b661297f565b500290565b6000828210156128cd576128cd61297f565b500390565b60005b838110156128ed5781810151838201526020016128d5565b83811115610b4c5750506000910152565b60008161290d5761290d61297f565b506000190190565b600181811c9082168061292957607f821691505b6020821081141561294a57634e487b7160e01b600052602260045260246000fd5b50919050565b60006000198214156129645761296461297f565b5060010190565b60008261297a5761297a612995565b500690565b634e487b7160e01b600052601160045260246000fd5b634e487b7160e01b600052601260045260246000fd5b634e487b7160e01b600052604160045260246000fd5b6001600160a01b038116811461102457600080fd5b801515811461102457600080fd5b6001600160e01b03198116811461102457600080fdfea26469706673582212204ab5709c6c3379df6df9b1d27ef4e33826f6a12dcf8a1ed022fac4a7f3d58af564736f6c63430008040033",
  "linkReferences": {},
  "deployedLinkReferences": {}
}