{
  "_format": "hh-sol-artifact-1",
  "contractName": "KwikTrustNFT",
  "sourceName": "src/backend/contracts/KwikTrustNFT.sol",
  "abi": [
    {
      "inputs": [],
      "stateMutability": "nonpayable",
      "type": "constructor"
    },
    {
      "anonymous": false,
      "inputs": [
        {
          "indexed": true,
          "internalType": "address",
          "name": "owner",
          "type": "address"
        },
        {
          "indexed": true,
          "internalType": "address",
          "name": "approved",
          "type": "address"
        },
        {
          "indexed": true,
          "internalType": "uint256",
          "name": "tokenId",
          "type": "uint256"
        }
      ],
      "name": "Approval",
      "type": "event"
    },
    {
      "anonymous": false,
      "inputs": [
        {
          "indexed": true,
          "internalType": "address",
          "name": "owner",
          "type": "address"
        },
        {
          "indexed": true,
          "internalType": "address",
          "name": "operator",
          "type": "address"
        },
        {
          "indexed": false,
          "internalType": "bool",
          "name": "approved",
          "type": "bool"
        }
      ],
      "name": "ApprovalForAll",
      "type": "event"
    },
    {
      "anonymous": false,
      "inputs": [
        {
          "indexed": true,
          "internalType": "bytes32",
          "name": "role",
          "type": "bytes32"
        },
        {
          "indexed": true,
          "internalType": "bytes32",
          "name": "previousAdminRole",
          "type": "bytes32"
        },
        {
          "indexed": true,
          "internalType": "bytes32",
          "name": "newAdminRole",
          "type": "bytes32"
        }
      ],
      "name": "RoleAdminChanged",
      "type": "event"
    },
    {
      "anonymous": false,
      "inputs": [
        {
          "indexed": true,
          "internalType": "bytes32",
          "name": "role",
          "type": "bytes32"
        },
        {
          "indexed": true,
          "internalType": "address",
          "name": "account",
          "type": "address"
        },
        {
          "indexed": true,
          "internalType": "address",
          "name": "sender",
          "type": "address"
        }
      ],
      "name": "RoleGranted",
      "type": "event"
    },
    {
      "anonymous": false,
      "inputs": [
        {
          "indexed": true,
          "internalType": "bytes32",
          "name": "role",
          "type": "bytes32"
        },
        {
          "indexed": true,
          "internalType": "address",
          "name": "account",
          "type": "address"
        },
        {
          "indexed": true,
          "internalType": "address",
          "name": "sender",
          "type": "address"
        }
      ],
      "name": "RoleRevoked",
      "type": "event"
    },
    {
      "anonymous": false,
      "inputs": [
        {
          "indexed": true,
          "internalType": "address",
          "name": "from",
          "type": "address"
        },
        {
          "indexed": true,
          "internalType": "address",
          "name": "to",
          "type": "address"
        },
        {
          "indexed": true,
          "internalType": "uint256",
          "name": "tokenId",
          "type": "uint256"
        }
      ],
      "name": "Transfer",
      "type": "event"
    },
    {
      "anonymous": false,
      "inputs": [
        {
          "indexed": false,
          "internalType": "address",
          "name": "_minter",
          "type": "address"
        }
      ],
      "name": "checkRole",
      "type": "event"
    },
    {
      "anonymous": false,
      "inputs": [
        {
          "indexed": false,
          "internalType": "address",
          "name": "signer",
          "type": "address"
        },
        {
          "indexed": false,
          "internalType": "address",
          "name": "minter",
          "type": "address"
        },
        {
          "indexed": false,
          "internalType": "string",
          "name": "uri",
          "type": "string"
        },
        {
          "indexed": false,
          "internalType": "uint256",
          "name": "tokenId",
          "type": "uint256"
        }
      ],
      "name": "handleLazyMint",
      "type": "event"
    },
    {
      "inputs": [],
      "name": "DEFAULT_ADMIN_ROLE",
      "outputs": [
        {
          "internalType": "bytes32",
          "name": "",
          "type": "bytes32"
        }
      ],
      "stateMutability": "view",
      "type": "function"
    },
    {
      "inputs": [
        {
          "internalType": "address",
          "name": "to",
          "type": "address"
        },
        {
          "internalType": "uint256",
          "name": "tokenId",
          "type": "uint256"
        }
      ],
      "name": "approve",
      "outputs": [],
      "stateMutability": "nonpayable",
      "type": "function"
    },
    {
      "inputs": [
        {
          "internalType": "address",
          "name": "owner",
          "type": "address"
        }
      ],
      "name": "balanceOf",
      "outputs": [
        {
          "internalType": "uint256",
          "name": "",
          "type": "uint256"
        }
      ],
      "stateMutability": "view",
      "type": "function"
    },
    {
      "inputs": [
        {
          "internalType": "uint256",
          "name": "tokenId",
          "type": "uint256"
        }
      ],
      "name": "getApproved",
      "outputs": [
        {
          "internalType": "address",
          "name": "",
          "type": "address"
        }
      ],
      "stateMutability": "view",
      "type": "function"
    },
    {
      "inputs": [
        {
          "internalType": "bytes32",
          "name": "role",
          "type": "bytes32"
        }
      ],
      "name": "getRoleAdmin",
      "outputs": [
        {
          "internalType": "bytes32",
          "name": "",
          "type": "bytes32"
        }
      ],
      "stateMutability": "view",
      "type": "function"
    },
    {
      "inputs": [
        {
          "internalType": "bytes32",
          "name": "role",
          "type": "bytes32"
        },
        {
          "internalType": "address",
          "name": "account",
          "type": "address"
        }
      ],
      "name": "grantRole",
      "outputs": [],
      "stateMutability": "nonpayable",
      "type": "function"
    },
    {
      "inputs": [
        {
          "internalType": "bytes32",
          "name": "role",
          "type": "bytes32"
        },
        {
          "internalType": "address",
          "name": "account",
          "type": "address"
        }
      ],
      "name": "hasRole",
      "outputs": [
        {
          "internalType": "bool",
          "name": "",
          "type": "bool"
        }
      ],
      "stateMutability": "view",
      "type": "function"
    },
    {
      "inputs": [
        {
          "internalType": "address",
          "name": "owner",
          "type": "address"
        },
        {
          "internalType": "address",
          "name": "operator",
          "type": "address"
        }
      ],
      "name": "isApprovedForAll",
      "outputs": [
        {
          "internalType": "bool",
          "name": "",
          "type": "bool"
        }
      ],
      "stateMutability": "view",
      "type": "function"
    },
    {
      "inputs": [
        {
          "components": [
            {
              "internalType": "string",
              "name": "nftName",
              "type": "string"
            },
            {
              "internalType": "string",
              "name": "description",
              "type": "string"
            },
            {
              "internalType": "string",
              "name": "category",
              "type": "string"
            },
            {
              "internalType": "string",
              "name": "uri",
              "type": "string"
            },
            {
              "internalType": "bytes",
              "name": "signature",
              "type": "bytes"
            },
            {
              "internalType": "address",
              "name": "signer",
              "type": "address"
            }
          ],
          "internalType": "struct KwikTrustNFT.NFTVoucher",
          "name": "voucher",
          "type": "tuple"
        }
      ],
      "name": "lazyMint",
      "outputs": [
        {
          "internalType": "uint256",
          "name": "",
          "type": "uint256"
        }
      ],
      "stateMutability": "nonpayable",
      "type": "function"
    },
    {
      "inputs": [],
      "name": "name",
      "outputs": [
        {
          "internalType": "string",
          "name": "",
          "type": "string"
        }
      ],
      "stateMutability": "view",
      "type": "function"
    },
    {
      "inputs": [
        {
          "internalType": "uint256",
          "name": "tokenId",
          "type": "uint256"
        }
      ],
      "name": "ownerOf",
      "outputs": [
        {
          "internalType": "address",
          "name": "",
          "type": "address"
        }
      ],
      "stateMutability": "view",
      "type": "function"
    },
    {
      "inputs": [
        {
          "internalType": "bytes32",
          "name": "role",
          "type": "bytes32"
        },
        {
          "internalType": "address",
          "name": "account",
          "type": "address"
        }
      ],
      "name": "renounceRole",
      "outputs": [],
      "stateMutability": "nonpayable",
      "type": "function"
    },
    {
      "inputs": [
        {
          "internalType": "bytes32",
          "name": "role",
          "type": "bytes32"
        },
        {
          "internalType": "address",
          "name": "account",
          "type": "address"
        }
      ],
      "name": "revokeRole",
      "outputs": [],
      "stateMutability": "nonpayable",
      "type": "function"
    },
    {
      "inputs": [
        {
          "internalType": "address",
          "name": "from",
          "type": "address"
        },
        {
          "internalType": "address",
          "name": "to",
          "type": "address"
        },
        {
          "internalType": "uint256",
          "name": "tokenId",
          "type": "uint256"
        }
      ],
      "name": "safeTransferFrom",
      "outputs": [],
      "stateMutability": "nonpayable",
      "type": "function"
    },
    {
      "inputs": [
        {
          "internalType": "address",
          "name": "from",
          "type": "address"
        },
        {
          "internalType": "address",
          "name": "to",
          "type": "address"
        },
        {
          "internalType": "uint256",
          "name": "tokenId",
          "type": "uint256"
        },
        {
          "internalType": "bytes",
          "name": "data",
          "type": "bytes"
        }
      ],
      "name": "safeTransferFrom",
      "outputs": [],
      "stateMutability": "nonpayable",
      "type": "function"
    },
    {
      "inputs": [
        {
          "internalType": "address",
          "name": "operator",
          "type": "address"
        },
        {
          "internalType": "bool",
          "name": "approved",
          "type": "bool"
        }
      ],
      "name": "setApprovalForAll",
      "outputs": [],
      "stateMutability": "nonpayable",
      "type": "function"
    },
    {
      "inputs": [
        {
          "internalType": "bytes4",
          "name": "interfaceId",
          "type": "bytes4"
        }
      ],
      "name": "supportsInterface",
      "outputs": [
        {
          "internalType": "bool",
          "name": "",
          "type": "bool"
        }
      ],
      "stateMutability": "view",
      "type": "function"
    },
    {
      "inputs": [],
      "name": "symbol",
      "outputs": [
        {
          "internalType": "string",
          "name": "",
          "type": "string"
        }
      ],
      "stateMutability": "view",
      "type": "function"
    },
    {
      "inputs": [
        {
          "internalType": "uint256",
          "name": "tokenId",
          "type": "uint256"
        }
      ],
      "name": "tokenURI",
      "outputs": [
        {
          "internalType": "string",
          "name": "",
          "type": "string"
        }
      ],
      "stateMutability": "view",
      "type": "function"
    },
    {
      "inputs": [],
      "name": "totalSupply",
      "outputs": [
        {
          "internalType": "uint256",
          "name": "",
          "type": "uint256"
        }
      ],
      "stateMutability": "view",
      "type": "function"
    },
    {
      "inputs": [
        {
          "internalType": "address",
          "name": "from",
          "type": "address"
        },
        {
          "internalType": "address",
          "name": "to",
          "type": "address"
        },
        {
          "internalType": "uint256",
          "name": "tokenId",
          "type": "uint256"
        }
      ],
      "name": "transferFrom",
      "outputs": [],
      "stateMutability": "nonpayable",
      "type": "function"
    }
  ],
  "bytecode": "0x6101406040523480156200001257600080fd5b506040518060400160405280601081526020016f2630bd3ca6b4b73a16ab37bab1b432b960811b815250604051806040016040528060018152602001603160f81b8152506040518060400160405280600881526020016713185e9e535a5b9d60c21b815250604051806040016040528060048152602001631313539560e21b8152508160009080519060200190620000ac92919062000160565b508051620000c290600190602084019062000160565b5050825160208085019190912083518483012060e08290526101008190524660a0818152604080517f8b73c3c69bb8fe3d512ecc4cf759cc79239f7b179b0ffacaa9a75d522b39400f81880181905281830187905260608201869052608082019490945230818401528151808203909301835260c0019052805194019390932091935091906080523060601b60c05261012052506200024392505050565b8280546200016e9062000206565b90600052602060002090601f016020900481019282620001925760008555620001dd565b82601f10620001ad57805160ff1916838001178555620001dd565b82800160010185558215620001dd579182015b82811115620001dd578251825591602001919060010190620001c0565b50620001eb929150620001ef565b5090565b5b80821115620001eb5760008155600101620001f0565b600181811c908216806200021b57607f821691505b602082108114156200023d57634e487b7160e01b600052602260045260246000fd5b50919050565b60805160a05160c05160601c60e051610100516101205161239a620002966000396000611ad801526000611b2701526000611b0201526000611a5b01526000611a8501526000611aaf015261239a6000f3fe608060405234801561001057600080fd5b50600436106101375760003560e01c80636352211e116100b8578063a22cb4651161007c578063a22cb46514610283578063a9b6c8a314610296578063b88d4fde146102a9578063c87b56dd146102bc578063d547741f146102cf578063e985e9c5146102e257600080fd5b80636352211e1461023a57806370a082311461024d57806391d148541461026057806395d89b4114610273578063a217fddf1461027b57600080fd5b806323b872dd116100ff57806323b872dd146101cb578063248a9ca3146101de5780632f2ff15d1461020157806336568abe1461021457806342842e0e1461022757600080fd5b806301ffc9a71461013c57806306fdde0314610164578063081812fc14610179578063095ea7b3146101a457806318160ddd146101b9575b600080fd5b61014f61014a366004611f10565b61031e565b60405190151581526020015b60405180910390f35b61016c61033e565b60405161015b91906120ef565b61018c610187366004611ed6565b6103d0565b6040516001600160a01b03909116815260200161015b565b6101b76101b2366004611ead565b6103f7565b005b6008545b60405190815260200161015b565b6101b76101d9366004611d63565b610512565b6101bd6101ec366004611ed6565b60009081526007602052604090206001015490565b6101b761020f366004611eee565b610543565b6101b7610222366004611eee565b610568565b6101b7610235366004611d63565b6105e6565b61018c610248366004611ed6565b610601565b6101bd61025b366004611d17565b610661565b61014f61026e366004611eee565b6106e7565b61016c610712565b6101bd600081565b6101b7610291366004611e73565b610721565b6101bd6102a4366004611f48565b61072c565b6101b76102b7366004611d9e565b61086f565b61016c6102ca366004611ed6565b6108a7565b6101b76102dd366004611eee565b6109b8565b61014f6102f0366004611d31565b6001600160a01b03918216600090815260056020908152604080832093909416825291909152205460ff1690565b6000610329826109dd565b80610338575061033882610a2d565b92915050565b60606000805461034d906122a2565b80601f0160208091040260200160405190810160405280929190818152602001828054610379906122a2565b80156103c65780601f1061039b576101008083540402835291602001916103c6565b820191906000526020600020905b8154815290600101906020018083116103a957829003601f168201915b5050505050905090565b60006103db82610a52565b506000908152600460205260409020546001600160a01b031690565b600061040282610601565b9050806001600160a01b0316836001600160a01b031614156104755760405162461bcd60e51b815260206004820152602160248201527f4552433732313a20617070726f76616c20746f2063757272656e74206f776e656044820152603960f91b60648201526084015b60405180910390fd5b336001600160a01b0382161480610491575061049181336102f0565b6105035760405162461bcd60e51b815260206004820152603e60248201527f4552433732313a20617070726f76652063616c6c6572206973206e6f7420746f60448201527f6b656e206f776e6572206e6f7220617070726f76656420666f7220616c6c0000606482015260840161046c565b61050d8383610ab4565b505050565b61051c3382610b22565b6105385760405162461bcd60e51b815260040161046c90612154565b61050d838383610ba0565b60008281526007602052604090206001015461055e81610d3c565b61050d8383610d46565b6001600160a01b03811633146105d85760405162461bcd60e51b815260206004820152602f60248201527f416363657373436f6e74726f6c3a2063616e206f6e6c792072656e6f756e636560448201526e103937b632b9903337b91039b2b63360891b606482015260840161046c565b6105e28282610dcc565b5050565b61050d8383836040518060200160405280600081525061086f565b6000818152600260205260408120546001600160a01b0316806103385760405162461bcd60e51b8152602060048201526018602482015277115490cdcc8c4e881a5b9d985b1a59081d1bdad95b88125160421b604482015260640161046c565b60006001600160a01b0382166106cb5760405162461bcd60e51b815260206004820152602960248201527f4552433732313a2061646472657373207a65726f206973206e6f7420612076616044820152683634b21037bbb732b960b91b606482015260840161046c565b506001600160a01b031660009081526003602052604090205490565b60009182526007602090815260408084206001600160a01b0393909316845291905290205460ff1690565b60606001805461034d906122a2565b6105e2338383610e33565b60008061073883610f02565b90506001600160a01b03811661075460c0850160a08601611d17565b6001600160a01b03161461079b5760405162461bcd60e51b815260206004820152600e60248201526d11985a5b1959081d1bc81b5a5b9d60921b604482015260640161046c565b600880549060006107ab836122dd565b91905055506107bc33600854610f62565b60085461080a906107d060608601866121e7565b8080601f016020809104026020016040519081016040528093929190818152602001838380828437600092019190915250610f7c92505050565b7f22a703ecacac15a8221e7c517c83bb6fc160ec72b6303d7031d51aaaec517af661083b60c0850160a08601611d17565b3361084960608701876121e7565b60085460405161085d959493929190612060565b60405180910390a15050600854919050565b6108793383610b22565b6108955760405162461bcd60e51b815260040161046c90612154565b6108a184848484611016565b50505050565b60606108b282610a52565b600082815260066020526040812080546108cb906122a2565b80601f01602080910402602001604051908101604052809291908181526020018280546108f7906122a2565b80156109445780601f1061091957610100808354040283529160200191610944565b820191906000526020600020905b81548152906001019060200180831161092757829003601f168201915b50505050509050600061096260408051602081019091526000815290565b9050805160001415610975575092915050565b8151156109a757808260405160200161098f929190611fbc565b60405160208183030381529060405292505050919050565b6109b084611049565b949350505050565b6000828152600760205260409020600101546109d381610d3c565b61050d8383610dcc565b60006001600160e01b031982166380ac58cd60e01b1480610a0e57506001600160e01b03198216635b5e139f60e01b145b8061033857506301ffc9a760e01b6001600160e01b0319831614610338565b60006001600160e01b03198216637965db0b60e01b14806103385750610338826109dd565b6000818152600260205260409020546001600160a01b0316610ab15760405162461bcd60e51b8152602060048201526018602482015277115490cdcc8c4e881a5b9d985b1a59081d1bdad95b88125160421b604482015260640161046c565b50565b600081815260046020526040902080546001600160a01b0319166001600160a01b0384169081179091558190610ae982610601565b6001600160a01b03167f8c5be1e5ebec7d5bd14f71427d1e84f3dd0314c0f7b2291e5b200ac8c7c3b92560405160405180910390a45050565b600080610b2e83610601565b9050806001600160a01b0316846001600160a01b03161480610b7557506001600160a01b0380821660009081526005602090815260408083209388168352929052205460ff165b806109b05750836001600160a01b0316610b8e846103d0565b6001600160a01b031614949350505050565b826001600160a01b0316610bb382610601565b6001600160a01b031614610c175760405162461bcd60e51b815260206004820152602560248201527f4552433732313a207472616e736665722066726f6d20696e636f72726563742060448201526437bbb732b960d91b606482015260840161046c565b6001600160a01b038216610c795760405162461bcd60e51b8152602060048201526024808201527f4552433732313a207472616e7366657220746f20746865207a65726f206164646044820152637265737360e01b606482015260840161046c565b610c84600082610ab4565b6001600160a01b0383166000908152600360205260408120805460019290610cad908490612248565b90915550506001600160a01b0382166000908152600360205260408120805460019290610cdb9084906121fd565b909155505060008181526002602052604080822080546001600160a01b0319166001600160a01b0386811691821790925591518493918716917fddf252ad1be2c89b69c2b068fc378daa952ba7f163c4a11628f55a4df523b3ef91a4505050565b610ab181336110bc565b610d5082826106e7565b6105e25760008281526007602090815260408083206001600160a01b03851684529091529020805460ff19166001179055610d883390565b6001600160a01b0316816001600160a01b0316837f2f8788117e7eff1d82e926ec794901d17c78024a50270940304540a733656f0d60405160405180910390a45050565b610dd682826106e7565b156105e25760008281526007602090815260408083206001600160a01b0385168085529252808320805460ff1916905551339285917ff6391f5c32d9c69d2a47ea670b442974b53935d1edc7fd64eb21e047a839171b9190a45050565b816001600160a01b0316836001600160a01b03161415610e955760405162461bcd60e51b815260206004820152601960248201527f4552433732313a20617070726f766520746f2063616c6c657200000000000000604482015260640161046c565b6001600160a01b03838116600081815260056020908152604080832094871680845294825291829020805460ff191686151590811790915591519182527f17307eab39ab6107e8899845ad3d59bd9653f200f220920489ca2b5937696c31910160405180910390a3505050565b600080610f0e83611120565b9050610f5b81610f2160808601866121a2565b8080601f01602080910402602001604051908101604052809392919081815260200183838082843760009201919091525061121792505050565b9392505050565b6105e282826040518060200160405280600081525061123b565b6000828152600260205260409020546001600160a01b0316610ff75760405162461bcd60e51b815260206004820152602e60248201527f45524337323155524953746f726167653a2055524920736574206f66206e6f6e60448201526d32bc34b9ba32b73a103a37b5b2b760911b606482015260840161046c565b6000828152600660209081526040909120825161050d92840190611c62565b611021848484610ba0565b61102d8484848461126e565b6108a15760405162461bcd60e51b815260040161046c90612102565b606061105482610a52565b600061106b60408051602081019091526000815290565b9050600081511161108b5760405180602001604052806000815250610f5b565b806110958461137b565b6040516020016110a6929190611fbc565b6040516020818303038152906040529392505050565b6110c682826106e7565b6105e2576110de816001600160a01b03166014611495565b6110e9836020611495565b6040516020016110fa929190611feb565b60408051601f198184030181529082905262461bcd60e51b825261046c916004016120ef565b60006103387f4d7560ebefb734657581111aed746e079cf32db84a38b6f6cbe00228e01b803361115084806121e7565b60405161115e929190611fac565b60405190819003902061117460208601866121e7565b604051611182929190611fac565b604051809103902085806040019061119a91906121e7565b6040516111a8929190611fac565b6040519081900390206111be60608801886121e7565b6040516111cc929190611fac565b6040805191829003822060208301969096528101939093526060830191909152608082015260a081019190915260c00160405160208183030381529060405280519060200120611677565b600080600061122685856116c5565b915091506112338161170b565b509392505050565b611245838361190c565b611252600084848461126e565b61050d5760405162461bcd60e51b815260040161046c90612102565b60006001600160a01b0384163b1561137057604051630a85bd0160e11b81526001600160a01b0385169063150b7a02906112b29033908990889088906004016120b2565b602060405180830381600087803b1580156112cc57600080fd5b505af19250505080156112fc575060408051601f3d908101601f191682019092526112f991810190611f2c565b60015b611356573d80801561132a576040519150601f19603f3d011682016040523d82523d6000602084013e61132f565b606091505b50805161134e5760405162461bcd60e51b815260040161046c90612102565b805181602001fd5b6001600160e01b031916630a85bd0160e11b1490506109b0565b506001949350505050565b60608161139f5750506040805180820190915260018152600360fc1b602082015290565b8160005b81156113c957806113b3816122dd565b91506113c29050600a83612215565b91506113a3565b60008167ffffffffffffffff8111156113f257634e487b7160e01b600052604160045260246000fd5b6040519080825280601f01601f19166020018201604052801561141c576020820181803683370190505b5090505b84156109b057611431600183612248565b915061143e600a866122f8565b6114499060306121fd565b60f81b81838151811061146c57634e487b7160e01b600052603260045260246000fd5b60200101906001600160f81b031916908160001a90535061148e600a86612215565b9450611420565b606060006114a4836002612229565b6114af9060026121fd565b67ffffffffffffffff8111156114d557634e487b7160e01b600052604160045260246000fd5b6040519080825280601f01601f1916602001820160405280156114ff576020820181803683370190505b509050600360fc1b8160008151811061152857634e487b7160e01b600052603260045260246000fd5b60200101906001600160f81b031916908160001a905350600f60fb1b8160018151811061156557634e487b7160e01b600052603260045260246000fd5b60200101906001600160f81b031916908160001a9053506000611589846002612229565b6115949060016121fd565b90505b6001811115611628576f181899199a1a9b1b9c1cb0b131b232b360811b85600f16601081106115d657634e487b7160e01b600052603260045260246000fd5b1a60f81b8282815181106115fa57634e487b7160e01b600052603260045260246000fd5b60200101906001600160f81b031916908160001a90535060049490941c936116218161228b565b9050611597565b508315610f5b5760405162461bcd60e51b815260206004820181905260248201527f537472696e67733a20686578206c656e67746820696e73756666696369656e74604482015260640161046c565b6000610338611684611a4e565b8360405161190160f01b6020820152602281018390526042810182905260009060620160405160208183030381529060405280519060200120905092915050565b6000808251604114156116fc5760208301516040840151606085015160001a6116f087828585611b75565b94509450505050611704565b506000905060025b9250929050565b600081600481111561172d57634e487b7160e01b600052602160045260246000fd5b14156117365750565b600181600481111561175857634e487b7160e01b600052602160045260246000fd5b14156117a65760405162461bcd60e51b815260206004820152601860248201527f45434453413a20696e76616c6964207369676e61747572650000000000000000604482015260640161046c565b60028160048111156117c857634e487b7160e01b600052602160045260246000fd5b14156118165760405162461bcd60e51b815260206004820152601f60248201527f45434453413a20696e76616c6964207369676e6174757265206c656e67746800604482015260640161046c565b600381600481111561183857634e487b7160e01b600052602160045260246000fd5b14156118915760405162461bcd60e51b815260206004820152602260248201527f45434453413a20696e76616c6964207369676e6174757265202773272076616c604482015261756560f01b606482015260840161046c565b60048160048111156118b357634e487b7160e01b600052602160045260246000fd5b1415610ab15760405162461bcd60e51b815260206004820152602260248201527f45434453413a20696e76616c6964207369676e6174757265202776272076616c604482015261756560f01b606482015260840161046c565b6001600160a01b0382166119625760405162461bcd60e51b815260206004820181905260248201527f4552433732313a206d696e7420746f20746865207a65726f2061646472657373604482015260640161046c565b6000818152600260205260409020546001600160a01b0316156119c75760405162461bcd60e51b815260206004820152601c60248201527f4552433732313a20746f6b656e20616c7265616479206d696e74656400000000604482015260640161046c565b6001600160a01b03821660009081526003602052604081208054600192906119f09084906121fd565b909155505060008181526002602052604080822080546001600160a01b0319166001600160a01b03861690811790915590518392907fddf252ad1be2c89b69c2b068fc378daa952ba7f163c4a11628f55a4df523b3ef908290a45050565b6000306001600160a01b037f000000000000000000000000000000000000000000000000000000000000000016148015611aa757507f000000000000000000000000000000000000000000000000000000000000000046145b15611ad157507f000000000000000000000000000000000000000000000000000000000000000090565b50604080517f00000000000000000000000000000000000000000000000000000000000000006020808301919091527f0000000000000000000000000000000000000000000000000000000000000000828401527f000000000000000000000000000000000000000000000000000000000000000060608301524660808301523060a0808401919091528351808403909101815260c0909201909252805191012090565b6000807f7fffffffffffffffffffffffffffffff5d576e7357a4501ddfe92f46681b20a0831115611bac5750600090506003611c59565b8460ff16601b14158015611bc457508460ff16601c14155b15611bd55750600090506004611c59565b6040805160008082526020820180845289905260ff881692820192909252606081018690526080810185905260019060a0016020604051602081039080840390855afa158015611c29573d6000803e3d6000fd5b5050604051601f1901519150506001600160a01b038116611c5257600060019250925050611c59565b9150600090505b94509492505050565b828054611c6e906122a2565b90600052602060002090601f016020900481019282611c905760008555611cd6565b82601f10611ca957805160ff1916838001178555611cd6565b82800160010185558215611cd6579182015b82811115611cd6578251825591602001919060010190611cbb565b50611ce2929150611ce6565b5090565b5b80821115611ce25760008155600101611ce7565b80356001600160a01b0381168114611d1257600080fd5b919050565b600060208284031215611d28578081fd5b610f5b82611cfb565b60008060408385031215611d43578081fd5b611d4c83611cfb565b9150611d5a60208401611cfb565b90509250929050565b600080600060608486031215611d77578081fd5b611d8084611cfb565b9250611d8e60208501611cfb565b9150604084013590509250925092565b60008060008060808587031215611db3578081fd5b611dbc85611cfb565b9350611dca60208601611cfb565b925060408501359150606085013567ffffffffffffffff80821115611ded578283fd5b818701915087601f830112611e00578283fd5b813581811115611e1257611e12612338565b604051601f8201601f19908116603f01168101908382118183101715611e3a57611e3a612338565b816040528281528a6020848701011115611e52578586fd5b82602086016020830137918201602001949094529598949750929550505050565b60008060408385031215611e85578182fd5b611e8e83611cfb565b915060208301358015158114611ea2578182fd5b809150509250929050565b60008060408385031215611ebf578182fd5b611ec883611cfb565b946020939093013593505050565b600060208284031215611ee7578081fd5b5035919050565b60008060408385031215611f00578182fd5b82359150611d5a60208401611cfb565b600060208284031215611f21578081fd5b8135610f5b8161234e565b600060208284031215611f3d578081fd5b8151610f5b8161234e565b600060208284031215611f59578081fd5b813567ffffffffffffffff811115611f6f578182fd5b820160c08185031215610f5b578182fd5b60008151808452611f9881602086016020860161225f565b601f01601f19169290920160200192915050565b8183823760009101908152919050565b60008351611fce81846020880161225f565b835190830190611fe281836020880161225f565b01949350505050565b7f416363657373436f6e74726f6c3a206163636f756e742000000000000000000081526000835161202381601785016020880161225f565b7001034b99036b4b9b9b4b733903937b6329607d1b601791840191820152835161205481602884016020880161225f565b01602801949350505050565b6001600160a01b0386811682528516602082015260806040820181905281018390526000838560a08401378060a0858401015260a0601f19601f86011683010190508260608301529695505050505050565b6001600160a01b03858116825284166020820152604081018390526080606082018190526000906120e590830184611f80565b9695505050505050565b602081526000610f5b6020830184611f80565b60208082526032908201527f4552433732313a207472616e7366657220746f206e6f6e20455243373231526560408201527131b2b4bb32b91034b6b83632b6b2b73a32b960711b606082015260800190565b6020808252602e908201527f4552433732313a2063616c6c6572206973206e6f7420746f6b656e206f776e6560408201526d1c881b9bdc88185c1c1c9bdd995960921b606082015260800190565b6000808335601e198436030181126121b8578283fd5b83018035915067ffffffffffffffff8211156121d2578283fd5b60200191503681900382131561170457600080fd5b6000808335601e198436030181126121b8578182fd5b600082198211156122105761221061230c565b500190565b60008261222457612224612322565b500490565b60008160001904831182151516156122435761224361230c565b500290565b60008282101561225a5761225a61230c565b500390565b60005b8381101561227a578181015183820152602001612262565b838111156108a15750506000910152565b60008161229a5761229a61230c565b506000190190565b600181811c908216806122b657607f821691505b602082108114156122d757634e487b7160e01b600052602260045260246000fd5b50919050565b60006000198214156122f1576122f161230c565b5060010190565b60008261230757612307612322565b500690565b634e487b7160e01b600052601160045260246000fd5b634e487b7160e01b600052601260045260246000fd5b634e487b7160e01b600052604160045260246000fd5b6001600160e01b031981168114610ab157600080fdfea264697066735822122073d8c96cb9098f3d46cf58a456075773687c42d21518f7c96c2d10bc30bb37f664736f6c63430008040033",
  "linkReferences": {},
  "deployedLinkReferences": {}
}