{
  "_format": "hh-sol-artifact-1",
  "contractName": "LazyMinting",
  "sourceName": "src/backend/contracts/LazyMinting.sol",
  "abi": [
    {
      "inputs": [],
      "stateMutability": "nonpayable",
      "type": "constructor"
    },
    {
      "anonymous": false,
      "inputs": [
        {
          "indexed": true,
          "internalType": "address",
          "name": "owner",
          "type": "address"
        },
        {
          "indexed": true,
          "internalType": "address",
          "name": "approved",
          "type": "address"
        },
        {
          "indexed": true,
          "internalType": "uint256",
          "name": "tokenId",
          "type": "uint256"
        }
      ],
      "name": "Approval",
      "type": "event"
    },
    {
      "anonymous": false,
      "inputs": [
        {
          "indexed": true,
          "internalType": "address",
          "name": "owner",
          "type": "address"
        },
        {
          "indexed": true,
          "internalType": "address",
          "name": "operator",
          "type": "address"
        },
        {
          "indexed": false,
          "internalType": "bool",
          "name": "approved",
          "type": "bool"
        }
      ],
      "name": "ApprovalForAll",
      "type": "event"
    },
    {
      "anonymous": false,
      "inputs": [
        {
          "indexed": true,
          "internalType": "bytes32",
          "name": "role",
          "type": "bytes32"
        },
        {
          "indexed": true,
          "internalType": "bytes32",
          "name": "previousAdminRole",
          "type": "bytes32"
        },
        {
          "indexed": true,
          "internalType": "bytes32",
          "name": "newAdminRole",
          "type": "bytes32"
        }
      ],
      "name": "RoleAdminChanged",
      "type": "event"
    },
    {
      "anonymous": false,
      "inputs": [
        {
          "indexed": true,
          "internalType": "bytes32",
          "name": "role",
          "type": "bytes32"
        },
        {
          "indexed": true,
          "internalType": "address",
          "name": "account",
          "type": "address"
        },
        {
          "indexed": true,
          "internalType": "address",
          "name": "sender",
          "type": "address"
        }
      ],
      "name": "RoleGranted",
      "type": "event"
    },
    {
      "anonymous": false,
      "inputs": [
        {
          "indexed": true,
          "internalType": "bytes32",
          "name": "role",
          "type": "bytes32"
        },
        {
          "indexed": true,
          "internalType": "address",
          "name": "account",
          "type": "address"
        },
        {
          "indexed": true,
          "internalType": "address",
          "name": "sender",
          "type": "address"
        }
      ],
      "name": "RoleRevoked",
      "type": "event"
    },
    {
      "anonymous": false,
      "inputs": [
        {
          "indexed": true,
          "internalType": "address",
          "name": "from",
          "type": "address"
        },
        {
          "indexed": true,
          "internalType": "address",
          "name": "to",
          "type": "address"
        },
        {
          "indexed": true,
          "internalType": "uint256",
          "name": "tokenId",
          "type": "uint256"
        }
      ],
      "name": "Transfer",
      "type": "event"
    },
    {
      "anonymous": false,
      "inputs": [
        {
          "indexed": false,
          "internalType": "address",
          "name": "signer",
          "type": "address"
        },
        {
          "indexed": false,
          "internalType": "address",
          "name": "minter",
          "type": "address"
        },
        {
          "indexed": false,
          "internalType": "string",
          "name": "uri",
          "type": "string"
        },
        {
          "indexed": false,
          "internalType": "uint256",
          "name": "tokenId",
          "type": "uint256"
        }
      ],
      "name": "handleLazyMint",
      "type": "event"
    },
    {
      "inputs": [],
      "name": "DEFAULT_ADMIN_ROLE",
      "outputs": [
        {
          "internalType": "bytes32",
          "name": "",
          "type": "bytes32"
        }
      ],
      "stateMutability": "view",
      "type": "function"
    },
    {
      "inputs": [
        {
          "internalType": "address",
          "name": "to",
          "type": "address"
        },
        {
          "internalType": "uint256",
          "name": "tokenId",
          "type": "uint256"
        }
      ],
      "name": "approve",
      "outputs": [],
      "stateMutability": "nonpayable",
      "type": "function"
    },
    {
      "inputs": [
        {
          "internalType": "address",
          "name": "owner",
          "type": "address"
        }
      ],
      "name": "balanceOf",
      "outputs": [
        {
          "internalType": "uint256",
          "name": "",
          "type": "uint256"
        }
      ],
      "stateMutability": "view",
      "type": "function"
    },
    {
      "inputs": [
        {
          "internalType": "uint256",
          "name": "tokenId",
          "type": "uint256"
        }
      ],
      "name": "getApproved",
      "outputs": [
        {
          "internalType": "address",
          "name": "",
          "type": "address"
        }
      ],
      "stateMutability": "view",
      "type": "function"
    },
    {
      "inputs": [
        {
          "internalType": "bytes32",
          "name": "role",
          "type": "bytes32"
        }
      ],
      "name": "getRoleAdmin",
      "outputs": [
        {
          "internalType": "bytes32",
          "name": "",
          "type": "bytes32"
        }
      ],
      "stateMutability": "view",
      "type": "function"
    },
    {
      "inputs": [
        {
          "internalType": "bytes32",
          "name": "role",
          "type": "bytes32"
        },
        {
          "internalType": "address",
          "name": "account",
          "type": "address"
        }
      ],
      "name": "grantRole",
      "outputs": [],
      "stateMutability": "nonpayable",
      "type": "function"
    },
    {
      "inputs": [
        {
          "internalType": "bytes32",
          "name": "role",
          "type": "bytes32"
        },
        {
          "internalType": "address",
          "name": "account",
          "type": "address"
        }
      ],
      "name": "hasRole",
      "outputs": [
        {
          "internalType": "bool",
          "name": "",
          "type": "bool"
        }
      ],
      "stateMutability": "view",
      "type": "function"
    },
    {
      "inputs": [
        {
          "internalType": "address",
          "name": "owner",
          "type": "address"
        },
        {
          "internalType": "address",
          "name": "operator",
          "type": "address"
        }
      ],
      "name": "isApprovedForAll",
      "outputs": [
        {
          "internalType": "bool",
          "name": "",
          "type": "bool"
        }
      ],
      "stateMutability": "view",
      "type": "function"
    },
    {
      "inputs": [
        {
          "components": [
            {
              "internalType": "address",
              "name": "signerAddress",
              "type": "address"
            },
            {
              "internalType": "string",
              "name": "title",
              "type": "string"
            },
            {
              "internalType": "string",
              "name": "description",
              "type": "string"
            },
            {
              "internalType": "string",
              "name": "userId",
              "type": "string"
            },
            {
              "internalType": "string",
              "name": "uri",
              "type": "string"
            },
            {
              "internalType": "bytes",
              "name": "signature",
              "type": "bytes"
            }
          ],
          "internalType": "struct LazyMinting.NFTVoucher",
          "name": "voucher",
          "type": "tuple"
        }
      ],
      "name": "lazyMint",
      "outputs": [
        {
          "internalType": "uint256",
          "name": "",
          "type": "uint256"
        }
      ],
      "stateMutability": "nonpayable",
      "type": "function"
    },
    {
      "inputs": [],
      "name": "name",
      "outputs": [
        {
          "internalType": "string",
          "name": "",
          "type": "string"
        }
      ],
      "stateMutability": "view",
      "type": "function"
    },
    {
      "inputs": [
        {
          "internalType": "uint256",
          "name": "tokenId",
          "type": "uint256"
        }
      ],
      "name": "ownerOf",
      "outputs": [
        {
          "internalType": "address",
          "name": "",
          "type": "address"
        }
      ],
      "stateMutability": "view",
      "type": "function"
    },
    {
      "inputs": [
        {
          "internalType": "bytes32",
          "name": "role",
          "type": "bytes32"
        },
        {
          "internalType": "address",
          "name": "account",
          "type": "address"
        }
      ],
      "name": "renounceRole",
      "outputs": [],
      "stateMutability": "nonpayable",
      "type": "function"
    },
    {
      "inputs": [
        {
          "internalType": "bytes32",
          "name": "role",
          "type": "bytes32"
        },
        {
          "internalType": "address",
          "name": "account",
          "type": "address"
        }
      ],
      "name": "revokeRole",
      "outputs": [],
      "stateMutability": "nonpayable",
      "type": "function"
    },
    {
      "inputs": [
        {
          "internalType": "address",
          "name": "from",
          "type": "address"
        },
        {
          "internalType": "address",
          "name": "to",
          "type": "address"
        },
        {
          "internalType": "uint256",
          "name": "tokenId",
          "type": "uint256"
        }
      ],
      "name": "safeTransferFrom",
      "outputs": [],
      "stateMutability": "nonpayable",
      "type": "function"
    },
    {
      "inputs": [
        {
          "internalType": "address",
          "name": "from",
          "type": "address"
        },
        {
          "internalType": "address",
          "name": "to",
          "type": "address"
        },
        {
          "internalType": "uint256",
          "name": "tokenId",
          "type": "uint256"
        },
        {
          "internalType": "bytes",
          "name": "data",
          "type": "bytes"
        }
      ],
      "name": "safeTransferFrom",
      "outputs": [],
      "stateMutability": "nonpayable",
      "type": "function"
    },
    {
      "inputs": [
        {
          "internalType": "address",
          "name": "operator",
          "type": "address"
        },
        {
          "internalType": "bool",
          "name": "approved",
          "type": "bool"
        }
      ],
      "name": "setApprovalForAll",
      "outputs": [],
      "stateMutability": "nonpayable",
      "type": "function"
    },
    {
      "inputs": [
        {
          "internalType": "bytes4",
          "name": "interfaceId",
          "type": "bytes4"
        }
      ],
      "name": "supportsInterface",
      "outputs": [
        {
          "internalType": "bool",
          "name": "",
          "type": "bool"
        }
      ],
      "stateMutability": "view",
      "type": "function"
    },
    {
      "inputs": [],
      "name": "symbol",
      "outputs": [
        {
          "internalType": "string",
          "name": "",
          "type": "string"
        }
      ],
      "stateMutability": "view",
      "type": "function"
    },
    {
      "inputs": [
        {
          "internalType": "uint256",
          "name": "tokenId",
          "type": "uint256"
        }
      ],
      "name": "tokenURI",
      "outputs": [
        {
          "internalType": "string",
          "name": "",
          "type": "string"
        }
      ],
      "stateMutability": "view",
      "type": "function"
    },
    {
      "inputs": [],
      "name": "totalSupply",
      "outputs": [
        {
          "internalType": "uint256",
          "name": "",
          "type": "uint256"
        }
      ],
      "stateMutability": "view",
      "type": "function"
    },
    {
      "inputs": [
        {
          "internalType": "address",
          "name": "from",
          "type": "address"
        },
        {
          "internalType": "address",
          "name": "to",
          "type": "address"
        },
        {
          "internalType": "uint256",
          "name": "tokenId",
          "type": "uint256"
        }
      ],
      "name": "transferFrom",
      "outputs": [],
      "stateMutability": "nonpayable",
      "type": "function"
    }
  ],
  "bytecode": "0x6101406040523480156200001257600080fd5b506040518060400160405280601081526020016f2630bd3ca6b4b73a16ab37bab1b432b960811b815250604051806040016040528060018152602001603160f81b8152506040518060400160405280600881526020016713185e9e535a5b9d60c21b815250604051806040016040528060048152602001631313539560e21b8152508160009080519060200190620000ac92919062000160565b508051620000c290600190602084019062000160565b5050825160208085019190912083518483012060e08290526101008190524660a0818152604080517f8b73c3c69bb8fe3d512ecc4cf759cc79239f7b179b0ffacaa9a75d522b39400f81880181905281830187905260608201869052608082019490945230818401528151808203909301835260c0019052805194019390932091935091906080523060601b60c05261012052506200024392505050565b8280546200016e9062000206565b90600052602060002090601f016020900481019282620001925760008555620001dd565b82601f10620001ad57805160ff1916838001178555620001dd565b82800160010185558215620001dd579182015b82811115620001dd578251825591602001919060010190620001c0565b50620001eb929150620001ef565b5090565b5b80821115620001eb5760008155600101620001f0565b600181811c908216806200021b57607f821691505b602082108114156200023d57634e487b7160e01b600052602260045260246000fd5b50919050565b60805160a05160c05160601c60e05161010051610120516123ba620002966000396000611af801526000611b4701526000611b2201526000611a7b01526000611aa501526000611acf01526123ba6000f3fe608060405234801561001057600080fd5b50600436106101375760003560e01c80634a6287eb116100b8578063a217fddf1161007c578063a217fddf1461028e578063a22cb46514610296578063b88d4fde146102a9578063c87b56dd146102bc578063d547741f146102cf578063e985e9c5146102e257600080fd5b80634a6287eb1461023a5780636352211e1461024d57806370a082311461026057806391d148541461027357806395d89b411461028657600080fd5b806323b872dd116100ff57806323b872dd146101cb578063248a9ca3146101de5780632f2ff15d1461020157806336568abe1461021457806342842e0e1461022757600080fd5b806301ffc9a71461013c57806306fdde0314610164578063081812fc14610179578063095ea7b3146101a457806318160ddd146101b9575b600080fd5b61014f61014a366004611f30565b61031e565b60405190151581526020015b60405180910390f35b61016c61033e565b60405161015b919061210f565b61018c610187366004611ef6565b6103d0565b6040516001600160a01b03909116815260200161015b565b6101b76101b2366004611ecd565b6103f7565b005b6008545b60405190815260200161015b565b6101b76101d9366004611d83565b610512565b6101bd6101ec366004611ef6565b60009081526007602052604090206001015490565b6101b761020f366004611f0e565b610543565b6101b7610222366004611f0e565b610568565b6101b7610235366004611d83565b6105e6565b6101bd610248366004611f68565b610601565b61018c61025b366004611ef6565b61073e565b6101bd61026e366004611d37565b61079e565b61014f610281366004611f0e565b610824565b61016c61084f565b6101bd600081565b6101b76102a4366004611e93565b61085e565b6101b76102b7366004611dbe565b610869565b61016c6102ca366004611ef6565b6108a1565b6101b76102dd366004611f0e565b6109b2565b61014f6102f0366004611d51565b6001600160a01b03918216600090815260056020908152604080832093909416825291909152205460ff1690565b6000610329826109d7565b80610338575061033882610a27565b92915050565b60606000805461034d906122c2565b80601f0160208091040260200160405190810160405280929190818152602001828054610379906122c2565b80156103c65780601f1061039b576101008083540402835291602001916103c6565b820191906000526020600020905b8154815290600101906020018083116103a957829003601f168201915b5050505050905090565b60006103db82610a4c565b506000908152600460205260409020546001600160a01b031690565b60006104028261073e565b9050806001600160a01b0316836001600160a01b031614156104755760405162461bcd60e51b815260206004820152602160248201527f4552433732313a20617070726f76616c20746f2063757272656e74206f776e656044820152603960f91b60648201526084015b60405180910390fd5b336001600160a01b0382161480610491575061049181336102f0565b6105035760405162461bcd60e51b815260206004820152603e60248201527f4552433732313a20617070726f76652063616c6c6572206973206e6f7420746f60448201527f6b656e206f776e6572206e6f7220617070726f76656420666f7220616c6c0000606482015260840161046c565b61050d8383610aae565b505050565b61051c3382610b1c565b6105385760405162461bcd60e51b815260040161046c90612174565b61050d838383610b9a565b60008281526007602052604090206001015461055e81610d36565b61050d8383610d40565b6001600160a01b03811633146105d85760405162461bcd60e51b815260206004820152602f60248201527f416363657373436f6e74726f6c3a2063616e206f6e6c792072656e6f756e636560448201526e103937b632b9903337b91039b2b63360891b606482015260840161046c565b6105e28282610dc6565b5050565b61050d83838360405180602001604052806000815250610869565b60008061060d83610e2d565b90506001600160a01b0381166106266020850185611d37565b6001600160a01b03161461066d5760405162461bcd60e51b815260206004820152600e60248201526d11985a5b1959081d1bc81b5a5b9d60921b604482015260640161046c565b6008805490600061067d836122fd565b919050555061068e33600854610e8d565b6008546106dc906106a26080860186612207565b8080601f016020809104026020016040519081016040528093929190818152602001838380828437600092019190915250610ea792505050565b7f22a703ecacac15a8221e7c517c83bb6fc160ec72b6303d7031d51aaaec517af661070a6020850185611d37565b336107186080870187612207565b60085460405161072c959493929190612080565b60405180910390a15050600854919050565b6000818152600260205260408120546001600160a01b0316806103385760405162461bcd60e51b8152602060048201526018602482015277115490cdcc8c4e881a5b9d985b1a59081d1bdad95b88125160421b604482015260640161046c565b60006001600160a01b0382166108085760405162461bcd60e51b815260206004820152602960248201527f4552433732313a2061646472657373207a65726f206973206e6f7420612076616044820152683634b21037bbb732b960b91b606482015260840161046c565b506001600160a01b031660009081526003602052604090205490565b60009182526007602090815260408084206001600160a01b0393909316845291905290205460ff1690565b60606001805461034d906122c2565b6105e2338383610f41565b6108733383610b1c565b61088f5760405162461bcd60e51b815260040161046c90612174565b61089b84848484611010565b50505050565b60606108ac82610a4c565b600082815260066020526040812080546108c5906122c2565b80601f01602080910402602001604051908101604052809291908181526020018280546108f1906122c2565b801561093e5780601f106109135761010080835404028352916020019161093e565b820191906000526020600020905b81548152906001019060200180831161092157829003601f168201915b50505050509050600061095c60408051602081019091526000815290565b905080516000141561096f575092915050565b8151156109a1578082604051602001610989929190611fdc565b60405160208183030381529060405292505050919050565b6109aa84611043565b949350505050565b6000828152600760205260409020600101546109cd81610d36565b61050d8383610dc6565b60006001600160e01b031982166380ac58cd60e01b1480610a0857506001600160e01b03198216635b5e139f60e01b145b8061033857506301ffc9a760e01b6001600160e01b0319831614610338565b60006001600160e01b03198216637965db0b60e01b14806103385750610338826109d7565b6000818152600260205260409020546001600160a01b0316610aab5760405162461bcd60e51b8152602060048201526018602482015277115490cdcc8c4e881a5b9d985b1a59081d1bdad95b88125160421b604482015260640161046c565b50565b600081815260046020526040902080546001600160a01b0319166001600160a01b0384169081179091558190610ae38261073e565b6001600160a01b03167f8c5be1e5ebec7d5bd14f71427d1e84f3dd0314c0f7b2291e5b200ac8c7c3b92560405160405180910390a45050565b600080610b288361073e565b9050806001600160a01b0316846001600160a01b03161480610b6f57506001600160a01b0380821660009081526005602090815260408083209388168352929052205460ff165b806109aa5750836001600160a01b0316610b88846103d0565b6001600160a01b031614949350505050565b826001600160a01b0316610bad8261073e565b6001600160a01b031614610c115760405162461bcd60e51b815260206004820152602560248201527f4552433732313a207472616e736665722066726f6d20696e636f72726563742060448201526437bbb732b960d91b606482015260840161046c565b6001600160a01b038216610c735760405162461bcd60e51b8152602060048201526024808201527f4552433732313a207472616e7366657220746f20746865207a65726f206164646044820152637265737360e01b606482015260840161046c565b610c7e600082610aae565b6001600160a01b0383166000908152600360205260408120805460019290610ca7908490612268565b90915550506001600160a01b0382166000908152600360205260408120805460019290610cd590849061221d565b909155505060008181526002602052604080822080546001600160a01b0319166001600160a01b0386811691821790925591518493918716917fddf252ad1be2c89b69c2b068fc378daa952ba7f163c4a11628f55a4df523b3ef91a4505050565b610aab81336110b6565b610d4a8282610824565b6105e25760008281526007602090815260408083206001600160a01b03851684529091529020805460ff19166001179055610d823390565b6001600160a01b0316816001600160a01b0316837f2f8788117e7eff1d82e926ec794901d17c78024a50270940304540a733656f0d60405160405180910390a45050565b610dd08282610824565b156105e25760008281526007602090815260408083206001600160a01b0385168085529252808320805460ff1916905551339285917ff6391f5c32d9c69d2a47ea670b442974b53935d1edc7fd64eb21e047a839171b9190a45050565b600080610e398361111a565b9050610e8681610e4c60a08601866121c2565b8080601f01602080910402602001604051908101604052809392919081815260200183838082843760009201919091525061123792505050565b9392505050565b6105e282826040518060200160405280600081525061125b565b6000828152600260205260409020546001600160a01b0316610f225760405162461bcd60e51b815260206004820152602e60248201527f45524337323155524953746f726167653a2055524920736574206f66206e6f6e60448201526d32bc34b9ba32b73a103a37b5b2b760911b606482015260840161046c565b6000828152600660209081526040909120825161050d92840190611c82565b816001600160a01b0316836001600160a01b03161415610fa35760405162461bcd60e51b815260206004820152601960248201527f4552433732313a20617070726f766520746f2063616c6c657200000000000000604482015260640161046c565b6001600160a01b03838116600081815260056020908152604080832094871680845294825291829020805460ff191686151590811790915591519182527f17307eab39ab6107e8899845ad3d59bd9653f200f220920489ca2b5937696c31910160405180910390a3505050565b61101b848484610b9a565b6110278484848461128e565b61089b5760405162461bcd60e51b815260040161046c90612122565b606061104e82610a4c565b600061106560408051602081019091526000815290565b905060008151116110855760405180602001604052806000815250610e86565b8061108f8461139b565b6040516020016110a0929190611fdc565b6040516020818303038152906040529392505050565b6110c08282610824565b6105e2576110d8816001600160a01b031660146114b5565b6110e38360206114b5565b6040516020016110f492919061200b565b60408051601f198184030181529082905262461bcd60e51b825261046c9160040161210f565b60006103387fc8966dd423f960537cf63f7f52f4585c38ded91a667f64d1f754f41dba60307661114d6020850185611d37565b61115a6020860186612207565b604051611168929190611fcc565b60405180910390208580604001906111809190612207565b60405161118e929190611fcc565b6040519081900390206111a46060880188612207565b6040516111b2929190611fcc565b6040519081900390206111c86080890189612207565b6040516111d6929190611fcc565b60405190819003812061121c9695949392916020019586526001600160a01b0394909416602086015260408501929092526060840152608083015260a082015260c00190565b60405160208183030381529060405280519060200120611697565b600080600061124685856116e5565b915091506112538161172b565b509392505050565b611265838361192c565b611272600084848461128e565b61050d5760405162461bcd60e51b815260040161046c90612122565b60006001600160a01b0384163b1561139057604051630a85bd0160e11b81526001600160a01b0385169063150b7a02906112d29033908990889088906004016120d2565b602060405180830381600087803b1580156112ec57600080fd5b505af192505050801561131c575060408051601f3d908101601f1916820190925261131991810190611f4c565b60015b611376573d80801561134a576040519150601f19603f3d011682016040523d82523d6000602084013e61134f565b606091505b50805161136e5760405162461bcd60e51b815260040161046c90612122565b805181602001fd5b6001600160e01b031916630a85bd0160e11b1490506109aa565b506001949350505050565b6060816113bf5750506040805180820190915260018152600360fc1b602082015290565b8160005b81156113e957806113d3816122fd565b91506113e29050600a83612235565b91506113c3565b60008167ffffffffffffffff81111561141257634e487b7160e01b600052604160045260246000fd5b6040519080825280601f01601f19166020018201604052801561143c576020820181803683370190505b5090505b84156109aa57611451600183612268565b915061145e600a86612318565b61146990603061221d565b60f81b81838151811061148c57634e487b7160e01b600052603260045260246000fd5b60200101906001600160f81b031916908160001a9053506114ae600a86612235565b9450611440565b606060006114c4836002612249565b6114cf90600261221d565b67ffffffffffffffff8111156114f557634e487b7160e01b600052604160045260246000fd5b6040519080825280601f01601f19166020018201604052801561151f576020820181803683370190505b509050600360fc1b8160008151811061154857634e487b7160e01b600052603260045260246000fd5b60200101906001600160f81b031916908160001a905350600f60fb1b8160018151811061158557634e487b7160e01b600052603260045260246000fd5b60200101906001600160f81b031916908160001a90535060006115a9846002612249565b6115b490600161221d565b90505b6001811115611648576f181899199a1a9b1b9c1cb0b131b232b360811b85600f16601081106115f657634e487b7160e01b600052603260045260246000fd5b1a60f81b82828151811061161a57634e487b7160e01b600052603260045260246000fd5b60200101906001600160f81b031916908160001a90535060049490941c93611641816122ab565b90506115b7565b508315610e865760405162461bcd60e51b815260206004820181905260248201527f537472696e67733a20686578206c656e67746820696e73756666696369656e74604482015260640161046c565b60006103386116a4611a6e565b8360405161190160f01b6020820152602281018390526042810182905260009060620160405160208183030381529060405280519060200120905092915050565b60008082516041141561171c5760208301516040840151606085015160001a61171087828585611b95565b94509450505050611724565b506000905060025b9250929050565b600081600481111561174d57634e487b7160e01b600052602160045260246000fd5b14156117565750565b600181600481111561177857634e487b7160e01b600052602160045260246000fd5b14156117c65760405162461bcd60e51b815260206004820152601860248201527f45434453413a20696e76616c6964207369676e61747572650000000000000000604482015260640161046c565b60028160048111156117e857634e487b7160e01b600052602160045260246000fd5b14156118365760405162461bcd60e51b815260206004820152601f60248201527f45434453413a20696e76616c6964207369676e6174757265206c656e67746800604482015260640161046c565b600381600481111561185857634e487b7160e01b600052602160045260246000fd5b14156118b15760405162461bcd60e51b815260206004820152602260248201527f45434453413a20696e76616c6964207369676e6174757265202773272076616c604482015261756560f01b606482015260840161046c565b60048160048111156118d357634e487b7160e01b600052602160045260246000fd5b1415610aab5760405162461bcd60e51b815260206004820152602260248201527f45434453413a20696e76616c6964207369676e6174757265202776272076616c604482015261756560f01b606482015260840161046c565b6001600160a01b0382166119825760405162461bcd60e51b815260206004820181905260248201527f4552433732313a206d696e7420746f20746865207a65726f2061646472657373604482015260640161046c565b6000818152600260205260409020546001600160a01b0316156119e75760405162461bcd60e51b815260206004820152601c60248201527f4552433732313a20746f6b656e20616c7265616479206d696e74656400000000604482015260640161046c565b6001600160a01b0382166000908152600360205260408120805460019290611a1090849061221d565b909155505060008181526002602052604080822080546001600160a01b0319166001600160a01b03861690811790915590518392907fddf252ad1be2c89b69c2b068fc378daa952ba7f163c4a11628f55a4df523b3ef908290a45050565b6000306001600160a01b037f000000000000000000000000000000000000000000000000000000000000000016148015611ac757507f000000000000000000000000000000000000000000000000000000000000000046145b15611af157507f000000000000000000000000000000000000000000000000000000000000000090565b50604080517f00000000000000000000000000000000000000000000000000000000000000006020808301919091527f0000000000000000000000000000000000000000000000000000000000000000828401527f000000000000000000000000000000000000000000000000000000000000000060608301524660808301523060a0808401919091528351808403909101815260c0909201909252805191012090565b6000807f7fffffffffffffffffffffffffffffff5d576e7357a4501ddfe92f46681b20a0831115611bcc5750600090506003611c79565b8460ff16601b14158015611be457508460ff16601c14155b15611bf55750600090506004611c79565b6040805160008082526020820180845289905260ff881692820192909252606081018690526080810185905260019060a0016020604051602081039080840390855afa158015611c49573d6000803e3d6000fd5b5050604051601f1901519150506001600160a01b038116611c7257600060019250925050611c79565b9150600090505b94509492505050565b828054611c8e906122c2565b90600052602060002090601f016020900481019282611cb05760008555611cf6565b82601f10611cc957805160ff1916838001178555611cf6565b82800160010185558215611cf6579182015b82811115611cf6578251825591602001919060010190611cdb565b50611d02929150611d06565b5090565b5b80821115611d025760008155600101611d07565b80356001600160a01b0381168114611d3257600080fd5b919050565b600060208284031215611d48578081fd5b610e8682611d1b565b60008060408385031215611d63578081fd5b611d6c83611d1b565b9150611d7a60208401611d1b565b90509250929050565b600080600060608486031215611d97578081fd5b611da084611d1b565b9250611dae60208501611d1b565b9150604084013590509250925092565b60008060008060808587031215611dd3578081fd5b611ddc85611d1b565b9350611dea60208601611d1b565b925060408501359150606085013567ffffffffffffffff80821115611e0d578283fd5b818701915087601f830112611e20578283fd5b813581811115611e3257611e32612358565b604051601f8201601f19908116603f01168101908382118183101715611e5a57611e5a612358565b816040528281528a6020848701011115611e72578586fd5b82602086016020830137918201602001949094529598949750929550505050565b60008060408385031215611ea5578182fd5b611eae83611d1b565b915060208301358015158114611ec2578182fd5b809150509250929050565b60008060408385031215611edf578182fd5b611ee883611d1b565b946020939093013593505050565b600060208284031215611f07578081fd5b5035919050565b60008060408385031215611f20578182fd5b82359150611d7a60208401611d1b565b600060208284031215611f41578081fd5b8135610e868161236e565b600060208284031215611f5d578081fd5b8151610e868161236e565b600060208284031215611f79578081fd5b813567ffffffffffffffff811115611f8f578182fd5b820160c08185031215610e86578182fd5b60008151808452611fb881602086016020860161227f565b601f01601f19169290920160200192915050565b8183823760009101908152919050565b60008351611fee81846020880161227f565b83519083019061200281836020880161227f565b01949350505050565b7f416363657373436f6e74726f6c3a206163636f756e742000000000000000000081526000835161204381601785016020880161227f565b7001034b99036b4b9b9b4b733903937b6329607d1b601791840191820152835161207481602884016020880161227f565b01602801949350505050565b6001600160a01b0386811682528516602082015260806040820181905281018390526000838560a08401378060a0858401015260a0601f19601f86011683010190508260608301529695505050505050565b6001600160a01b038581168252841660208201526040810183905260806060820181905260009061210590830184611fa0565b9695505050505050565b602081526000610e866020830184611fa0565b60208082526032908201527f4552433732313a207472616e7366657220746f206e6f6e20455243373231526560408201527131b2b4bb32b91034b6b83632b6b2b73a32b960711b606082015260800190565b6020808252602e908201527f4552433732313a2063616c6c6572206973206e6f7420746f6b656e206f776e6560408201526d1c881b9bdc88185c1c1c9bdd995960921b606082015260800190565b6000808335601e198436030181126121d8578283fd5b83018035915067ffffffffffffffff8211156121f2578283fd5b60200191503681900382131561172457600080fd5b6000808335601e198436030181126121d8578182fd5b600082198211156122305761223061232c565b500190565b60008261224457612244612342565b500490565b60008160001904831182151516156122635761226361232c565b500290565b60008282101561227a5761227a61232c565b500390565b60005b8381101561229a578181015183820152602001612282565b8381111561089b5750506000910152565b6000816122ba576122ba61232c565b506000190190565b600181811c908216806122d657607f821691505b602082108114156122f757634e487b7160e01b600052602260045260246000fd5b50919050565b60006000198214156123115761231161232c565b5060010190565b60008261232757612327612342565b500690565b634e487b7160e01b600052601160045260246000fd5b634e487b7160e01b600052601260045260246000fd5b634e487b7160e01b600052604160045260246000fd5b6001600160e01b031981168114610aab57600080fdfea264697066735822122005b4ef8f8df5a2508bfe3aa7bee2ea86b9efd86267ea7a2862c86efe3f1690a464736f6c63430008040033",
  "linkReferences": {},
  "deployedLinkReferences": {}
}