{
  "_format": "hh-sol-artifact-1",
  "contractName": "KwikTrustMarketplace",
  "sourceName": "src/backend/contracts/KwikTrustMarketplace.sol",
  "abi": [
    {
      "inputs": [],
      "stateMutability": "nonpayable",
      "type": "constructor"
    },
    {
      "anonymous": false,
      "inputs": [
        {
          "indexed": false,
          "internalType": "uint256",
          "name": "itemId",
          "type": "uint256"
        },
        {
          "indexed": false,
          "internalType": "uint256",
          "name": "tokenId",
          "type": "uint256"
        },
        {
          "indexed": false,
          "internalType": "address",
          "name": "tokenAddress",
          "type": "address"
        },
        {
          "indexed": false,
          "internalType": "uint256",
          "name": "price",
          "type": "uint256"
        },
        {
          "indexed": true,
          "internalType": "address",
          "name": "seller",
          "type": "address"
        },
        {
          "indexed": true,
          "internalType": "address",
          "name": "buyer",
          "type": "address"
        }
      ],
      "name": "Bought",
      "type": "event"
    },
    {
      "anonymous": false,
      "inputs": [
        {
          "indexed": true,
          "internalType": "bytes32",
          "name": "role",
          "type": "bytes32"
        },
        {
          "indexed": true,
          "internalType": "bytes32",
          "name": "previousAdminRole",
          "type": "bytes32"
        },
        {
          "indexed": true,
          "internalType": "bytes32",
          "name": "newAdminRole",
          "type": "bytes32"
        }
      ],
      "name": "RoleAdminChanged",
      "type": "event"
    },
    {
      "anonymous": false,
      "inputs": [
        {
          "indexed": true,
          "internalType": "bytes32",
          "name": "role",
          "type": "bytes32"
        },
        {
          "indexed": true,
          "internalType": "address",
          "name": "account",
          "type": "address"
        },
        {
          "indexed": true,
          "internalType": "address",
          "name": "sender",
          "type": "address"
        }
      ],
      "name": "RoleGranted",
      "type": "event"
    },
    {
      "anonymous": false,
      "inputs": [
        {
          "indexed": true,
          "internalType": "bytes32",
          "name": "role",
          "type": "bytes32"
        },
        {
          "indexed": true,
          "internalType": "address",
          "name": "account",
          "type": "address"
        },
        {
          "indexed": true,
          "internalType": "address",
          "name": "sender",
          "type": "address"
        }
      ],
      "name": "RoleRevoked",
      "type": "event"
    },
    {
      "anonymous": false,
      "inputs": [
        {
          "indexed": false,
          "internalType": "uint256",
          "name": "id",
          "type": "uint256"
        },
        {
          "indexed": false,
          "internalType": "address",
          "name": "buyer",
          "type": "address"
        },
        {
          "indexed": false,
          "internalType": "uint256",
          "name": "askingPrice",
          "type": "uint256"
        }
      ],
      "name": "bidClaimed",
      "type": "event"
    },
    {
      "anonymous": false,
      "inputs": [
        {
          "indexed": false,
          "internalType": "address",
          "name": "_to",
          "type": "address"
        },
        {
          "indexed": false,
          "internalType": "uint256",
          "name": "_tokenId",
          "type": "uint256"
        },
        {
          "indexed": false,
          "internalType": "address",
          "name": "tokenAddress",
          "type": "address"
        }
      ],
      "name": "deList",
      "type": "event"
    },
    {
      "anonymous": false,
      "inputs": [
        {
          "indexed": false,
          "internalType": "address",
          "name": "_to",
          "type": "address"
        },
        {
          "indexed": false,
          "internalType": "uint256[]",
          "name": "_tokenId",
          "type": "uint256[]"
        },
        {
          "indexed": false,
          "internalType": "address",
          "name": "tokenAddress",
          "type": "address"
        }
      ],
      "name": "deListBulk",
      "type": "event"
    },
    {
      "anonymous": false,
      "inputs": [
        {
          "indexed": false,
          "internalType": "address",
          "name": "_highestBidder",
          "type": "address"
        },
        {
          "indexed": false,
          "internalType": "uint256",
          "name": "_price",
          "type": "uint256"
        }
      ],
      "name": "highBidder",
      "type": "event"
    },
    {
      "anonymous": false,
      "inputs": [
        {
          "indexed": false,
          "internalType": "uint256",
          "name": "id",
          "type": "uint256"
        },
        {
          "indexed": false,
          "internalType": "uint256",
          "name": "tokenId",
          "type": "uint256"
        },
        {
          "indexed": false,
          "internalType": "address",
          "name": "tokenAddress",
          "type": "address"
        },
        {
          "indexed": false,
          "internalType": "uint256",
          "name": "askingPrice",
          "type": "uint256"
        }
      ],
      "name": "itemAdded",
      "type": "event"
    },
    {
      "anonymous": false,
      "inputs": [
        {
          "indexed": false,
          "internalType": "uint256",
          "name": "itemId",
          "type": "uint256"
        },
        {
          "indexed": false,
          "internalType": "uint256[]",
          "name": "tokenId",
          "type": "uint256[]"
        },
        {
          "indexed": false,
          "internalType": "address",
          "name": "tokenAddress",
          "type": "address"
        },
        {
          "indexed": false,
          "internalType": "uint256",
          "name": "price",
          "type": "uint256"
        },
        {
          "indexed": true,
          "internalType": "address",
          "name": "seller",
          "type": "address"
        }
      ],
      "name": "offeredMultiple",
      "type": "event"
    },
    {
      "anonymous": false,
      "inputs": [
        {
          "indexed": false,
          "internalType": "uint256",
          "name": "itemId",
          "type": "uint256"
        },
        {
          "indexed": false,
          "internalType": "uint256",
          "name": "tokenId",
          "type": "uint256"
        },
        {
          "indexed": false,
          "internalType": "address",
          "name": "tokenAddress",
          "type": "address"
        },
        {
          "indexed": false,
          "internalType": "uint256",
          "name": "price",
          "type": "uint256"
        },
        {
          "indexed": true,
          "internalType": "address",
          "name": "seller",
          "type": "address"
        }
      ],
      "name": "offeredSingle",
      "type": "event"
    },
    {
      "anonymous": false,
      "inputs": [
        {
          "indexed": false,
          "internalType": "address",
          "name": "_to",
          "type": "address"
        },
        {
          "indexed": false,
          "internalType": "uint256[]",
          "name": "_tokenId",
          "type": "uint256[]"
        },
        {
          "indexed": false,
          "internalType": "address",
          "name": "tokenAddress",
          "type": "address"
        }
      ],
      "name": "transferMultipleNft",
      "type": "event"
    },
    {
      "anonymous": false,
      "inputs": [
        {
          "indexed": false,
          "internalType": "address",
          "name": "_to",
          "type": "address"
        },
        {
          "indexed": false,
          "internalType": "uint256",
          "name": "_tokenId",
          "type": "uint256"
        },
        {
          "indexed": false,
          "internalType": "address",
          "name": "tokenAddress",
          "type": "address"
        }
      ],
      "name": "transferSingleNft",
      "type": "event"
    },
    {
      "inputs": [],
      "name": "DEFAULT_ADMIN_ROLE",
      "outputs": [
        {
          "internalType": "bytes32",
          "name": "",
          "type": "bytes32"
        }
      ],
      "stateMutability": "view",
      "type": "function"
    },
    {
      "inputs": [],
      "name": "TRANSFER_ROLE",
      "outputs": [
        {
          "internalType": "bytes32",
          "name": "",
          "type": "bytes32"
        }
      ],
      "stateMutability": "view",
      "type": "function"
    },
    {
      "inputs": [
        {
          "internalType": "address",
          "name": "",
          "type": "address"
        },
        {
          "internalType": "uint256",
          "name": "",
          "type": "uint256"
        }
      ],
      "name": "activeItems",
      "outputs": [
        {
          "internalType": "bool",
          "name": "",
          "type": "bool"
        }
      ],
      "stateMutability": "view",
      "type": "function"
    },
    {
      "inputs": [
        {
          "internalType": "uint256",
          "name": "_tokenId",
          "type": "uint256"
        },
        {
          "internalType": "address",
          "name": "_tokenAddress",
          "type": "address"
        },
        {
          "internalType": "uint256",
          "name": "_askingPrice",
          "type": "uint256"
        },
        {
          "internalType": "uint256",
          "name": "_time",
          "type": "uint256"
        },
        {
          "internalType": "contract IERC20",
          "name": "_token",
          "type": "address"
        }
      ],
      "name": "addItemToBid",
      "outputs": [
        {
          "internalType": "uint256",
          "name": "",
          "type": "uint256"
        }
      ],
      "stateMutability": "nonpayable",
      "type": "function"
    },
    {
      "inputs": [],
      "name": "biddingItems",
      "outputs": [
        {
          "internalType": "uint256",
          "name": "",
          "type": "uint256"
        }
      ],
      "stateMutability": "view",
      "type": "function"
    },
    {
      "inputs": [
        {
          "internalType": "uint256",
          "name": "_tokenId",
          "type": "uint256"
        },
        {
          "internalType": "address",
          "name": "_tokenAddress",
          "type": "address"
        }
      ],
      "name": "claimToken",
      "outputs": [],
      "stateMutability": "payable",
      "type": "function"
    },
    {
      "inputs": [
        {
          "internalType": "uint256[]",
          "name": "_tokenId",
          "type": "uint256[]"
        },
        {
          "internalType": "address",
          "name": "_tokenAddress",
          "type": "address"
        }
      ],
      "name": "deListBulkNft",
      "outputs": [],
      "stateMutability": "nonpayable",
      "type": "function"
    },
    {
      "inputs": [
        {
          "internalType": "uint256",
          "name": "_tokenId",
          "type": "uint256"
        },
        {
          "internalType": "address",
          "name": "_tokenAddress",
          "type": "address"
        }
      ],
      "name": "deListNft",
      "outputs": [],
      "stateMutability": "nonpayable",
      "type": "function"
    },
    {
      "inputs": [
        {
          "internalType": "bytes32",
          "name": "role",
          "type": "bytes32"
        }
      ],
      "name": "getRoleAdmin",
      "outputs": [
        {
          "internalType": "bytes32",
          "name": "",
          "type": "bytes32"
        }
      ],
      "stateMutability": "view",
      "type": "function"
    },
    {
      "inputs": [
        {
          "internalType": "bytes32",
          "name": "role",
          "type": "bytes32"
        },
        {
          "internalType": "address",
          "name": "account",
          "type": "address"
        }
      ],
      "name": "grantRole",
      "outputs": [],
      "stateMutability": "nonpayable",
      "type": "function"
    },
    {
      "inputs": [
        {
          "internalType": "bytes32",
          "name": "role",
          "type": "bytes32"
        },
        {
          "internalType": "address",
          "name": "account",
          "type": "address"
        }
      ],
      "name": "hasRole",
      "outputs": [
        {
          "internalType": "bool",
          "name": "",
          "type": "bool"
        }
      ],
      "stateMutability": "view",
      "type": "function"
    },
    {
      "inputs": [],
      "name": "itemCount",
      "outputs": [
        {
          "internalType": "uint256",
          "name": "",
          "type": "uint256"
        }
      ],
      "stateMutability": "view",
      "type": "function"
    },
    {
      "inputs": [
        {
          "internalType": "uint256",
          "name": "",
          "type": "uint256"
        },
        {
          "internalType": "address",
          "name": "",
          "type": "address"
        }
      ],
      "name": "items",
      "outputs": [
        {
          "internalType": "uint256",
          "name": "tokenId",
          "type": "uint256"
        },
        {
          "internalType": "contract IERC20",
          "name": "token",
          "type": "address"
        },
        {
          "internalType": "uint256",
          "name": "price",
          "type": "uint256"
        },
        {
          "internalType": "address",
          "name": "tokenAddress",
          "type": "address"
        },
        {
          "internalType": "address payable",
          "name": "seller",
          "type": "address"
        }
      ],
      "stateMutability": "view",
      "type": "function"
    },
    {
      "inputs": [
        {
          "internalType": "uint256",
          "name": "",
          "type": "uint256"
        },
        {
          "internalType": "address",
          "name": "",
          "type": "address"
        }
      ],
      "name": "itemsForAuction",
      "outputs": [
        {
          "internalType": "uint256",
          "name": "tokenId",
          "type": "uint256"
        },
        {
          "internalType": "address",
          "name": "tokenAddress",
          "type": "address"
        },
        {
          "internalType": "contract IERC20",
          "name": "token",
          "type": "address"
        },
        {
          "internalType": "address payable",
          "name": "owner",
          "type": "address"
        },
        {
          "internalType": "uint256",
          "name": "askingPrice",
          "type": "uint256"
        },
        {
          "internalType": "address payable",
          "name": "seller",
          "type": "address"
        },
        {
          "internalType": "address",
          "name": "highestBidder",
          "type": "address"
        },
        {
          "internalType": "uint256",
          "name": "endTime",
          "type": "uint256"
        }
      ],
      "stateMutability": "view",
      "type": "function"
    },
    {
      "inputs": [
        {
          "internalType": "contract IERC20",
          "name": "_token",
          "type": "address"
        },
        {
          "internalType": "uint256",
          "name": "_tokenId",
          "type": "uint256"
        },
        {
          "internalType": "address",
          "name": "_tokenAddress",
          "type": "address"
        },
        {
          "internalType": "uint256",
          "name": "_price",
          "type": "uint256"
        }
      ],
      "name": "makeItem",
      "outputs": [],
      "stateMutability": "nonpayable",
      "type": "function"
    },
    {
      "inputs": [
        {
          "internalType": "contract IERC20",
          "name": "_token",
          "type": "address"
        },
        {
          "internalType": "uint256[]",
          "name": "_tokenId",
          "type": "uint256[]"
        },
        {
          "internalType": "address",
          "name": "_tokenAddress",
          "type": "address"
        },
        {
          "internalType": "uint256",
          "name": "_price",
          "type": "uint256"
        }
      ],
      "name": "makeItemBulk",
      "outputs": [],
      "stateMutability": "nonpayable",
      "type": "function"
    },
    {
      "inputs": [
        {
          "internalType": "uint256",
          "name": "_tokenId",
          "type": "uint256"
        },
        {
          "internalType": "address",
          "name": "_tokenAddress",
          "type": "address"
        },
        {
          "internalType": "uint256",
          "name": "_amount",
          "type": "uint256"
        }
      ],
      "name": "placeBid",
      "outputs": [],
      "stateMutability": "payable",
      "type": "function"
    },
    {
      "inputs": [
        {
          "internalType": "uint256",
          "name": "_itemId",
          "type": "uint256"
        },
        {
          "internalType": "address",
          "name": "_tokenAddress",
          "type": "address"
        },
        {
          "internalType": "uint256",
          "name": "_amount",
          "type": "uint256"
        }
      ],
      "name": "purchaseItem",
      "outputs": [],
      "stateMutability": "payable",
      "type": "function"
    },
    {
      "inputs": [
        {
          "internalType": "bytes32",
          "name": "role",
          "type": "bytes32"
        },
        {
          "internalType": "address",
          "name": "account",
          "type": "address"
        }
      ],
      "name": "renounceRole",
      "outputs": [],
      "stateMutability": "nonpayable",
      "type": "function"
    },
    {
      "inputs": [
        {
          "internalType": "bytes32",
          "name": "role",
          "type": "bytes32"
        },
        {
          "internalType": "address",
          "name": "account",
          "type": "address"
        }
      ],
      "name": "revokeRole",
      "outputs": [],
      "stateMutability": "nonpayable",
      "type": "function"
    },
    {
      "inputs": [
        {
          "internalType": "bytes4",
          "name": "interfaceId",
          "type": "bytes4"
        }
      ],
      "name": "supportsInterface",
      "outputs": [
        {
          "internalType": "bool",
          "name": "",
          "type": "bool"
        }
      ],
      "stateMutability": "view",
      "type": "function"
    },
    {
      "inputs": [
        {
          "internalType": "address",
          "name": "_to",
          "type": "address"
        },
        {
          "internalType": "uint256",
          "name": "_tokenID",
          "type": "uint256"
        },
        {
          "internalType": "address",
          "name": "_tokenAddress",
          "type": "address"
        }
      ],
      "name": "transferNft",
      "outputs": [],
      "stateMutability": "nonpayable",
      "type": "function"
    },
    {
      "inputs": [
        {
          "internalType": "address",
          "name": "_to",
          "type": "address"
        },
        {
          "internalType": "uint256[]",
          "name": "_tokenIDs",
          "type": "uint256[]"
        },
        {
          "internalType": "address",
          "name": "_tokenAddress",
          "type": "address"
        }
      ],
      "name": "transferNftBunch",
      "outputs": [],
      "stateMutability": "nonpayable",
      "type": "function"
    }
  ],
  "bytecode": "0x60806040523480156200001157600080fd5b50600160009081556200002590336200002b565b620000c3565b6200003782826200003b565b5050565b60008281526001602090815260408083206001600160a01b038516845290915290205460ff16620000375760008281526001602081815260408084206001600160a01b0386168086529252808420805460ff19169093179092559051339285917f2f8788117e7eff1d82e926ec794901d17c78024a50270940304540a733656f0d9190a45050565b6126c080620000d36000396000f3fe6080604052600436106101405760003560e01c806391d14854116100b6578063cf7cf2c71161006f578063cf7cf2c7146103f4578063d547741f1461040a578063e16f7b851461042a578063eca4f6a3146104f3578063f1e2f3481461052e578063fb803f4d1461054157600080fd5b806391d148541461034c578063a0b4fe941461036c578063a217fddf1461038c578063bbab14b9146103a1578063bcb1d687146103c1578063c49662c5146103e157600080fd5b806354ffe77e1161010857806354ffe77e1461022f5780635be4288c146102c3578063609ed3bd146102e35780636bfb0d01146103035780637d80967114610319578063823c5fcb1461033957600080fd5b806301ffc9a714610145578063206b60f91461017a578063248a9ca3146101bc5780632f2ff15d146101ed57806336568abe1461020f575b600080fd5b34801561015157600080fd5b50610165610160366004612261565b610561565b60405190151581526020015b60405180910390f35b34801561018657600080fd5b506101ae7f8502233096d909befbda0999bb8ea2f3a6be3c138b9fbf003752a4c8bce86f6c81565b604051908152602001610171565b3480156101c857600080fd5b506101ae6101d736600461221a565b6000908152600160208190526040909120015490565b3480156101f957600080fd5b5061020d610208366004612232565b610598565b005b34801561021b57600080fd5b5061020d61022a366004612232565b6105c3565b34801561023b57600080fd5b5061029161024a366004612232565b600360208181526000938452604080852090915291835291208054600182015460028301549383015460049093015491936001600160a01b03918216939092908216911685565b604080519586526001600160a01b0394851660208701528501929092528216606084015216608082015260a001610171565b3480156102cf57600080fd5b5061020d6102de36600461214e565b610646565b3480156102ef57600080fd5b5061020d6102fe366004612289565b61077b565b34801561030f57600080fd5b506101ae60025481565b34801561032557600080fd5b5061020d610334366004612232565b610a00565b61020d610347366004612328565b610b60565b34801561035857600080fd5b50610165610367366004612232565b610e2c565b34801561037857600080fd5b5061020d6103873660046122f1565b610e57565b34801561039857600080fd5b506101ae600081565b3480156103ad57600080fd5b506101ae6103bc36600461235f565b611026565b3480156103cd57600080fd5b5061020d6103dc3660046120c1565b6113ad565b61020d6103ef366004612232565b6114c1565b34801561040057600080fd5b506101ae60045481565b34801561041657600080fd5b5061020d610425366004612232565b611820565b34801561043657600080fd5b506104a5610445366004612232565b600560208181526000938452604080852090915291835291208054600182015460028301546003840154600485015495850154600686015460079096015494966001600160a01b0394851696938516959285169490939181169291169088565b604080519889526001600160a01b0397881660208a01529587169588019590955292851660608701526080860191909152831660a085015290911660c083015260e082015261010001610171565b3480156104ff57600080fd5b5061016561050e366004612123565b600660209081526000928352604080842090915290825290205460ff1681565b61020d61053c366004612328565b611846565b34801561054d57600080fd5b5061020d61055c366004612184565b611afd565b60006001600160e01b03198216637965db0b60e01b148061059257506301ffc9a760e01b6001600160e01b03198316145b92915050565b600082815260016020819052604090912001546105b481611cf7565b6105be8383611d04565b505050565b6001600160a01b03811633146106385760405162461bcd60e51b815260206004820152602f60248201527f416363657373436f6e74726f6c3a2063616e206f6e6c792072656e6f756e636560448201526e103937b632b9903337b91039b2b63360891b60648201526084015b60405180910390fd5b6106428282611d6f565b5050565b7f8502233096d909befbda0999bb8ea2f3a6be3c138b9fbf003752a4c8bce86f6c61067081611cf7565b60008381526003602081815260408084206001600160a01b03808816865290835293819020815160a08101835281548152600182015486169381019390935260028101548383015292830154841660608301819052600493840154909416608083015251632142170760e11b81529092916342842e0e916106f79130918a918a9101612463565b600060405180830381600087803b15801561071157600080fd5b505af1158015610725573d6000803e3d6000fd5b5050604080516001600160a01b0389811682526020820189905287168183015290517fd0454d4ea415e3d50cf02f1a803da8a23b64408661fd85f8cf1c90388450bb469350908190036060019150a15050505050565b6002600054141561079e5760405162461bcd60e51b815260040161062f90612544565b6002600055806107d95760405162461bcd60e51b815260040161062f90602080825260049082015263183c181960e11b604082015260600190565b60005b83518110156109ab57600280549060006107f58361262e565b9190505550826001600160a01b03166323b872dd333087858151811061082b57634e487b7160e01b600052603260045260246000fd5b60200260200101516040518463ffffffff1660e01b815260040161085193929190612463565b600060405180830381600087803b15801561086b57600080fd5b505af115801561087f573d6000803e3d6000fd5b505050506040518060a001604052808583815181106108ae57634e487b7160e01b600052603260045260246000fd5b60200260200101518152602001866001600160a01b03168152602001838152602001846001600160a01b03168152602001336001600160a01b03168152506003600086848151811061091057634e487b7160e01b600052603260045260246000fd5b602090810291909101810151825281810192909252604090810160009081206001600160a01b0380891683529084529082902084518155928401516001840180549183166001600160a01b0319928316179055918401516002840155606084015160038401805491831691841691909117905560809093015160049092018054929093169116179055806109a38161262e565b9150506107dc565b50336001600160a01b03167f697f0eea6997929e126d53ed4a1ac6677bfd4f32fd2765d50cde31d111fd059c6002548585856040516109ed949392919061257b565b60405180910390a2505060016000555050565b60026000541415610a235760405162461bcd60e51b815260040161062f90612544565b600260009081558281526005602090815260408083206001600160a01b038581168552925290912060030154163314610a875760405162461bcd60e51b815260040161062f906020808252600490820152633078303560e01b604082015260600190565b60008281526005602090815260408083206001600160a01b0380861680865291909352928190206003015490516323b872dd60e01b81526323b872dd92610ad79230929116908790600401612463565b600060405180830381600087803b158015610af157600080fd5b505af1158015610b05573d6000803e3d6000fd5b505060408051338152602081018690526001600160a01b038516918101919091527f93ae225a9a4b2f382892e722eb85c5955a3379195036c8e9c9475cd7989933af925060600190505b60405180910390a150506001600055565b60026000541415610b835760405162461bcd60e51b815260040161062f90612544565b600260008181558481526003602081815260408084206001600160a01b03808916865290835293819020815160a08101835281548152600182015486169381019390935294850154908201819052918401548316606082015260049093015490911660808301528415801590610bfb57506002548511155b610c305760405162461bcd60e51b815260040161062f906020808252600490820152633078303360e01b604082015260600190565b80831015610c695760405162461bcd60e51b815260040161062f906020808252600490820152630c1e0c0d60e21b604082015260600190565b81602001516001600160a01b03166323b872dd338460800151846040518463ffffffff1660e01b8152600401610ca193929190612463565b602060405180830381600087803b158015610cbb57600080fd5b505af1158015610ccf573d6000803e3d6000fd5b505050506040513d601f19601f82011682018060405250810190610cf391906121fa565b5081516040516323b872dd60e01b81526001600160a01b038616916323b872dd91610d25913091339190600401612463565b600060405180830381600087803b158015610d3f57600080fd5b505af1158015610d53573d6000803e3d6000fd5b505060028054925090506000610d6883612617565b909155505060008581526003602081815260408084206001600160a01b038981168087529184528286208681556001810180546001600160a01b031990811690915560028201979097559485018054871690556004909401805490951690945560808681015187518884015184518d8152958601919091529284019590955260608301919091523393909216917f8499da5cbed7f4c76667f49e6eb9fbbec401e155d096505159678f2c21e6223f910160405180910390a350506001600055505050565b60009182526001602090815260408084206001600160a01b0393909316845291905290205460ff1690565b60026000541415610e7a5760405162461bcd60e51b815260040161062f90612544565b600260005580610eb55760405162461bcd60e51b815260040161062f906020808252600490820152633078303160e01b604082015260600190565b60028054906000610ec58361262e565b90915550506040516323b872dd60e01b81526001600160a01b038316906323b872dd90610efa90339030908890600401612463565b600060405180830381600087803b158015610f1457600080fd5b505af1158015610f28573d6000803e3d6000fd5b50506040805160a0810182528681526001600160a01b03808916602080840191825283850188815289841660608601818152336080880181815260008f815260038088528b822095825294909652948990209751885594516001880180549188166001600160a01b03199283161790559251600280890191909155905191870180549287169284169290921790915591516004909501805495909416941693909317909155905491519093507f9704f7c45140426e4584b8dd2b567b1b66512b1b9fb2d76af41fdac6dc5bb44592506109ed919087908790879093845260208401929092526001600160a01b03166040830152606082015260800190565b60006002600054141561104b5760405162461bcd60e51b815260040161062f90612544565b6002600055836110865760405162461bcd60e51b815260040161062f906020808252600490820152633078303760e01b604082015260600190565b8242116110be5760405162461bcd60e51b815260040161062f90602080825260049082015263060f060760e31b604082015260600190565b604051806101000160405280878152602001866001600160a01b03168152602001836001600160a01b03168152602001336001600160a01b03168152602001858152602001306001600160a01b0316815260200160006001600160a01b0316815260200184815250600560008881526020019081526020016000206000876001600160a01b03166001600160a01b031681526020019081526020016000206000820151816000015560208201518160010160006101000a8154816001600160a01b0302191690836001600160a01b0316021790555060408201518160020160006101000a8154816001600160a01b0302191690836001600160a01b0316021790555060608201518160030160006101000a8154816001600160a01b0302191690836001600160a01b031602179055506080820151816004015560a08201518160050160006101000a8154816001600160a01b0302191690836001600160a01b0316021790555060c08201518160060160006101000a8154816001600160a01b0302191690836001600160a01b0316021790555060e0820151816007015590505085600560008881526020019081526020016000206000876001600160a01b03166001600160a01b0316815260200190815260200160002060000154146112b457634e487b7160e01b600052600160045260246000fd5b6001600160a01b03851660008181526006602090815260408083208a845290915290819020805460ff19166001179055516323b872dd60e01b81526323b872dd9061130790339030908b90600401612463565b600060405180830381600087803b15801561132157600080fd5b505af1158015611335573d6000803e3d6000fd5b50506004805492509050600061134a8361262e565b909155505060408051878152602081018890526001600160a01b038716818301526060810186905290517fd3742413e0092c98517699ed9f8567218c740a5a265a7a986d9430d5979375229181900360800190a150506001600055509192915050565b7f8502233096d909befbda0999bb8ea2f3a6be3c138b9fbf003752a4c8bce86f6c6113d781611cf7565b60005b835181101561147f57826001600160a01b03166342842e0e308787858151811061141457634e487b7160e01b600052603260045260246000fd5b60200260200101516040518463ffffffff1660e01b815260040161143a93929190612463565b600060405180830381600087803b15801561145457600080fd5b505af1158015611468573d6000803e3d6000fd5b5050505080806114779061262e565b9150506113da565b507fa3e990c880be2bbca618da501a0a9a1138f478b307357d138cee49ad32b75b148484846040516114b3939291906124dc565b60405180910390a150505050565b600260005414156114e45760405162461bcd60e51b815260040161062f90612544565b600260009081558281526005602090815260408083206001600160a01b038516845290915290206007015442116115465760405162461bcd60e51b815260040161062f906020808252600490820152633078313160e01b604082015260600190565b60008281526005602090815260408083206001600160a01b038581168552925290912060060154163314806115a1575060008281526005602090815260408083206001600160a01b0385811685529252909120600301541633145b6115d65760405162461bcd60e51b815260040161062f90602080825260049082015263183c189960e11b604082015260600190565b60008281526005602090815260408083206001600160a01b0380861680865282855283862060018101805484168852600680885286892083548a528852868920805460ff191690559054908201549290975292909452905491516323b872dd60e01b8152938116936323b872dd936116579330939190911691600401612463565b600060405180830381600087803b15801561167157600080fd5b505af1158015611685573d6000803e3d6000fd5b50505060008381526005602090815260408083206001600160a01b03868116855292529182902060028101546003820154600492830154945163a9059cbb60e01b81529084169281019290925260248201939093529116915063a9059cbb90604401602060405180830381600087803b15801561170157600080fd5b505af1158015611715573d6000803e3d6000fd5b505050506040513d601f19601f8201168201806040525081019061173991906121fa565b5060008281526005602081815260408084206001600160a01b038616855290915282208281556001810180546001600160a01b03199081169091556002820180548216905560038201805482169055600480830185905592820180548216905560068201805490911690556007018290558054916117b683612617565b909155505060008281526005602090815260408083206001600160a01b03851684528252918290206004015482518581523392810192909252918101919091527f90c279a81f6ee18c104a5eb82aeacd18e4d898ff80137854ca471834f812428090606001610b4f565b6000828152600160208190526040909120015461183c81611cf7565b6105be8383611d6f565b60008381526005602090815260408083206001600160a01b038616845290915290206007015442106118a35760405162461bcd60e51b815260040161062f906020808252600490820152633078303960e01b604082015260600190565b60008381526005602090815260408083206001600160a01b038616845290915290206004015481116119005760405162461bcd60e51b815260040161062f906020808252600490820152630307831360e41b604082015260600190565b60008381526005602090815260408083206001600160a01b038681168552925290912060020154166323b872dd3330846040518463ffffffff1660e01b815260040161194e93929190612463565b602060405180830381600087803b15801561196857600080fd5b505af115801561197c573d6000803e3d6000fd5b505050506040513d601f19601f820116820180604052508101906119a091906121fa565b5060008381526005602090815260408083206001600160a01b0386811685529252909120600601541615611a805760008381526005602090815260408083206001600160a01b03868116855292529182902060028101546006820154600492830154945163a9059cbb60e01b815290841692810192909252602482019390935291169063a9059cbb90604401602060405180830381600087803b158015611a4657600080fd5b505af1158015611a5a573d6000803e3d6000fd5b505050506040513d601f19601f82011682018060405250810190611a7e91906121fa565b505b60008381526005602090815260408083206001600160a01b03861684528252918290206006810180546001600160a01b03191633908117909155600490910184905582519081529081018390527ff997a6d4f7e851f3ba7f0d820c1448b6c4880e7de7a2e79a2e477927ff168814910160405180910390a1505050565b60026000541415611b205760405162461bcd60e51b815260040161062f90612544565b600260009081555b82811015611caf573360056000868685818110611b5557634e487b7160e01b600052603260045260246000fd5b6020908102929092013583525081810192909252604090810160009081206001600160a01b038088168352935220600301541614611bbe5760405162461bcd60e51b815260040161062f90602080825260049082015263183c181b60e11b604082015260600190565b816001600160a01b03166323b872dd3060056000888887818110611bf257634e487b7160e01b600052603260045260246000fd5b6020908102929092013583525081810192909252604090810160009081206001600160a01b03808a1683529352206003015416878786818110611c4557634e487b7160e01b600052603260045260246000fd5b905060200201356040518463ffffffff1660e01b8152600401611c6a93929190612463565b600060405180830381600087803b158015611c8457600080fd5b505af1158015611c98573d6000803e3d6000fd5b505050508080611ca79061262e565b915050611b28565b507fe926c79c1a0fe15b58eb497c5bd0bbfc0bf98134b5a55397782a68c1ad7257bb33848484604051611ce59493929190612487565b60405180910390a15050600160005550565b611d018133611dd6565b50565b611d0e8282610e2c565b6106425760008281526001602081815260408084206001600160a01b0386168086529252808420805460ff19169093179092559051339285917f2f8788117e7eff1d82e926ec794901d17c78024a50270940304540a733656f0d9190a45050565b611d798282610e2c565b156106425760008281526001602090815260408083206001600160a01b0385168085529252808320805460ff1916905551339285917ff6391f5c32d9c69d2a47ea670b442974b53935d1edc7fd64eb21e047a839171b9190a45050565b611de08282610e2c565b61064257611df8816001600160a01b03166014611e3a565b611e03836020611e3a565b604051602001611e149291906123ee565b60408051601f198184030181529082905262461bcd60e51b825261062f91600401612511565b60606000611e498360026125c8565b611e549060026125b0565b67ffffffffffffffff811115611e7a57634e487b7160e01b600052604160045260246000fd5b6040519080825280601f01601f191660200182016040528015611ea4576020820181803683370190505b509050600360fc1b81600081518110611ecd57634e487b7160e01b600052603260045260246000fd5b60200101906001600160f81b031916908160001a905350600f60fb1b81600181518110611f0a57634e487b7160e01b600052603260045260246000fd5b60200101906001600160f81b031916908160001a9053506000611f2e8460026125c8565b611f399060016125b0565b90505b6001811115611fcd576f181899199a1a9b1b9c1cb0b131b232b360811b85600f1660108110611f7b57634e487b7160e01b600052603260045260246000fd5b1a60f81b828281518110611f9f57634e487b7160e01b600052603260045260246000fd5b60200101906001600160f81b031916908160001a90535060049490941c93611fc681612617565b9050611f3c565b50831561201c5760405162461bcd60e51b815260206004820181905260248201527f537472696e67733a20686578206c656e67746820696e73756666696369656e74604482015260640161062f565b9392505050565b600082601f830112612033578081fd5b8135602067ffffffffffffffff808311156120505761205061265f565b8260051b604051601f19603f830116810181811084821117156120755761207561265f565b60405284815283810192508684018288018501891015612093578687fd5b8692505b858310156120b5578035845292840192600192909201918401612097565b50979650505050505050565b6000806000606084860312156120d5578283fd5b83356120e081612675565b9250602084013567ffffffffffffffff8111156120fb578283fd5b61210786828701612023565b925050604084013561211881612675565b809150509250925092565b60008060408385031215612135578182fd5b823561214081612675565b946020939093013593505050565b600080600060608486031215612162578283fd5b833561216d81612675565b925060208401359150604084013561211881612675565b600080600060408486031215612198578283fd5b833567ffffffffffffffff808211156121af578485fd5b818601915086601f8301126121c2578485fd5b8135818111156121d0578586fd5b8760208260051b85010111156121e4578586fd5b6020928301955093505084013561211881612675565b60006020828403121561220b578081fd5b8151801515811461201c578182fd5b60006020828403121561222b578081fd5b5035919050565b60008060408385031215612244578182fd5b82359150602083013561225681612675565b809150509250929050565b600060208284031215612272578081fd5b81356001600160e01b03198116811461201c578182fd5b6000806000806080858703121561229e578081fd5b84356122a981612675565b9350602085013567ffffffffffffffff8111156122c4578182fd5b6122d087828801612023565b93505060408501356122e181612675565b9396929550929360600135925050565b60008060008060808587031215612306578384fd5b843561231181612675565b93506020850135925060408501356122e181612675565b60008060006060848603121561233c578283fd5b83359250602084013561234e81612675565b929592945050506040919091013590565b600080600080600060a08688031215612376578283fd5b85359450602086013561238881612675565b9350604086013592506060860135915060808601356123a681612675565b809150509295509295909350565b6000815180845260208085019450808401835b838110156123e3578151875295820195908201906001016123c7565b509495945050505050565b7f416363657373436f6e74726f6c3a206163636f756e74200000000000000000008152600083516124268160178501602088016125e7565b7001034b99036b4b9b9b4b733903937b6329607d1b60179184019182015283516124578160288401602088016125e7565b01602801949350505050565b6001600160a01b039384168152919092166020820152604081019190915260600190565b6001600160a01b03858116825260606020830181905282018490526000906001600160fb1b038511156124b8578182fd5b8460051b808760808601378301608001918252929092166040909101529392505050565b600060018060a01b038086168352606060208401526124fe60608401866123b4565b9150808416604084015250949350505050565b60208152600082518060208401526125308160408501602087016125e7565b601f01601f19169190910160400192915050565b6020808252601f908201527f5265656e7472616e637947756172643a207265656e7472616e742063616c6c00604082015260600190565b84815260806020820152600061259460808301866123b4565b6001600160a01b03949094166040830152506060015292915050565b600082198211156125c3576125c3612649565b500190565b60008160001904831182151516156125e2576125e2612649565b500290565b60005b838110156126025781810151838201526020016125ea565b83811115612611576000848401525b50505050565b60008161262657612626612649565b506000190190565b600060001982141561264257612642612649565b5060010190565b634e487b7160e01b600052601160045260246000fd5b634e487b7160e01b600052604160045260246000fd5b6001600160a01b0381168114611d0157600080fdfea2646970667358221220d5033798520c8a878cd2c567c9ef54893f5b0f29019167c333ada4114f37497a64736f6c63430008040033",
  "linkReferences": {},
  "deployedLinkReferences": {}
}