{
  "_format": "hh-sol-artifact-1",
  "contractName": "Marketplace",
  "sourceName": "src/backend/contracts/Marketplace.sol",
  "abi": [
    {
      "inputs": [],
      "stateMutability": "nonpayable",
      "type": "constructor"
    },
    {
      "anonymous": false,
      "inputs": [
        {
          "indexed": false,
          "internalType": "uint256",
          "name": "itemId",
          "type": "uint256"
        },
        {
          "indexed": true,
          "internalType": "address",
          "name": "nft",
          "type": "address"
        },
        {
          "indexed": false,
          "internalType": "uint256",
          "name": "tokenId",
          "type": "uint256"
        },
        {
          "indexed": false,
          "internalType": "uint256",
          "name": "price",
          "type": "uint256"
        },
        {
          "indexed": true,
          "internalType": "address",
          "name": "seller",
          "type": "address"
        },
        {
          "indexed": true,
          "internalType": "address",
          "name": "buyer",
          "type": "address"
        }
      ],
      "name": "Bought",
      "type": "event"
    },
    {
      "anonymous": false,
      "inputs": [
        {
          "indexed": true,
          "internalType": "bytes32",
          "name": "role",
          "type": "bytes32"
        },
        {
          "indexed": true,
          "internalType": "bytes32",
          "name": "previousAdminRole",
          "type": "bytes32"
        },
        {
          "indexed": true,
          "internalType": "bytes32",
          "name": "newAdminRole",
          "type": "bytes32"
        }
      ],
      "name": "RoleAdminChanged",
      "type": "event"
    },
    {
      "anonymous": false,
      "inputs": [
        {
          "indexed": true,
          "internalType": "bytes32",
          "name": "role",
          "type": "bytes32"
        },
        {
          "indexed": true,
          "internalType": "address",
          "name": "account",
          "type": "address"
        },
        {
          "indexed": true,
          "internalType": "address",
          "name": "sender",
          "type": "address"
        }
      ],
      "name": "RoleGranted",
      "type": "event"
    },
    {
      "anonymous": false,
      "inputs": [
        {
          "indexed": true,
          "internalType": "bytes32",
          "name": "role",
          "type": "bytes32"
        },
        {
          "indexed": true,
          "internalType": "address",
          "name": "account",
          "type": "address"
        },
        {
          "indexed": true,
          "internalType": "address",
          "name": "sender",
          "type": "address"
        }
      ],
      "name": "RoleRevoked",
      "type": "event"
    },
    {
      "anonymous": false,
      "inputs": [
        {
          "indexed": false,
          "internalType": "address",
          "name": "_highestBidder",
          "type": "address"
        },
        {
          "indexed": false,
          "internalType": "uint256",
          "name": "_price",
          "type": "uint256"
        }
      ],
      "name": "highBidder",
      "type": "event"
    },
    {
      "anonymous": false,
      "inputs": [
        {
          "indexed": false,
          "internalType": "uint256",
          "name": "id",
          "type": "uint256"
        },
        {
          "indexed": false,
          "internalType": "uint256",
          "name": "tokenId",
          "type": "uint256"
        },
        {
          "indexed": false,
          "internalType": "address",
          "name": "tokenAddress",
          "type": "address"
        },
        {
          "indexed": false,
          "internalType": "uint256",
          "name": "askingPrice",
          "type": "uint256"
        }
      ],
      "name": "itemAdded",
      "type": "event"
    },
    {
      "anonymous": false,
      "inputs": [
        {
          "indexed": false,
          "internalType": "uint256",
          "name": "id",
          "type": "uint256"
        },
        {
          "indexed": false,
          "internalType": "address",
          "name": "buyer",
          "type": "address"
        },
        {
          "indexed": false,
          "internalType": "uint256",
          "name": "askingPrice",
          "type": "uint256"
        }
      ],
      "name": "itemSold",
      "type": "event"
    },
    {
      "anonymous": false,
      "inputs": [
        {
          "indexed": false,
          "internalType": "uint256",
          "name": "itemId",
          "type": "uint256"
        },
        {
          "indexed": true,
          "internalType": "address",
          "name": "nft",
          "type": "address"
        },
        {
          "indexed": false,
          "internalType": "uint256[]",
          "name": "tokenId",
          "type": "uint256[]"
        },
        {
          "indexed": false,
          "internalType": "uint256",
          "name": "price",
          "type": "uint256"
        },
        {
          "indexed": true,
          "internalType": "address",
          "name": "seller",
          "type": "address"
        }
      ],
      "name": "offeredMultiple",
      "type": "event"
    },
    {
      "anonymous": false,
      "inputs": [
        {
          "indexed": false,
          "internalType": "uint256",
          "name": "itemId",
          "type": "uint256"
        },
        {
          "indexed": true,
          "internalType": "address",
          "name": "nft",
          "type": "address"
        },
        {
          "indexed": false,
          "internalType": "uint256",
          "name": "tokenId",
          "type": "uint256"
        },
        {
          "indexed": false,
          "internalType": "uint256",
          "name": "price",
          "type": "uint256"
        },
        {
          "indexed": true,
          "internalType": "address",
          "name": "seller",
          "type": "address"
        }
      ],
      "name": "offeredSingle",
      "type": "event"
    },
    {
      "anonymous": false,
      "inputs": [
        {
          "indexed": false,
          "internalType": "address",
          "name": "_to",
          "type": "address"
        },
        {
          "indexed": false,
          "internalType": "uint256[]",
          "name": "_tokenId",
          "type": "uint256[]"
        }
      ],
      "name": "transferMultipleNft",
      "type": "event"
    },
    {
      "anonymous": false,
      "inputs": [
        {
          "indexed": false,
          "internalType": "address",
          "name": "_to",
          "type": "address"
        },
        {
          "indexed": false,
          "internalType": "uint256",
          "name": "_tokenId",
          "type": "uint256"
        }
      ],
      "name": "transferSingleNft",
      "type": "event"
    },
    {
      "inputs": [],
      "name": "DEFAULT_ADMIN_ROLE",
      "outputs": [
        {
          "internalType": "bytes32",
          "name": "",
          "type": "bytes32"
        }
      ],
      "stateMutability": "view",
      "type": "function"
    },
    {
      "inputs": [],
      "name": "TRANSFER_ROLE",
      "outputs": [
        {
          "internalType": "bytes32",
          "name": "",
          "type": "bytes32"
        }
      ],
      "stateMutability": "view",
      "type": "function"
    },
    {
      "inputs": [
        {
          "internalType": "address",
          "name": "",
          "type": "address"
        },
        {
          "internalType": "uint256",
          "name": "",
          "type": "uint256"
        }
      ],
      "name": "activeItems",
      "outputs": [
        {
          "internalType": "bool",
          "name": "",
          "type": "bool"
        }
      ],
      "stateMutability": "view",
      "type": "function"
    },
    {
      "inputs": [
        {
          "internalType": "uint256",
          "name": "_tokenId",
          "type": "uint256"
        },
        {
          "internalType": "address",
          "name": "_tokenAddress",
          "type": "address"
        },
        {
          "internalType": "uint256",
          "name": "_askingPrice",
          "type": "uint256"
        },
        {
          "internalType": "uint256",
          "name": "_time",
          "type": "uint256"
        }
      ],
      "name": "addItemToBid",
      "outputs": [
        {
          "internalType": "uint256",
          "name": "",
          "type": "uint256"
        }
      ],
      "stateMutability": "nonpayable",
      "type": "function"
    },
    {
      "inputs": [
        {
          "internalType": "uint256",
          "name": "_tokenId",
          "type": "uint256"
        },
        {
          "internalType": "address",
          "name": "_tokenAddress",
          "type": "address"
        }
      ],
      "name": "bid",
      "outputs": [],
      "stateMutability": "payable",
      "type": "function"
    },
    {
      "inputs": [],
      "name": "biddingItems",
      "outputs": [
        {
          "internalType": "uint256",
          "name": "",
          "type": "uint256"
        }
      ],
      "stateMutability": "view",
      "type": "function"
    },
    {
      "inputs": [
        {
          "internalType": "address",
          "name": "",
          "type": "address"
        },
        {
          "internalType": "address",
          "name": "",
          "type": "address"
        },
        {
          "internalType": "uint256",
          "name": "",
          "type": "uint256"
        }
      ],
      "name": "biddingPrice",
      "outputs": [
        {
          "internalType": "uint256",
          "name": "",
          "type": "uint256"
        }
      ],
      "stateMutability": "view",
      "type": "function"
    },
    {
      "inputs": [
        {
          "internalType": "uint256",
          "name": "_tokenId",
          "type": "uint256"
        },
        {
          "internalType": "address",
          "name": "_tokenAddress",
          "type": "address"
        }
      ],
      "name": "buyItem",
      "outputs": [],
      "stateMutability": "payable",
      "type": "function"
    },
    {
      "inputs": [
        {
          "internalType": "bytes32",
          "name": "role",
          "type": "bytes32"
        }
      ],
      "name": "getRoleAdmin",
      "outputs": [
        {
          "internalType": "bytes32",
          "name": "",
          "type": "bytes32"
        }
      ],
      "stateMutability": "view",
      "type": "function"
    },
    {
      "inputs": [
        {
          "internalType": "bytes32",
          "name": "role",
          "type": "bytes32"
        },
        {
          "internalType": "address",
          "name": "account",
          "type": "address"
        }
      ],
      "name": "grantRole",
      "outputs": [],
      "stateMutability": "nonpayable",
      "type": "function"
    },
    {
      "inputs": [
        {
          "internalType": "bytes32",
          "name": "role",
          "type": "bytes32"
        },
        {
          "internalType": "address",
          "name": "account",
          "type": "address"
        }
      ],
      "name": "hasRole",
      "outputs": [
        {
          "internalType": "bool",
          "name": "",
          "type": "bool"
        }
      ],
      "stateMutability": "view",
      "type": "function"
    },
    {
      "inputs": [],
      "name": "itemCount",
      "outputs": [
        {
          "internalType": "uint256",
          "name": "",
          "type": "uint256"
        }
      ],
      "stateMutability": "view",
      "type": "function"
    },
    {
      "inputs": [
        {
          "internalType": "uint256",
          "name": "",
          "type": "uint256"
        }
      ],
      "name": "items",
      "outputs": [
        {
          "internalType": "uint256",
          "name": "tokenId",
          "type": "uint256"
        },
        {
          "internalType": "contract IERC721",
          "name": "nft",
          "type": "address"
        },
        {
          "internalType": "contract IERC20",
          "name": "tokenAddress",
          "type": "address"
        },
        {
          "internalType": "uint256",
          "name": "price",
          "type": "uint256"
        },
        {
          "internalType": "address payable",
          "name": "seller",
          "type": "address"
        }
      ],
      "stateMutability": "view",
      "type": "function"
    },
    {
      "inputs": [
        {
          "internalType": "uint256",
          "name": "",
          "type": "uint256"
        },
        {
          "internalType": "address",
          "name": "",
          "type": "address"
        }
      ],
      "name": "itemsForSale",
      "outputs": [
        {
          "internalType": "uint256",
          "name": "tokenId",
          "type": "uint256"
        },
        {
          "internalType": "address",
          "name": "tokenAddress",
          "type": "address"
        },
        {
          "internalType": "address payable",
          "name": "owner",
          "type": "address"
        },
        {
          "internalType": "uint256",
          "name": "askingPrice",
          "type": "uint256"
        },
        {
          "internalType": "address payable",
          "name": "seller",
          "type": "address"
        },
        {
          "internalType": "address",
          "name": "highestBidder",
          "type": "address"
        },
        {
          "internalType": "uint256",
          "name": "endTime",
          "type": "uint256"
        }
      ],
      "stateMutability": "view",
      "type": "function"
    },
    {
      "inputs": [
        {
          "internalType": "contract IERC721",
          "name": "_nft",
          "type": "address"
        },
        {
          "internalType": "contract IERC20",
          "name": "_tokenAddress",
          "type": "address"
        },
        {
          "internalType": "uint256",
          "name": "_tokenId",
          "type": "uint256"
        },
        {
          "internalType": "uint256",
          "name": "_price",
          "type": "uint256"
        }
      ],
      "name": "makeItem",
      "outputs": [],
      "stateMutability": "nonpayable",
      "type": "function"
    },
    {
      "inputs": [
        {
          "internalType": "contract IERC721",
          "name": "_nft",
          "type": "address"
        },
        {
          "internalType": "contract IERC20",
          "name": "_tokenAddress",
          "type": "address"
        },
        {
          "internalType": "uint256[]",
          "name": "_tokenId",
          "type": "uint256[]"
        },
        {
          "internalType": "uint256",
          "name": "_price",
          "type": "uint256"
        }
      ],
      "name": "makeItemBulk",
      "outputs": [],
      "stateMutability": "nonpayable",
      "type": "function"
    },
    {
      "inputs": [
        {
          "internalType": "uint256",
          "name": "_itemId",
          "type": "uint256"
        }
      ],
      "name": "purchaseItem",
      "outputs": [],
      "stateMutability": "payable",
      "type": "function"
    },
    {
      "inputs": [
        {
          "internalType": "bytes32",
          "name": "role",
          "type": "bytes32"
        },
        {
          "internalType": "address",
          "name": "account",
          "type": "address"
        }
      ],
      "name": "renounceRole",
      "outputs": [],
      "stateMutability": "nonpayable",
      "type": "function"
    },
    {
      "inputs": [
        {
          "internalType": "bytes32",
          "name": "role",
          "type": "bytes32"
        },
        {
          "internalType": "address",
          "name": "account",
          "type": "address"
        }
      ],
      "name": "revokeRole",
      "outputs": [],
      "stateMutability": "nonpayable",
      "type": "function"
    },
    {
      "inputs": [
        {
          "internalType": "bytes4",
          "name": "interfaceId",
          "type": "bytes4"
        }
      ],
      "name": "supportsInterface",
      "outputs": [
        {
          "internalType": "bool",
          "name": "",
          "type": "bool"
        }
      ],
      "stateMutability": "view",
      "type": "function"
    },
    {
      "inputs": [
        {
          "internalType": "address",
          "name": "_to",
          "type": "address"
        },
        {
          "internalType": "uint256",
          "name": "_tokenID",
          "type": "uint256"
        }
      ],
      "name": "transferNft",
      "outputs": [],
      "stateMutability": "nonpayable",
      "type": "function"
    },
    {
      "inputs": [
        {
          "internalType": "address",
          "name": "_to",
          "type": "address"
        },
        {
          "internalType": "uint256[]",
          "name": "_tokenIDs",
          "type": "uint256[]"
        }
      ],
      "name": "transferNftBunch",
      "outputs": [],
      "stateMutability": "nonpayable",
      "type": "function"
    },
    {
      "inputs": [
        {
          "internalType": "uint256",
          "name": "_tokenId",
          "type": "uint256"
        },
        {
          "internalType": "address",
          "name": "_tokenAddress",
          "type": "address"
        }
      ],
      "name": "withdraw",
      "outputs": [],
      "stateMutability": "payable",
      "type": "function"
    }
  ],
  "bytecode": "0x60806040523480156200001157600080fd5b50600160009081556200002590336200002b565b620000c3565b6200003782826200003b565b5050565b60008281526001602090815260408083206001600160a01b038516845290915290205460ff16620000375760008281526001602081815260408084206001600160a01b0386168086529252808420805460ff19169093179092559051339285917f2f8788117e7eff1d82e926ec794901d17c78024a50270940304540a733656f0d9190a45050565b61221d80620000d36000396000f3fe60806040526004361061013f5760003560e01c806384262ba7116100b6578063bfb231d21161006f578063bfb231d214610426578063cf7cf2c7146104b4578063d38ea5bf146104ca578063d547741f146104dd578063eca4f6a3146104fd578063f660b3ae1461053857600080fd5b806384262ba7146102e857806391d148541461030857806391fd0ce8146103285780639f04996d14610348578063a217fddf1461035b578063b46878ca1461037057600080fd5b8063248a9ca311610108578063248a9ca31461022e5780632f2ff15d1461025f57806336568abe1461027f57806360cc11211461029f5780636bfb0d01146102bf5780637383d709146102d557600080fd5b8062f714ce1461014457806301ffc9a714610159578063206b60f91461018e57806320c05e07146101d05780632307c193146101f0575b600080fd5b610157610152366004611e1d565b610558565b005b34801561016557600080fd5b50610179610174366004611e4c565b610740565b60405190151581526020015b60405180910390f35b34801561019a57600080fd5b506101c27f8502233096d909befbda0999bb8ea2f3a6be3c138b9fbf003752a4c8bce86f6c81565b604051908152602001610185565b3480156101dc57600080fd5b506101c26101eb366004611f21565b610777565b3480156101fc57600080fd5b506101c261020b366004611d4c565b600660209081526000938452604080852082529284528284209052825290205481565b34801561023a57600080fd5b506101c2610249366004611e05565b6000908152600160208190526040909120015490565b34801561026b57600080fd5b5061015761027a366004611e1d565b610a6e565b34801561028b57600080fd5b5061015761029a366004611e1d565b610a99565b3480156102ab57600080fd5b506101576102ba366004611dda565b610b17565b3480156102cb57600080fd5b506101c260025481565b6101576102e3366004611e1d565b610c6c565b3480156102f457600080fd5b50610157610303366004611d8c565b610ed3565b34801561031457600080fd5b50610179610323366004611e1d565b6110dc565b34801561033457600080fd5b50610157610343366004611e74565b611107565b610157610356366004611e1d565b61136e565b34801561036757600080fd5b506101c2600081565b34801561037c57600080fd5b506103e161038b366004611e1d565b60056020818152600093845260408085209091529183529120805460018201546002830154600384015460048501549585015460069095015493956001600160a01b039384169592841694919390811692169087565b604080519788526001600160a01b0396871660208901529486169487019490945260608601929092528316608085015290911660a083015260c082015260e001610185565b34801561043257600080fd5b50610480610441366004611e05565b60036020819052600091825260409091208054600182015460028301549383015460049093015491936001600160a01b03918216939082169290911685565b604080519586526001600160a01b03948516602087015292841692850192909252606084015216608082015260a001610185565b3480156104c057600080fd5b506101c260045481565b6101576104d8366004611e05565b61155b565b3480156104e957600080fd5b506101576104f8366004611e1d565b6117c6565b34801561050957600080fd5b50610179610518366004611dda565b600760209081526000928352604080842090915290825290205460ff1681565b34801561054457600080fd5b50610157610553366004611edc565b6117ec565b60008281526005602090815260408083206001600160a01b038516845290915290206006015442116105d15760405162461bcd60e51b815260206004820152601d60248201527f41756374696f6e206973206e6f7420636f6d706c65746564207965742100000060448201526064015b60405180910390fd5b3360009081526006602090815260408083206001600160a01b038516845282528083208584529091529020546106385760405162461bcd60e51b815260206004820152600c60248201526b24b73b30b634b2102ab9b2b960a11b60448201526064016105c8565b60008281526005602081815260408084206001600160a01b03868116865292529092200154163314156106e25760405162461bcd60e51b815260206004820152604660248201527f486967657374204269646465722120796f752063616e6e6f742077697468647260448201527f617720756e74696c6c20616e6f7468657220686967686573742062696464657260648201526520636f6d657360d01b608482015260a4016105c8565b3360008181526006602090815260408083206001600160a01b0386168452825280832086845290915280822054905190929183156108fc02918491818181858888f1935050505015801561073a573d6000803e3d6000fd5b50505050565b60006001600160e01b03198216637965db0b60e01b148061077157506301ffc9a760e01b6001600160e01b03198316145b92915050565b60006002600054141561079c5760405162461bcd60e51b81526004016105c8906120b1565b6002600055826107be5760405162461bcd60e51b81526004016105c89061207a565b6040518060e00160405280868152602001856001600160a01b03168152602001336001600160a01b03168152602001848152602001306001600160a01b03168152602001336001600160a01b0316815260200183815250600560008781526020019081526020016000206000866001600160a01b03166001600160a01b031681526020019081526020016000206000820151816000015560208201518160010160006101000a8154816001600160a01b0302191690836001600160a01b0316021790555060408201518160020160006101000a8154816001600160a01b0302191690836001600160a01b031602179055506060820151816003015560808201518160040160006101000a8154816001600160a01b0302191690836001600160a01b0316021790555060a08201518160050160006101000a8154816001600160a01b0302191690836001600160a01b0316021790555060c0820151816006015590505084600560008781526020019081526020016000206000866001600160a01b03166001600160a01b03168152602001908152602001600020600001541461097657634e487b7160e01b600052600160045260246000fd5b6001600160a01b038416600081815260076020908152604080832089845290915290819020805460ff19166001179055516323b872dd60e01b81526323b872dd906109c990339030908a90600401611ff7565b600060405180830381600087803b1580156109e357600080fd5b505af11580156109f7573d6000803e3d6000fd5b505060048054925090506000610a0c8361218b565b909155505060408051868152602081018790526001600160a01b038616818301526060810185905290517fd3742413e0092c98517699ed9f8567218c740a5a265a7a986d9430d5979375229181900360800190a1505060016000555090919050565b60008281526001602081905260409091200154610a8a81611982565b610a94838361198f565b505050565b6001600160a01b0381163314610b095760405162461bcd60e51b815260206004820152602f60248201527f416363657373436f6e74726f6c3a2063616e206f6e6c792072656e6f756e636560448201526e103937b632b9903337b91039b2b63360891b60648201526084016105c8565b610b1382826119fa565b5050565b610b417f8502233096d909befbda0999bb8ea2f3a6be3c138b9fbf003752a4c8bce86f6c336110dc565b610b765760405162461bcd60e51b81526004016105c8906020808252600490820152630307830360e41b604082015260600190565b600081815260036020818152604092839020835160a0810185528154815260018201546001600160a01b03908116938201849052600283015481168287015293820154606082015260049182015490931660808401529251632142170760e11b8152919290916342842e0e91610bf29130918891889101611ff7565b600060405180830381600087803b158015610c0c57600080fd5b505af1158015610c20573d6000803e3d6000fd5b5050604080516001600160a01b0387168152602081018690527f5552bf9d963fa46a44d123c71c89a0e4d2ed436fbdfe38669e39c975f6f3124d935001905060405180910390a1505050565b60026000541415610c8f5760405162461bcd60e51b81526004016105c8906120b1565b600260009081558281526005602090815260408083206001600160a01b03851684529091529020600601544211610d085760405162461bcd60e51b815260206004820152601d60248201527f41756374696f6e206973206e6f7420636f6d706c65746564207965742100000060448201526064016105c8565b60008281526005602081815260408084206001600160a01b03868116865292528084208481556001810180546001600160a01b03199081168255600283018054821690556003830187905560048084018054831690559583018054909116815560068301969096557fc65916d663d52b0a18b63681e34ad6e3e8bb58d57f662b8e7e045ab09fab0385805460ff19169055549454905491516323b872dd60e01b8152948316946323b872dd94610dc49430949316929101611ff7565b600060405180830381600087803b158015610dde57600080fd5b505af1158015610df2573d6000803e3d6000fd5b50505060008381526005602090815260408083206001600160a01b038681168552925280832060048101546003909101549151921693506108fc81150292909190818181858888f19350505050158015610e50573d6000803e3d6000fd5b5060048054906000610e6183612174565b909155505060008281526005602090815260408083206001600160a01b038516845282529182902060030154825185815233928101929092528183015290517f8164c6f8917e418c49813e4586897c7067de5a886aa1bea980cd11fa57d482649181900360600190a150506001600055565b610efd7f8502233096d909befbda0999bb8ea2f3a6be3c138b9fbf003752a4c8bce86f6c336110dc565b610f325760405162461bcd60e51b81526004016105c8906020808252600490820152630307830360e41b604082015260600190565b6096815110610f6c5760405162461bcd60e51b81526004016105c8906020808252600490820152633078303160e01b604082015260600190565b60005b815181101561109e57600060036000848481518110610f9e57634e487b7160e01b600052603260045260246000fd5b6020908102919091018101518252818101929092526040908101600020815160a0810183528154815260018201546001600160a01b03908116948201859052600283015481169382019390935260038201546060820152600490910154909116608082015284519092506342842e0e903090879087908790811061103257634e487b7160e01b600052603260045260246000fd5b60200260200101516040518463ffffffff1660e01b815260040161105893929190611ff7565b600060405180830381600087803b15801561107257600080fd5b505af1158015611086573d6000803e3d6000fd5b505050505080806110969061218b565b915050610f6f565b507f2fa4d4f6ec676e2a2025c70c2f9742fd54313c679c889ab9867e9ace4a24a5f382826040516110d092919061201b565b60405180910390a15050565b60009182526001602090815260408084206001600160a01b0393909316845291905290205460ff1690565b6002600054141561112a5760405162461bcd60e51b81526004016105c8906120b1565b60026000558061114c5760405162461bcd60e51b81526004016105c89061207a565b60005b825181101561131157600280549060006111688361218b565b9190505550846001600160a01b03166323b872dd333086858151811061119e57634e487b7160e01b600052603260045260246000fd5b60200260200101516040518463ffffffff1660e01b81526004016111c493929190611ff7565b600060405180830381600087803b1580156111de57600080fd5b505af11580156111f2573d6000803e3d6000fd5b505050506040518060a0016040528084838151811061122157634e487b7160e01b600052603260045260246000fd5b60200260200101518152602001866001600160a01b03168152602001856001600160a01b03168152602001838152602001336001600160a01b03168152506003600085848151811061128357634e487b7160e01b600052603260045260246000fd5b602090810291909101810151825281810192909252604090810160002083518155918301516001830180546001600160a01b039283166001600160a01b031991821617909155918401516002840180549183169184169190911790556060840151600384015560809093015160049092018054929093169116179055806113098161218b565b91505061114f565b50336001600160a01b0316846001600160a01b03167f81ec4ebb2ca1e624a0f44aba0ca6199cc2cfa6f3815bbccb9d11c0479ad12cdc600254858560405161135b939291906120e8565b60405180910390a3505060016000555050565b3360009081526006602090815260408083206001600160a01b03851684528252808320858452909152902054156113d85760405162461bcd60e51b815260206004820152600e60248201526d105b1c9958591e48189a5919195960921b60448201526064016105c8565b60008281526005602090815260408083206001600160a01b038516845290915290206006015442106114455760405162461bcd60e51b8152602060048201526016602482015275105d58dd1a5bdb881a185cc81899595b88195b99195960521b60448201526064016105c8565b60008281526005602090815260408083206001600160a01b038516845290915290206003015434116114ca5760405162461bcd60e51b815260206004820152602860248201527f416d6f756e74206d7573742062652067726561746572207468656e20707265766044820152671a5bdd5cc8189a5960c21b60648201526084016105c8565b3360008181526006602090815260408083206001600160a01b0386168085529083528184208785528352818420349081905560058085528386209286529184529382902090810180546001600160a01b031916861790556003018390558051938452908301919091527ff997a6d4f7e851f3ba7f0d820c1448b6c4880e7de7a2e79a2e477927ff16881491016110d0565b6002600054141561157e5760405162461bcd60e51b81526004016105c8906120b1565b60026000908155818152600360208190526040909120908101549082158015906115aa57506002548311155b6115eb5760405162461bcd60e51b81526020600482015260126024820152711a5d195b48191bd95cdb89dd08195e1a5cdd60721b60448201526064016105c8565b813410156116575760405162461bcd60e51b815260206004820152603360248201527f6e6f7420656e6f75676820657468657220746f20636f766572206974656d20706044820152727269636520616e64206d61726b65742066656560681b60648201526084016105c8565b600481015460038201546040516001600160a01b039092169181156108fc0291906000818181858888f19350505050158015611697573d6000803e3d6000fd5b506000838152600360208190526040808320838155600180820180546001600160a01b031990811690915560028301805482169055938201949094556004908101805490931690925591830154835492516323b872dd60e01b81526001600160a01b03909116926323b872dd926117149230923392909101611ff7565b600060405180830381600087803b15801561172e57600080fd5b505af1158015611742573d6000803e3d6000fd5b50506002805492509050600061175783612174565b9091555050600481015460018201548254600384015460408051888152602081019390935282015233926001600160a01b039081169216907f8b4c9c8a607d67b321582dd8461041b1dc2ceeca70c8b7f37f8e02095cf2e76d9060600160405180910390a45050600160005550565b600082815260016020819052604090912001546117e281611982565b610a9483836119fa565b6002600054141561180f5760405162461bcd60e51b81526004016105c8906120b1565b6002600055806118315760405162461bcd60e51b81526004016105c89061207a565b600280549060006118418361218b565b90915550506040516323b872dd60e01b81526001600160a01b038516906323b872dd9061187690339030908790600401611ff7565b600060405180830381600087803b15801561189057600080fd5b505af11580156118a4573d6000803e3d6000fd5b50506040805160a0810182528581526001600160a01b0388811660208084018281528a841685870190815260608087018b8152336080890181815260008f81526003808952908c90209a518b55955160018b0180546001600160a01b0319908116928c1692909217905594516002808c0180548816928c16929092179091559251958a0195909555935160049098018054909316979096169690961790559254855190815290810189905293840187905290945092507f8dd482814e05465f9a30f97da7c50e19fecaef5b60dafd5bfd3d14e287c22820910161135b565b61198c8133611a61565b50565b61199982826110dc565b610b135760008281526001602081815260408084206001600160a01b0386168086529252808420805460ff19169093179092559051339285917f2f8788117e7eff1d82e926ec794901d17c78024a50270940304540a733656f0d9190a45050565b611a0482826110dc565b15610b135760008281526001602090815260408083206001600160a01b0385168085529252808320805460ff1916905551339285917ff6391f5c32d9c69d2a47ea670b442974b53935d1edc7fd64eb21e047a839171b9190a45050565b611a6b82826110dc565b610b1357611a83816001600160a01b03166014611ac5565b611a8e836020611ac5565b604051602001611a9f929190611f82565b60408051601f198184030181529082905262461bcd60e51b82526105c891600401612047565b60606000611ad4836002612129565b611adf906002612111565b67ffffffffffffffff811115611b0557634e487b7160e01b600052604160045260246000fd5b6040519080825280601f01601f191660200182016040528015611b2f576020820181803683370190505b509050600360fc1b81600081518110611b5857634e487b7160e01b600052603260045260246000fd5b60200101906001600160f81b031916908160001a905350600f60fb1b81600181518110611b9557634e487b7160e01b600052603260045260246000fd5b60200101906001600160f81b031916908160001a9053506000611bb9846002612129565b611bc4906001612111565b90505b6001811115611c58576f181899199a1a9b1b9c1cb0b131b232b360811b85600f1660108110611c0657634e487b7160e01b600052603260045260246000fd5b1a60f81b828281518110611c2a57634e487b7160e01b600052603260045260246000fd5b60200101906001600160f81b031916908160001a90535060049490941c93611c5181612174565b9050611bc7565b508315611ca75760405162461bcd60e51b815260206004820181905260248201527f537472696e67733a20686578206c656e67746820696e73756666696369656e7460448201526064016105c8565b9392505050565b600082601f830112611cbe578081fd5b8135602067ffffffffffffffff80831115611cdb57611cdb6121bc565b8260051b604051601f19603f83011681018181108482111715611d0057611d006121bc565b60405284815283810192508684018288018501891015611d1e578687fd5b8692505b85831015611d40578035845292840192600192909201918401611d22565b50979650505050505050565b600080600060608486031215611d60578283fd5b8335611d6b816121d2565b92506020840135611d7b816121d2565b929592945050506040919091013590565b60008060408385031215611d9e578182fd5b8235611da9816121d2565b9150602083013567ffffffffffffffff811115611dc4578182fd5b611dd085828601611cae565b9150509250929050565b60008060408385031215611dec578182fd5b8235611df7816121d2565b946020939093013593505050565b600060208284031215611e16578081fd5b5035919050565b60008060408385031215611e2f578182fd5b823591506020830135611e41816121d2565b809150509250929050565b600060208284031215611e5d578081fd5b81356001600160e01b031981168114611ca7578182fd5b60008060008060808587031215611e89578081fd5b8435611e94816121d2565b93506020850135611ea4816121d2565b9250604085013567ffffffffffffffff811115611ebf578182fd5b611ecb87828801611cae565b949793965093946060013593505050565b60008060008060808587031215611ef1578384fd5b8435611efc816121d2565b93506020850135611f0c816121d2565b93969395505050506040820135916060013590565b60008060008060808587031215611f36578384fd5b843593506020850135611f0c816121d2565b6000815180845260208085019450808401835b83811015611f7757815187529582019590820190600101611f5b565b509495945050505050565b7f416363657373436f6e74726f6c3a206163636f756e7420000000000000000000815260008351611fba816017850160208801612148565b7001034b99036b4b9b9b4b733903937b6329607d1b6017918401918201528351611feb816028840160208801612148565b01602801949350505050565b6001600160a01b039384168152919092166020820152604081019190915260600190565b6001600160a01b038316815260406020820181905260009061203f90830184611f48565b949350505050565b6020815260008251806020840152612066816040850160208701612148565b601f01601f19169190910160400192915050565b6020808252601f908201527f5072696365206d7573742062652067726561746572207468616e207a65726f00604082015260600190565b6020808252601f908201527f5265656e7472616e637947756172643a207265656e7472616e742063616c6c00604082015260600190565b8381526060602082015260006121016060830185611f48565b9050826040830152949350505050565b60008219821115612124576121246121a6565b500190565b6000816000190483118215151615612143576121436121a6565b500290565b60005b8381101561216357818101518382015260200161214b565b8381111561073a5750506000910152565b600081612183576121836121a6565b506000190190565b600060001982141561219f5761219f6121a6565b5060010190565b634e487b7160e01b600052601160045260246000fd5b634e487b7160e01b600052604160045260246000fd5b6001600160a01b038116811461198c57600080fdfea26469706673582212207312cc45ecc5801ae33c1e33bc29fca946ac235d2cba5b09f1eba9248e97710a64736f6c63430008040033",
  "linkReferences": {},
  "deployedLinkReferences": {}
}