{
  "_format": "hh-sol-artifact-1",
  "contractName": "ObscuraNFT",
  "sourceName": "src/backend/contracts/ObscuraNFT.sol",
  "abi": [
    {
      "inputs": [
        {
          "internalType": "address",
          "name": "_adminRole",
          "type": "address"
        },
        {
          "internalType": "string",
          "name": "_tokenUri",
          "type": "string"
        }
      ],
      "stateMutability": "nonpayable",
      "type": "constructor"
    },
    {
      "anonymous": false,
      "inputs": [
        {
          "indexed": true,
          "internalType": "address",
          "name": "owner",
          "type": "address"
        },
        {
          "indexed": true,
          "internalType": "address",
          "name": "approved",
          "type": "address"
        },
        {
          "indexed": true,
          "internalType": "uint256",
          "name": "tokenId",
          "type": "uint256"
        }
      ],
      "name": "Approval",
      "type": "event"
    },
    {
      "anonymous": false,
      "inputs": [
        {
          "indexed": true,
          "internalType": "address",
          "name": "owner",
          "type": "address"
        },
        {
          "indexed": true,
          "internalType": "address",
          "name": "operator",
          "type": "address"
        },
        {
          "indexed": false,
          "internalType": "bool",
          "name": "approved",
          "type": "bool"
        }
      ],
      "name": "ApprovalForAll",
      "type": "event"
    },
    {
      "anonymous": false,
      "inputs": [
        {
          "indexed": true,
          "internalType": "bytes32",
          "name": "role",
          "type": "bytes32"
        },
        {
          "indexed": true,
          "internalType": "bytes32",
          "name": "previousAdminRole",
          "type": "bytes32"
        },
        {
          "indexed": true,
          "internalType": "bytes32",
          "name": "newAdminRole",
          "type": "bytes32"
        }
      ],
      "name": "RoleAdminChanged",
      "type": "event"
    },
    {
      "anonymous": false,
      "inputs": [
        {
          "indexed": true,
          "internalType": "bytes32",
          "name": "role",
          "type": "bytes32"
        },
        {
          "indexed": true,
          "internalType": "address",
          "name": "account",
          "type": "address"
        },
        {
          "indexed": true,
          "internalType": "address",
          "name": "sender",
          "type": "address"
        }
      ],
      "name": "RoleGranted",
      "type": "event"
    },
    {
      "anonymous": false,
      "inputs": [
        {
          "indexed": true,
          "internalType": "bytes32",
          "name": "role",
          "type": "bytes32"
        },
        {
          "indexed": true,
          "internalType": "address",
          "name": "account",
          "type": "address"
        },
        {
          "indexed": true,
          "internalType": "address",
          "name": "sender",
          "type": "address"
        }
      ],
      "name": "RoleRevoked",
      "type": "event"
    },
    {
      "anonymous": false,
      "inputs": [
        {
          "indexed": true,
          "internalType": "address",
          "name": "from",
          "type": "address"
        },
        {
          "indexed": true,
          "internalType": "address",
          "name": "to",
          "type": "address"
        },
        {
          "indexed": true,
          "internalType": "uint256",
          "name": "tokenId",
          "type": "uint256"
        }
      ],
      "name": "Transfer",
      "type": "event"
    },
    {
      "anonymous": false,
      "inputs": [
        {
          "indexed": false,
          "internalType": "uint256",
          "name": "_price",
          "type": "uint256"
        }
      ],
      "name": "mintPrice",
      "type": "event"
    },
    {
      "anonymous": false,
      "inputs": [
        {
          "indexed": false,
          "internalType": "address",
          "name": "_minter",
          "type": "address"
        },
        {
          "indexed": false,
          "internalType": "uint256",
          "name": "_tokenId",
          "type": "uint256"
        }
      ],
      "name": "mintToken",
      "type": "event"
    },
    {
      "anonymous": false,
      "inputs": [
        {
          "indexed": false,
          "internalType": "bool",
          "name": "isReveal",
          "type": "bool"
        }
      ],
      "name": "revealNft",
      "type": "event"
    },
    {
      "anonymous": false,
      "inputs": [
        {
          "indexed": false,
          "internalType": "string",
          "name": "_tokenUri",
          "type": "string"
        }
      ],
      "name": "setTokenURI",
      "type": "event"
    },
    {
      "inputs": [],
      "name": "DEFAULT_ADMIN_ROLE",
      "outputs": [
        {
          "internalType": "bytes32",
          "name": "",
          "type": "bytes32"
        }
      ],
      "stateMutability": "view",
      "type": "function"
    },
    {
      "inputs": [],
      "name": "REVEAL_ROLE",
      "outputs": [
        {
          "internalType": "bytes32",
          "name": "",
          "type": "bytes32"
        }
      ],
      "stateMutability": "view",
      "type": "function"
    },
    {
      "inputs": [
        {
          "internalType": "address",
          "name": "to",
          "type": "address"
        },
        {
          "internalType": "uint256",
          "name": "tokenId",
          "type": "uint256"
        }
      ],
      "name": "approve",
      "outputs": [],
      "stateMutability": "nonpayable",
      "type": "function"
    },
    {
      "inputs": [
        {
          "internalType": "address",
          "name": "owner",
          "type": "address"
        }
      ],
      "name": "balanceOf",
      "outputs": [
        {
          "internalType": "uint256",
          "name": "",
          "type": "uint256"
        }
      ],
      "stateMutability": "view",
      "type": "function"
    },
    {
      "inputs": [
        {
          "internalType": "uint256",
          "name": "tokenId",
          "type": "uint256"
        }
      ],
      "name": "getApproved",
      "outputs": [
        {
          "internalType": "address",
          "name": "",
          "type": "address"
        }
      ],
      "stateMutability": "view",
      "type": "function"
    },
    {
      "inputs": [
        {
          "internalType": "bytes32",
          "name": "role",
          "type": "bytes32"
        }
      ],
      "name": "getRoleAdmin",
      "outputs": [
        {
          "internalType": "bytes32",
          "name": "",
          "type": "bytes32"
        }
      ],
      "stateMutability": "view",
      "type": "function"
    },
    {
      "inputs": [
        {
          "internalType": "bytes32",
          "name": "role",
          "type": "bytes32"
        },
        {
          "internalType": "address",
          "name": "account",
          "type": "address"
        }
      ],
      "name": "grantRole",
      "outputs": [],
      "stateMutability": "nonpayable",
      "type": "function"
    },
    {
      "inputs": [
        {
          "internalType": "bytes32",
          "name": "role",
          "type": "bytes32"
        },
        {
          "internalType": "address",
          "name": "account",
          "type": "address"
        }
      ],
      "name": "hasRole",
      "outputs": [
        {
          "internalType": "bool",
          "name": "",
          "type": "bool"
        }
      ],
      "stateMutability": "view",
      "type": "function"
    },
    {
      "inputs": [
        {
          "internalType": "address",
          "name": "owner",
          "type": "address"
        },
        {
          "internalType": "address",
          "name": "operator",
          "type": "address"
        }
      ],
      "name": "isApprovedForAll",
      "outputs": [
        {
          "internalType": "bool",
          "name": "",
          "type": "bool"
        }
      ],
      "stateMutability": "view",
      "type": "function"
    },
    {
      "inputs": [],
      "name": "isRevealed",
      "outputs": [
        {
          "internalType": "bool",
          "name": "",
          "type": "bool"
        }
      ],
      "stateMutability": "view",
      "type": "function"
    },
    {
      "inputs": [
        {
          "internalType": "uint256",
          "name": "_tokenId",
          "type": "uint256"
        }
      ],
      "name": "mint",
      "outputs": [],
      "stateMutability": "payable",
      "type": "function"
    },
    {
      "inputs": [],
      "name": "mintingPrice",
      "outputs": [
        {
          "internalType": "uint256",
          "name": "",
          "type": "uint256"
        }
      ],
      "stateMutability": "view",
      "type": "function"
    },
    {
      "inputs": [],
      "name": "name",
      "outputs": [
        {
          "internalType": "string",
          "name": "",
          "type": "string"
        }
      ],
      "stateMutability": "view",
      "type": "function"
    },
    {
      "inputs": [
        {
          "internalType": "uint256",
          "name": "tokenId",
          "type": "uint256"
        }
      ],
      "name": "ownerOf",
      "outputs": [
        {
          "internalType": "address",
          "name": "",
          "type": "address"
        }
      ],
      "stateMutability": "view",
      "type": "function"
    },
    {
      "inputs": [
        {
          "internalType": "bytes32",
          "name": "role",
          "type": "bytes32"
        },
        {
          "internalType": "address",
          "name": "account",
          "type": "address"
        }
      ],
      "name": "renounceRole",
      "outputs": [],
      "stateMutability": "nonpayable",
      "type": "function"
    },
    {
      "inputs": [
        {
          "internalType": "bool",
          "name": "_revealStatus",
          "type": "bool"
        }
      ],
      "name": "reveal",
      "outputs": [],
      "stateMutability": "nonpayable",
      "type": "function"
    },
    {
      "inputs": [
        {
          "internalType": "bytes32",
          "name": "role",
          "type": "bytes32"
        },
        {
          "internalType": "address",
          "name": "account",
          "type": "address"
        }
      ],
      "name": "revokeRole",
      "outputs": [],
      "stateMutability": "nonpayable",
      "type": "function"
    },
    {
      "inputs": [
        {
          "internalType": "address",
          "name": "from",
          "type": "address"
        },
        {
          "internalType": "address",
          "name": "to",
          "type": "address"
        },
        {
          "internalType": "uint256",
          "name": "tokenId",
          "type": "uint256"
        }
      ],
      "name": "safeTransferFrom",
      "outputs": [],
      "stateMutability": "nonpayable",
      "type": "function"
    },
    {
      "inputs": [
        {
          "internalType": "address",
          "name": "from",
          "type": "address"
        },
        {
          "internalType": "address",
          "name": "to",
          "type": "address"
        },
        {
          "internalType": "uint256",
          "name": "tokenId",
          "type": "uint256"
        },
        {
          "internalType": "bytes",
          "name": "data",
          "type": "bytes"
        }
      ],
      "name": "safeTransferFrom",
      "outputs": [],
      "stateMutability": "nonpayable",
      "type": "function"
    },
    {
      "inputs": [
        {
          "internalType": "address",
          "name": "operator",
          "type": "address"
        },
        {
          "internalType": "bool",
          "name": "approved",
          "type": "bool"
        }
      ],
      "name": "setApprovalForAll",
      "outputs": [],
      "stateMutability": "nonpayable",
      "type": "function"
    },
    {
      "inputs": [
        {
          "internalType": "uint256",
          "name": "_price",
          "type": "uint256"
        }
      ],
      "name": "setPrice",
      "outputs": [],
      "stateMutability": "nonpayable",
      "type": "function"
    },
    {
      "inputs": [
        {
          "internalType": "string",
          "name": "_uri",
          "type": "string"
        }
      ],
      "name": "setURI",
      "outputs": [],
      "stateMutability": "nonpayable",
      "type": "function"
    },
    {
      "inputs": [
        {
          "internalType": "bytes4",
          "name": "interfaceId",
          "type": "bytes4"
        }
      ],
      "name": "supportsInterface",
      "outputs": [
        {
          "internalType": "bool",
          "name": "",
          "type": "bool"
        }
      ],
      "stateMutability": "view",
      "type": "function"
    },
    {
      "inputs": [],
      "name": "symbol",
      "outputs": [
        {
          "internalType": "string",
          "name": "",
          "type": "string"
        }
      ],
      "stateMutability": "view",
      "type": "function"
    },
    {
      "inputs": [
        {
          "internalType": "uint256",
          "name": "_tokenId",
          "type": "uint256"
        }
      ],
      "name": "tokenURI",
      "outputs": [
        {
          "internalType": "string",
          "name": "",
          "type": "string"
        }
      ],
      "stateMutability": "view",
      "type": "function"
    },
    {
      "inputs": [],
      "name": "totalSupply",
      "outputs": [
        {
          "internalType": "uint256",
          "name": "",
          "type": "uint256"
        }
      ],
      "stateMutability": "view",
      "type": "function"
    },
    {
      "inputs": [
        {
          "internalType": "address",
          "name": "from",
          "type": "address"
        },
        {
          "internalType": "address",
          "name": "to",
          "type": "address"
        },
        {
          "internalType": "uint256",
          "name": "tokenId",
          "type": "uint256"
        }
      ],
      "name": "transferFrom",
      "outputs": [],
      "stateMutability": "nonpayable",
      "type": "function"
    }
  ],
  "bytecode": "0x6000600855600b805460ff1916905560c06040526005608081905264173539b7b760d91b60a09081526200003791600c91906200059d565b503480156200004557600080fd5b506040516200294838038062002948833981016040819052620000689162000643565b604080518082018252600b81526a13d094d0d554904813919560aa1b6020808301918252835180850190945260038452624f425360e81b908401528151919291620000b6916000916200059d565b508051620000cc9060019060208401906200059d565b50620000de9150600090508362000154565b620000eb60003362000154565b620001167e6b97d3b00e0cfa27932db8d8710f84e2b8d72f339a1e910bf97a09597e99d68362000164565b620001417e6b97d3b00e0cfa27932db8d8710f84e2b8d72f339a1e910bf97a09597e99d63362000164565b6200014c8162000192565b505062000968565b62000160828262000251565b5050565b6000828152600760205260409020600101546200018181620002f5565b6200018d838362000251565b505050565b3360009081527f186a636b53b357115ea3970613a8528f4435ca852b65799ed26b6de46f837141602052604090205460ff16620001fe5760405162461bcd60e51b8152602060048201526005602482015264307830303160d81b60448201526064015b60405180910390fd5b80516200021390600a9060208401906200059d565b507fe0df5b6ffbd030a3af4155a9c2b04490db8566fcefd3d7007f872806e1d5bde3600a604051620002469190620007c7565b60405180910390a150565b60008281526007602090815260408083206001600160a01b038516845290915290205460ff16620001605760008281526007602090815260408083206001600160a01b03851684529091529020805460ff19166001179055620002b13390565b6001600160a01b0316816001600160a01b0316837f2f8788117e7eff1d82e926ec794901d17c78024a50270940304540a733656f0d60405160405180910390a45050565b62000301813362000304565b50565b60008281526007602090815260408083206001600160a01b038516845290915290205460ff16620001605762000350816001600160a01b03166014620003a160201b62000d131760201c565b6200036683602062000d13620003a1821b17811c565b6040516020016200037992919062000719565b60408051601f198184030181529082905262461bcd60e51b8252620001f59160040162000792565b60606000620003b283600262000890565b620003bf90600262000875565b6001600160401b03811115620003e557634e487b7160e01b600052604160045260246000fd5b6040519080825280601f01601f19166020018201604052801562000410576020820181803683370190505b509050600360fc1b816000815181106200043a57634e487b7160e01b600052603260045260246000fd5b60200101906001600160f81b031916908160001a905350600f60fb1b816001815181106200047857634e487b7160e01b600052603260045260246000fd5b60200101906001600160f81b031916908160001a90535060006200049e84600262000890565b620004ab90600162000875565b90505b600181111562000545576f181899199a1a9b1b9c1cb0b131b232b360811b85600f1660108110620004ef57634e487b7160e01b600052603260045260246000fd5b1a60f81b8282815181106200051457634e487b7160e01b600052603260045260246000fd5b60200101906001600160f81b031916908160001a90535060049490941c936200053d81620008e5565b9050620004ae565b508315620005965760405162461bcd60e51b815260206004820181905260248201527f537472696e67733a20686578206c656e67746820696e73756666696369656e746044820152606401620001f5565b9392505050565b828054620005ab90620008ff565b90600052602060002090601f016020900481019282620005cf57600085556200061a565b82601f10620005ea57805160ff19168380011785556200061a565b828001600101855582156200061a579182015b828111156200061a578251825591602001919060010190620005fd565b50620006289291506200062c565b5090565b5b808211156200062857600081556001016200062d565b6000806040838503121562000656578182fd5b82516001600160a01b03811681146200066d578283fd5b60208401519092506001600160401b03808211156200068a578283fd5b818501915085601f8301126200069e578283fd5b815181811115620006b357620006b362000952565b604051601f8201601f19908116603f01168101908382118183101715620006de57620006de62000952565b81604052828152886020848701011115620006f7578586fd5b6200070a836020830160208801620008b2565b80955050505050509250929050565b7f416363657373436f6e74726f6c3a206163636f756e742000000000000000000081526000835162000753816017850160208801620008b2565b7001034b99036b4b9b9b4b733903937b6329607d1b601791840191820152835162000786816028840160208801620008b2565b01602801949350505050565b6020815260008251806020840152620007b3816040850160208701620008b2565b601f01601f19169190910160400192915050565b6000602080835281845483600182811c915080831680620007e957607f831692505b8583108114156200080857634e487b7160e01b87526022600452602487fd5b8786018381526020018180156200082857600181146200083a5762000866565b60ff1986168252878201965062000866565b60008b815260209020895b86811015620008605781548482015290850190890162000845565b83019750505b50949998505050505050505050565b600082198211156200088b576200088b6200093c565b500190565b6000816000190483118215151615620008ad57620008ad6200093c565b500290565b60005b83811015620008cf578181015183820152602001620008b5565b83811115620008df576000848401525b50505050565b600081620008f757620008f76200093c565b506000190190565b600181811c908216806200091457607f821691505b602082108114156200093657634e487b7160e01b600052602260045260246000fd5b50919050565b634e487b7160e01b600052601160045260246000fd5b634e487b7160e01b600052604160045260246000fd5b611fd080620009786000396000f3fe60806040526004361061019c5760003560e01c80635f1770a2116100ec578063a0712d681161008a578063b88d4fde11610064578063b88d4fde146104a0578063c87b56dd146104c0578063d547741f146104e0578063e985e9c51461050057600080fd5b8063a0712d6814610458578063a217fddf1461046b578063a22cb4651461048057600080fd5b806391b7f5ed116100c657806391b7f5ed146103e357806391d1485414610403578063940cd05b1461042357806395d89b411461044357600080fd5b80635f1770a2146103705780636352211e146103a357806370a08231146103c357600080fd5b806323b872dd1161015957806335db70b51161013357806335db70b51461030157806336568abe1461031657806342842e0e1461033657806354214f691461035657600080fd5b806323b872dd14610291578063248a9ca3146102b15780632f2ff15d146102e157600080fd5b806301ffc9a7146101a157806302fe5305146101d657806306fdde03146101f8578063081812fc1461021a578063095ea7b31461025257806318160ddd14610272575b600080fd5b3480156101ad57600080fd5b506101c16101bc366004611b0b565b610549565b60405190151581526020015b60405180910390f35b3480156101e257600080fd5b506101f66101f1366004611b43565b610569565b005b34801561020457600080fd5b5061020d61061a565b6040516101cd9190611cff565b34801561022657600080fd5b5061023a610235366004611ad1565b6106ac565b6040516001600160a01b0390911681526020016101cd565b34801561025e57600080fd5b506101f661026d366004611a8e565b6106d3565b34801561027e57600080fd5b506008545b6040519081526020016101cd565b34801561029d57600080fd5b506101f66102ac3660046119b1565b6107e9565b3480156102bd57600080fd5b506102836102cc366004611ad1565b60009081526007602052604090206001015490565b3480156102ed57600080fd5b506101f66102fc366004611ae9565b61081a565b34801561030d57600080fd5b50600954610283565b34801561032257600080fd5b506101f6610331366004611ae9565b61083f565b34801561034257600080fd5b506101f66103513660046119b1565b6108bd565b34801561036257600080fd5b50600b546101c19060ff1681565b34801561037c57600080fd5b506102837e6b97d3b00e0cfa27932db8d8710f84e2b8d72f339a1e910bf97a09597e99d681565b3480156103af57600080fd5b5061023a6103be366004611ad1565b6108d8565b3480156103cf57600080fd5b506102836103de366004611965565b610938565b3480156103ef57600080fd5b506101f66103fe366004611ad1565b6109be565b34801561040f57600080fd5b506101c161041e366004611ae9565b6109f3565b34801561042f57600080fd5b506101f661043e366004611ab7565b610a1e565b34801561044f57600080fd5b5061020d610ac3565b6101f6610466366004611ad1565b610ad2565b34801561047757600080fd5b50610283600081565b34801561048c57600080fd5b506101f661049b366004611a65565b610b6e565b3480156104ac57600080fd5b506101f66104bb3660046119ec565b610b79565b3480156104cc57600080fd5b5061020d6104db366004611ad1565b610bb1565b3480156104ec57600080fd5b506101f66104fb366004611ae9565b610cee565b34801561050c57600080fd5b506101c161051b36600461197f565b6001600160a01b03918216600090815260056020908152604080832093909416825291909152205460ff1690565b600061055482610ef5565b80610563575061056382610f45565b92915050565b6105927e6b97d3b00e0cfa27932db8d8710f84e2b8d72f339a1e910bf97a09597e99d6336109f3565b6105cb5760405162461bcd60e51b8152602060048201526005602482015264307830303160d81b60448201526064015b60405180910390fd5b80516105de90600a90602084019061182a565b507fe0df5b6ffbd030a3af4155a9c2b04490db8566fcefd3d7007f872806e1d5bde3600a60405161060f9190611d12565b60405180910390a150565b60606000805461062990611ed8565b80601f016020809104026020016040519081016040528092919081815260200182805461065590611ed8565b80156106a25780601f10610677576101008083540402835291602001916106a2565b820191906000526020600020905b81548152906001019060200180831161068557829003601f168201915b5050505050905090565b60006106b782610f6a565b506000908152600460205260409020546001600160a01b031690565b60006106de826108d8565b9050806001600160a01b0316836001600160a01b0316141561074c5760405162461bcd60e51b815260206004820152602160248201527f4552433732313a20617070726f76616c20746f2063757272656e74206f776e656044820152603960f91b60648201526084016105c2565b336001600160a01b03821614806107685750610768813361051b565b6107da5760405162461bcd60e51b815260206004820152603e60248201527f4552433732313a20617070726f76652063616c6c6572206973206e6f7420746f60448201527f6b656e206f776e6572206e6f7220617070726f76656420666f7220616c6c000060648201526084016105c2565b6107e48383610fcc565b505050565b6107f3338261103a565b61080f5760405162461bcd60e51b81526004016105c290611de5565b6107e48383836110b9565b60008281526007602052604090206001015461083581611255565b6107e4838361125f565b6001600160a01b03811633146108af5760405162461bcd60e51b815260206004820152602f60248201527f416363657373436f6e74726f6c3a2063616e206f6e6c792072656e6f756e636560448201526e103937b632b9903337b91039b2b63360891b60648201526084016105c2565b6108b982826112e5565b5050565b6107e483838360405180602001604052806000815250610b79565b6000818152600260205260408120546001600160a01b0316806105635760405162461bcd60e51b8152602060048201526018602482015277115490cdcc8c4e881a5b9d985b1a59081d1bdad95b88125160421b60448201526064016105c2565b60006001600160a01b0382166109a25760405162461bcd60e51b815260206004820152602960248201527f4552433732313a2061646472657373207a65726f206973206e6f7420612076616044820152683634b21037bbb732b960b91b60648201526084016105c2565b506001600160a01b031660009081526003602052604090205490565b60098190556040518181527fe6a72acf4eefaa5f9a7012d491c004dd6054a8bc720c58d7a478deef6e6dca179060200161060f565b60009182526007602090815260408084206001600160a01b0393909316845291905290205460ff1690565b610a477e6b97d3b00e0cfa27932db8d8710f84e2b8d72f339a1e910bf97a09597e99d6336109f3565b610a7c5760405162461bcd60e51b81526004016105c2906020808252600490820152630307830360e41b604082015260600190565b600b805460ff191682151590811790915560405160ff909116151581527f75c78bc812138994a449847964d69f763d488788e3fa93d74176339c8ba6155c9060200161060f565b60606001805461062990611ed8565b6009543414610b095760405162461bcd60e51b815260206004820152600360248201526203078360ec1b60448201526064016105c2565b603c6008541115610b1957600080fd5b60088054906000610b2983611f13565b9190505550610b38338261134c565b60408051338152602081018390527f79c65068f81072733b15ab3cba61b23110793f90ab099d228a414b186333a81e910161060f565b6108b933838361148e565b610b83338361103a565b610b9f5760405162461bcd60e51b81526004016105c290611de5565b610bab8484848461155d565b50505050565b6000818152600260205260409020546060906001600160a01b0316610bfe5760405162461bcd60e51b815260206004820152600360248201526203078360ec1b60448201526064016105c2565b6000610c08611590565b600b5490915060ff16610cab57604051602001610c94907f6372696d736f6e2d61646465642d63657068616c6f706f642d3231372e6d797081527f696e6174612e636c6f75642f697066732f516d4e6b3272633374553770516d4a60208201527f5876727467374673384837354d716d434e6f466335737065526d69474c5350006040820152605f0190565b604051602081830303815290604052915050919050565b6000815111610cc95760405180602001604052806000815250610ce7565b80610cd38461159f565b600c604051602001610c9493929190611bb5565b9392505050565b600082815260076020526040902060010154610d0981611255565b6107e483836112e5565b60606000610d22836002611e5f565b610d2d906002611e33565b67ffffffffffffffff811115610d5357634e487b7160e01b600052604160045260246000fd5b6040519080825280601f01601f191660200182016040528015610d7d576020820181803683370190505b509050600360fc1b81600081518110610da657634e487b7160e01b600052603260045260246000fd5b60200101906001600160f81b031916908160001a905350600f60fb1b81600181518110610de357634e487b7160e01b600052603260045260246000fd5b60200101906001600160f81b031916908160001a9053506000610e07846002611e5f565b610e12906001611e33565b90505b6001811115610ea6576f181899199a1a9b1b9c1cb0b131b232b360811b85600f1660108110610e5457634e487b7160e01b600052603260045260246000fd5b1a60f81b828281518110610e7857634e487b7160e01b600052603260045260246000fd5b60200101906001600160f81b031916908160001a90535060049490941c93610e9f81611ec1565b9050610e15565b508315610ce75760405162461bcd60e51b815260206004820181905260248201527f537472696e67733a20686578206c656e67746820696e73756666696369656e7460448201526064016105c2565b60006001600160e01b031982166380ac58cd60e01b1480610f2657506001600160e01b03198216635b5e139f60e01b145b8061056357506301ffc9a760e01b6001600160e01b0319831614610563565b60006001600160e01b03198216637965db0b60e01b1480610563575061056382610ef5565b6000818152600260205260409020546001600160a01b0316610fc95760405162461bcd60e51b8152602060048201526018602482015277115490cdcc8c4e881a5b9d985b1a59081d1bdad95b88125160421b60448201526064016105c2565b50565b600081815260046020526040902080546001600160a01b0319166001600160a01b0384169081179091558190611001826108d8565b6001600160a01b03167f8c5be1e5ebec7d5bd14f71427d1e84f3dd0314c0f7b2291e5b200ac8c7c3b92560405160405180910390a45050565b600080611046836108d8565b9050806001600160a01b0316846001600160a01b0316148061108d57506001600160a01b0380821660009081526005602090815260408083209388168352929052205460ff165b806110b15750836001600160a01b03166110a6846106ac565b6001600160a01b0316145b949350505050565b826001600160a01b03166110cc826108d8565b6001600160a01b0316146111305760405162461bcd60e51b815260206004820152602560248201527f4552433732313a207472616e736665722066726f6d20696e636f72726563742060448201526437bbb732b960d91b60648201526084016105c2565b6001600160a01b0382166111925760405162461bcd60e51b8152602060048201526024808201527f4552433732313a207472616e7366657220746f20746865207a65726f206164646044820152637265737360e01b60648201526084016105c2565b61119d600082610fcc565b6001600160a01b03831660009081526003602052604081208054600192906111c6908490611e7e565b90915550506001600160a01b03821660009081526003602052604081208054600192906111f4908490611e33565b909155505060008181526002602052604080822080546001600160a01b0319166001600160a01b0386811691821790925591518493918716917fddf252ad1be2c89b69c2b068fc378daa952ba7f163c4a11628f55a4df523b3ef91a4505050565b610fc981336116b9565b61126982826109f3565b6108b95760008281526007602090815260408083206001600160a01b03851684529091529020805460ff191660011790556112a13390565b6001600160a01b0316816001600160a01b0316837f2f8788117e7eff1d82e926ec794901d17c78024a50270940304540a733656f0d60405160405180910390a45050565b6112ef82826109f3565b156108b95760008281526007602090815260408083206001600160a01b0385168085529252808320805460ff1916905551339285917ff6391f5c32d9c69d2a47ea670b442974b53935d1edc7fd64eb21e047a839171b9190a45050565b6001600160a01b0382166113a25760405162461bcd60e51b815260206004820181905260248201527f4552433732313a206d696e7420746f20746865207a65726f206164647265737360448201526064016105c2565b6000818152600260205260409020546001600160a01b0316156114075760405162461bcd60e51b815260206004820152601c60248201527f4552433732313a20746f6b656e20616c7265616479206d696e7465640000000060448201526064016105c2565b6001600160a01b0382166000908152600360205260408120805460019290611430908490611e33565b909155505060008181526002602052604080822080546001600160a01b0319166001600160a01b03861690811790915590518392907fddf252ad1be2c89b69c2b068fc378daa952ba7f163c4a11628f55a4df523b3ef908290a45050565b816001600160a01b0316836001600160a01b031614156114f05760405162461bcd60e51b815260206004820152601960248201527f4552433732313a20617070726f766520746f2063616c6c65720000000000000060448201526064016105c2565b6001600160a01b03838116600081815260056020908152604080832094871680845294825291829020805460ff191686151590811790915591519182527f17307eab39ab6107e8899845ad3d59bd9653f200f220920489ca2b5937696c31910160405180910390a3505050565b6115688484846110b9565b6115748484848461171d565b610bab5760405162461bcd60e51b81526004016105c290611d93565b6060600a805461062990611ed8565b6060816115c35750506040805180820190915260018152600360fc1b602082015290565b8160005b81156115ed57806115d781611f13565b91506115e69050600a83611e4b565b91506115c7565b60008167ffffffffffffffff81111561161657634e487b7160e01b600052604160045260246000fd5b6040519080825280601f01601f191660200182016040528015611640576020820181803683370190505b5090505b84156110b157611655600183611e7e565b9150611662600a86611f2e565b61166d906030611e33565b60f81b81838151811061169057634e487b7160e01b600052603260045260246000fd5b60200101906001600160f81b031916908160001a9053506116b2600a86611e4b565b9450611644565b6116c382826109f3565b6108b9576116db816001600160a01b03166014610d13565b6116e6836020610d13565b6040516020016116f7929190611c4d565b60408051601f198184030181529082905262461bcd60e51b82526105c291600401611cff565b60006001600160a01b0384163b1561181f57604051630a85bd0160e11b81526001600160a01b0385169063150b7a0290611761903390899088908890600401611cc2565b602060405180830381600087803b15801561177b57600080fd5b505af19250505080156117ab575060408051601f3d908101601f191682019092526117a891810190611b27565b60015b611805573d8080156117d9576040519150601f19603f3d011682016040523d82523d6000602084013e6117de565b606091505b5080516117fd5760405162461bcd60e51b81526004016105c290611d93565b805181602001fd5b6001600160e01b031916630a85bd0160e11b1490506110b1565b506001949350505050565b82805461183690611ed8565b90600052602060002090601f016020900481019282611858576000855561189e565b82601f1061187157805160ff191683800117855561189e565b8280016001018555821561189e579182015b8281111561189e578251825591602001919060010190611883565b506118aa9291506118ae565b5090565b5b808211156118aa57600081556001016118af565b600067ffffffffffffffff808411156118de576118de611f6e565b604051601f8501601f19908116603f0116810190828211818310171561190657611906611f6e565b8160405280935085815286868601111561191f57600080fd5b858560208301376000602087830101525050509392505050565b80356001600160a01b038116811461195057600080fd5b919050565b8035801515811461195057600080fd5b600060208284031215611976578081fd5b610ce782611939565b60008060408385031215611991578081fd5b61199a83611939565b91506119a860208401611939565b90509250929050565b6000806000606084860312156119c5578081fd5b6119ce84611939565b92506119dc60208501611939565b9150604084013590509250925092565b60008060008060808587031215611a01578081fd5b611a0a85611939565b9350611a1860208601611939565b925060408501359150606085013567ffffffffffffffff811115611a3a578182fd5b8501601f81018713611a4a578182fd5b611a59878235602084016118c3565b91505092959194509250565b60008060408385031215611a77578182fd5b611a8083611939565b91506119a860208401611955565b60008060408385031215611aa0578182fd5b611aa983611939565b946020939093013593505050565b600060208284031215611ac8578081fd5b610ce782611955565b600060208284031215611ae2578081fd5b5035919050565b60008060408385031215611afb578182fd5b823591506119a860208401611939565b600060208284031215611b1c578081fd5b8135610ce781611f84565b600060208284031215611b38578081fd5b8151610ce781611f84565b600060208284031215611b54578081fd5b813567ffffffffffffffff811115611b6a578182fd5b8201601f81018413611b7a578182fd5b6110b1848235602084016118c3565b60008151808452611ba1816020860160208601611e95565b601f01601f19169290920160200192915050565b600084516020611bc88285838a01611e95565b855191840191611bdb8184848a01611e95565b85549201918390611beb81611ed8565b60018281168015611c035760018114611c1457611c3d565b60ff19841687528287019450611c3d565b898852858820885b84811015611c3557815489820152908301908701611c1c565b505082870194505b50929a9950505050505050505050565b7f416363657373436f6e74726f6c3a206163636f756e7420000000000000000000815260008351611c85816017850160208801611e95565b7001034b99036b4b9b9b4b733903937b6329607d1b6017918401918201528351611cb6816028840160208801611e95565b01602801949350505050565b6001600160a01b0385811682528416602082015260408101839052608060608201819052600090611cf590830184611b89565b9695505050505050565b602081526000610ce76020830184611b89565b60006020808352818454611d2581611ed8565b80848701526040600180841660008114611d465760018114611d5a57611d85565b60ff19851689840152606089019550611d85565b898852868820885b85811015611d7d5781548b8201860152908301908801611d62565b8a0184019650505b509398975050505050505050565b60208082526032908201527f4552433732313a207472616e7366657220746f206e6f6e20455243373231526560408201527131b2b4bb32b91034b6b83632b6b2b73a32b960711b606082015260800190565b6020808252602e908201527f4552433732313a2063616c6c6572206973206e6f7420746f6b656e206f776e6560408201526d1c881b9bdc88185c1c1c9bdd995960921b606082015260800190565b60008219821115611e4657611e46611f42565b500190565b600082611e5a57611e5a611f58565b500490565b6000816000190483118215151615611e7957611e79611f42565b500290565b600082821015611e9057611e90611f42565b500390565b60005b83811015611eb0578181015183820152602001611e98565b83811115610bab5750506000910152565b600081611ed057611ed0611f42565b506000190190565b600181811c90821680611eec57607f821691505b60208210811415611f0d57634e487b7160e01b600052602260045260246000fd5b50919050565b6000600019821415611f2757611f27611f42565b5060010190565b600082611f3d57611f3d611f58565b500690565b634e487b7160e01b600052601160045260246000fd5b634e487b7160e01b600052601260045260246000fd5b634e487b7160e01b600052604160045260246000fd5b6001600160e01b031981168114610fc957600080fdfea2646970667358221220aef737edd133fbfb3b6790d603ca0c888613fca693d04d19c5280d244801ee4f64736f6c63430008040033",
  "linkReferences": {},
  "deployedLinkReferences": {}
}