{
    "contractName": "Marketplace",
    "abi": [
        {
            "anonymous": false,
            "inputs": [
                {
                    "indexed": false,
                    "internalType": "uint256",
                    "name": "itemId",
                    "type": "uint256"
                },
                {
                    "indexed": true,
                    "internalType": "address",
                    "name": "nft",
                    "type": "address"
                },
                {
                    "indexed": false,
                    "internalType": "uint256",
                    "name": "tokenId",
                    "type": "uint256"
                },
                {
                    "indexed": false,
                    "internalType": "uint256",
                    "name": "price",
                    "type": "uint256"
                },
                {
                    "indexed": true,
                    "internalType": "address",
                    "name": "seller",
                    "type": "address"
                },
                {
                    "indexed": true,
                    "internalType": "address",
                    "name": "buyer",
                    "type": "address"
                }
            ],
            "name": "Bought",
            "type": "event"
        },
        {
            "anonymous": false,
            "inputs": [
                {
                    "indexed": false,
                    "internalType": "uint256",
                    "name": "itemId",
                    "type": "uint256"
                },
                {
                    "indexed": true,
                    "internalType": "address",
                    "name": "nft",
                    "type": "address"
                },
                {
                    "indexed": false,
                    "internalType": "uint256",
                    "name": "tokenId",
                    "type": "uint256"
                },
                {
                    "indexed": false,
                    "internalType": "uint256",
                    "name": "price",
                    "type": "uint256"
                },
                {
                    "indexed": true,
                    "internalType": "address",
                    "name": "seller",
                    "type": "address"
                }
            ],
            "name": "Offered",
            "type": "event"
        },
        {
            "inputs": [
                {
                    "internalType": "uint256",
                    "name": "_itemId",
                    "type": "uint256"
                }
            ],
            "name": "getTotalPrice",
            "outputs": [
                {
                    "internalType": "uint256",
                    "name": "",
                    "type": "uint256"
                }
            ],
            "stateMutability": "view",
            "type": "function"
        },
        {
            "inputs": [],
            "name": "itemCount",
            "outputs": [
                {
                    "internalType": "uint256",
                    "name": "",
                    "type": "uint256"
                }
            ],
            "stateMutability": "view",
            "type": "function"
        },
        {
            "inputs": [
                {
                    "internalType": "uint256",
                    "name": "",
                    "type": "uint256"
                }
            ],
            "name": "items",
            "outputs": [
                {
                    "internalType": "uint256",
                    "name": "tokenId",
                    "type": "uint256"
                },
                {
                    "internalType": "contract IERC721",
                    "name": "nft",
                    "type": "address"
                },
                {
                    "internalType": "uint256",
                    "name": "price",
                    "type": "uint256"
                },
                {
                    "internalType": "address payable",
                    "name": "seller",
                    "type": "address"
                }
            ],
            "stateMutability": "view",
            "type": "function"
        },
        {
            "inputs": [
                {
                    "internalType": "contract IERC721",
                    "name": "_nft",
                    "type": "address"
                },
                {
                    "internalType": "uint256",
                    "name": "_tokenId",
                    "type": "uint256"
                },
                {
                    "internalType": "uint256",
                    "name": "_price",
                    "type": "uint256"
                }
            ],
            "name": "makeItem",
            "outputs": [],
            "stateMutability": "nonpayable",
            "type": "function"
        },
        {
            "inputs": [
                {
                    "internalType": "contract IERC721",
                    "name": "_nft",
                    "type": "address"
                },
                {
                    "internalType": "uint256[]",
                    "name": "_tokenId",
                    "type": "uint256[]"
                },
                {
                    "internalType": "uint256",
                    "name": "_price",
                    "type": "uint256"
                }
            ],
            "name": "makeItemBulk",
            "outputs": [],
            "stateMutability": "nonpayable",
            "type": "function"
        },
        {
            "inputs": [
                {
                    "internalType": "uint256",
                    "name": "_itemId",
                    "type": "uint256"
                }
            ],
            "name": "purchaseItem",
            "outputs": [],
            "stateMutability": "payable",
            "type": "function"
        }
    ],
    "bytecode": "608060405234801561001057600080fd5b5060016000556109d2806100256000396000f3fe6080604052600436106100555760003560e01c80636bfb0d011461005a578063b9660f0514610083578063bfb231d2146100a5578063ca7dd37514610120578063d38ea5bf14610151578063fa00afc714610164575b600080fd5b34801561006657600080fd5b5061007060015481565b6040519081526020015b60405180910390f35b34801561008f57600080fd5b506100a361009e3660046107e4565b610184565b005b3480156100b157600080fd5b506100f56100c03660046108bd565b6002602081905260009182526040909120805460018201549282015460039092015490926001600160a01b0390811692911684565b604080519485526001600160a01b03938416602086015284019190915216606082015260800161007a565b34801561012c57600080fd5b5061007061013b3660046108bd565b6000908152600260208190526040909120015490565b6100a361015f3660046108bd565b61039b565b34801561017057600080fd5b506100a361017f3660046108d6565b6105fb565b6002600054036101af5760405162461bcd60e51b81526004016101a690610909565b60405180910390fd5b6002600055806102015760405162461bcd60e51b815260206004820152601f60248201527f5072696365206d7573742062652067726561746572207468616e207a65726f0060448201526064016101a6565b60005b8251811015610390576001805490600061021d83610956565b9190505550836001600160a01b03166323b872dd33308685815181106102455761024561096f565b60209081029190910101516040516001600160e01b031960e086901b1681526001600160a01b0393841660048201529290911660248301526044820152606401600060405180830381600087803b15801561029f57600080fd5b505af11580156102b3573d6000803e3d6000fd5b5050505060405180608001604052808483815181106102d4576102d461096f565b60200260200101518152602001856001600160a01b03168152602001838152602001336001600160a01b0316815250600260008584815181106103195761031961096f565b602090810291909101810151825281810192909252604090810160002083518155918301516001830180546001600160a01b039283166001600160a01b031991821617909155918401516002840155606090930151600390920180549290931691161790558061038881610956565b915050610204565b505060016000555050565b6002600054036103bd5760405162461bcd60e51b81526004016101a690610909565b60026000818155828152602082905260409020908101549082158015906103e657506001548311155b6104275760405162461bcd60e51b81526020600482015260126024820152711a5d195b48191bd95cdb89dd08195e1a5cdd60721b60448201526064016101a6565b813410156104935760405162461bcd60e51b815260206004820152603360248201527f6e6f7420656e6f75676820657468657220746f20636f766572206974656d20706044820152727269636520616e64206d61726b65742066656560681b60648201526084016101a6565b600381015460028201546040516001600160a01b039092169181156108fc0291906000818181858888f193505050501580156104d3573d6000803e3d6000fd5b506000838152600260208190526040808320838155600180820180546001600160a01b031990811690915593820194909455600301805490921690915590820154825491516323b872dd60e01b815230600482015233602482015260448101929092526001600160a01b0316906323b872dd90606401600060405180830381600087803b15801561056357600080fd5b505af1158015610577573d6000803e3d6000fd5b50506001805492509050600061058c83610985565b9091555050600381015460018201548254600284015460408051888152602081019390935282015233926001600160a01b039081169216907f8b4c9c8a607d67b321582dd8461041b1dc2ceeca70c8b7f37f8e02095cf2e76d9060600160405180910390a45050600160005550565b60026000540361061d5760405162461bcd60e51b81526004016101a690610909565b60026000558061066f5760405162461bcd60e51b815260206004820152601f60248201527f5072696365206d7573742062652067726561746572207468616e207a65726f0060448201526064016101a6565b6001805490600061067f83610956565b90915550506040516323b872dd60e01b8152336004820152306024820152604481018390526001600160a01b038416906323b872dd90606401600060405180830381600087803b1580156106d257600080fd5b505af11580156106e6573d6000803e3d6000fd5b5050604080516080810182528581526001600160a01b03878116602080840182815284860189815233606080880182815260008e81526002808852908b902099518a5594516001808b018054928b166001600160a01b03199384161790559451958a01959095555160039098018054989097169790931696909617909455925485519081529081018990529384018790529194509092507f655a0cf9c8db81512be9a76dc1c5ae5380b8816ce6ad659cd61b715e2999d59a910160405180910390a35050600160005550565b80356001600160a01b03811681146107c957600080fd5b919050565b634e487b7160e01b600052604160045260246000fd5b6000806000606084860312156107f957600080fd5b610802846107b2565b925060208085013567ffffffffffffffff8082111561082057600080fd5b818701915087601f83011261083457600080fd5b813581811115610846576108466107ce565b8060051b604051601f19603f8301168101818110858211171561086b5761086b6107ce565b60405291825284820192508381018501918a83111561088957600080fd5b938501935b828510156108a75784358452938501939285019261088e565b979a979950505050604095909501359450505050565b6000602082840312156108cf57600080fd5b5035919050565b6000806000606084860312156108eb57600080fd5b6108f4846107b2565b95602085013595506040909401359392505050565b6020808252601f908201527f5265656e7472616e637947756172643a207265656e7472616e742063616c6c00604082015260600190565b634e487b7160e01b600052601160045260246000fd5b60006001820161096857610968610940565b5060010190565b634e487b7160e01b600052603260045260246000fd5b60008161099457610994610940565b50600019019056fea264697066735822122074218e1f9e62d4620bab6d58962d9ff355ea71d83f2751537314c10e0b16093d64736f6c63430008110033",
    "sourcePath": "/Users/talhajaami/Desktop/Marketplace_ERC20_ERC721/src/backend/contracts/Marketplace.sol",
    "compiler": {
        "name": "solc",
        "version": "0.8.17+commit.8df45f5f"
    },
    "functionHashes": {
        "getTotalPrice(uint256)": "ca7dd375",
        "itemCount()": "6bfb0d01",
        "items(uint256)": "bfb231d2",
        "makeItem(address,uint256,uint256)": "fa00afc7",
        "makeItemBulk(address,uint256[],uint256)": "b9660f05",
        "purchaseItem(uint256)": "d38ea5bf"
    },
    "gasEstimates": {
        "creation": {
            "codeDepositCost": "502800",
            "executionCost": "22643",
            "totalCost": "525443"
        },
        "external": {
            "getTotalPrice(uint256)": "2483",
            "itemCount()": "2262",
            "items(uint256)": "8922",
            "makeItem(address,uint256,uint256)": "infinite",
            "makeItemBulk(address,uint256[],uint256)": "infinite",
            "purchaseItem(uint256)": "infinite"
        }
    }
}